{"contracts/Box.sol":{"Box":{"abi":[{"inputs":[{"internalType":"string","name":"name","type":"string"},{"internalType":"string","name":"farmer_id","type":"string"},{"internalType":"string","name":"number","type":"string"},{"internalType":"string","name":"region","type":"string"}],"name":"add_farmer","outputs":[],"stateMutability":"nonpayable","type":"function"},{"inputs":[{"internalType":"string","name":"farmer_id","type":"string"},{"internalType":"uint256","name":"weight","type":"uint256"},{"internalType":"uint256","name":"hardness","type":"uint256"},{"internalType":"uint256","name":"size","type":"uint256"},{"internalType":"uint256","name":"quantity","type":"uint256"},{"internalType":"uint256","name":"quality_index","type":"uint256"},{"internalType":"string","name":"produce","type":"string"}],"name":"add_trade","outputs":[],"stateMutability":"nonpayable","type":"function"},{"inputs":[{"internalType":"uint256","name":"","type":"uint256"}],"name":"all_loans","outputs":[{"internalType":"uint256","name":"loan_index","type":"uint256"},{"internalType":"string","name":"farmer_id","type":"string"},{"internalType":"uint256","name":"amount","type":"uint256"},{"internalType":"bool","name":"paid","type":"bool"}],"stateMutability":"view","type":"function"},{"inputs":[{"internalType":"string","name":"","type":"string"},{"internalType":"uint256","name":"","type":"uint256"}],"name":"all_order_volumes","outputs":[{"internalType":"uint256","name":"","type":"uint256"}],"stateMutability":"view","type":"function"},{"inputs":[{"internalType":"string","name":"","type":"string"},{"internalType":"uint256","name":"","type":"uint256"}],"name":"aqis","outputs":[{"internalType":"uint256","name":"","type":"uint256"}],"stateMutability":"view","type":"function"},{"inputs":[{"internalType":"string","name":"","type":"string"},{"internalType":"uint256","name":"","type":"uint256"}],"name":"avg_order_size","outputs":[{"internalType":"uint256","name":"","type":"uint256"}],"stateMutability":"view","type":"function"},{"inputs":[{"internalType":"string","name":"","type":"string"}],"name":"balances","outputs":[{"internalType":"uint256","name":"","type":"uint256"}],"stateMutability":"view","type":"function"},{"inputs":[{"internalType":"string","name":"farmer_id","type":"string"}],"name":"change_number","outputs":[],"stateMutability":"nonpayable","type":"function"},{"inputs":[{"internalType":"string","name":"","type":"string"},{"internalType":"uint256","name":"","type":"uint256"}],"name":"farmer_loans","outputs":[{"internalType":"uint256","name":"loan_index","type":"uint256"},{"internalType":"string","name":"farmer_id","type":"string"},{"internalType":"uint256","name":"amount","type":"uint256"},{"internalType":"bool","name":"paid","type":"bool"}],"stateMutability":"view","type":"function"},{"inputs":[{"internalType":"string","name":"","type":"string"},{"internalType":"uint256","name":"","type":"uint256"}],"name":"farmer_trades","outputs":[{"internalType":"uint256","name":"id","type":"uint256"},{"internalType":"string","name":"farmer_id","type":"string"},{"internalType":"uint256","name":"weight","type":"uint256"},{"internalType":"uint256","name":"hardness","type":"uint256"},{"internalType":"uint256","name":"size","type":"uint256"},{"internalType":"bool","name":"open","type":"bool"},{"internalType":"uint256","name":"quantity","type":"uint256"},{"internalType":"uint256","name":"quality_index","type":"uint256"},{"internalType":"string","name":"produce","type":"string"}],"stateMutability":"view","type":"function"},{"inputs":[{"internalType":"string","name":"","type":"string"}],"name":"farmers","outputs":[{"internalType":"string","name":"name","type":"string"},{"internalType":"string","name":"farmer_id","type":"string"},{"internalType":"string","name":"number","type":"string"},{"internalType":"string","name":"region","type":"string"},{"internalType":"uint256","name":"index","type":"uint256"}],"stateMutability":"view","type":"function"},{"inputs":[{"internalType":"uint256","name":"","type":"uint256"}],"name":"farmers_list","outputs":[{"internalType":"string","name":"name","type":"string"},{"internalType":"string","name":"farmer_id","type":"string"},{"internalType":"string","name":"number","type":"string"},{"internalType":"string","name":"region","type":"string"},{"internalType":"uint256","name":"index","type":"uint256"}],"stateMutability":"view","type":"function"},{"inputs":[],"name":"get_all_farmers","outputs":[{"components":[{"internalType":"string","name":"name","type":"string"},{"internalType":"string","name":"farmer_id","type":"string"},{"internalType":"string","name":"number","type":"string"},{"internalType":"string","name":"region","type":"string"},{"internalType":"uint256","name":"index","type":"uint256"}],"internalType":"struct Box.Farmer[]","name":"","type":"tuple[]"}],"stateMutability":"view","type":"function"},{"inputs":[],"name":"get_all_loans","outputs":[{"components":[{"internalType":"uint256","name":"loan_index","type":"uint256"},{"internalType":"string","name":"farmer_id","type":"string"},{"internalType":"uint256","name":"amount","type":"uint256"},{"internalType":"bool","name":"paid","type":"bool"}],"internalType":"struct Box.Loan[]","name":"","type":"tuple[]"}],"stateMutability":"view","type":"function"},{"inputs":[],"name":"get_all_trades","outputs":[{"components":[{"internalType":"uint256","name":"id","type":"uint256"},{"internalType":"string","name":"farmer_id","type":"string"},{"internalType":"uint256","name":"weight","type":"uint256"},{"internalType":"uint256","name":"hardness","type":"uint256"},{"internalType":"uint256","name":"size","type":"uint256"},{"internalType":"bool","name":"open","type":"bool"},{"internalType":"uint256","name":"quantity","type":"uint256"},{"internalType":"uint256","name":"quality_index","type":"uint256"},{"internalType":"string","name":"produce","type":"string"}],"internalType":"struct Box.Trade[]","name":"","type":"tuple[]"}],"stateMutability":"view","type":"function"},{"inputs":[{"internalType":"string","name":"farmer_id","type":"string"}],"name":"get_balance","outputs":[{"internalType":"uint256","name":"","type":"uint256"}],"stateMutability":"view","type":"function"},{"inputs":[{"internalType":"string","name":"farmer_id","type":"string"}],"name":"get_farmer_loans","outputs":[{"components":[{"internalType":"uint256","name":"loan_index","type":"uint256"},{"internalType":"string","name":"farmer_id","type":"string"},{"internalType":"uint256","name":"amount","type":"uint256"},{"internalType":"bool","name":"paid","type":"bool"}],"internalType":"struct Box.Loan[]","name":"","type":"tuple[]"}],"stateMutability":"view","type":"function"},{"inputs":[{"internalType":"string","name":"farmer_id","type":"string"}],"name":"get_farmer_trades","outputs":[{"components":[{"internalType":"uint256","name":"id","type":"uint256"},{"internalType":"string","name":"farmer_id","type":"string"},{"internalType":"uint256","name":"weight","type":"uint256"},{"internalType":"uint256","name":"hardness","type":"uint256"},{"internalType":"uint256","name":"size","type":"uint256"},{"internalType":"bool","name":"open","type":"bool"},{"internalType":"uint256","name":"quantity","type":"uint256"},{"internalType":"uint256","name":"quality_index","type":"uint256"},{"internalType":"string","name":"produce","type":"string"}],"internalType":"struct Box.Trade[]","name":"","type":"tuple[]"}],"stateMutability":"view","type":"function"},{"inputs":[{"internalType":"string","name":"farmer_id","type":"string"},{"internalType":"uint256","name":"amount","type":"uint256"}],"name":"give_loan","outputs":[],"stateMutability":"nonpayable","type":"function"},{"inputs":[{"internalType":"uint256","name":"loan_index","type":"uint256"}],"name":"mark_loan_as_paid","outputs":[],"stateMutability":"nonpayable","type":"function"},{"inputs":[{"internalType":"string","name":"","type":"string"},{"internalType":"uint256","name":"","type":"uint256"}],"name":"ratings","outputs":[{"internalType":"uint256","name":"","type":"uint256"}],"stateMutability":"view","type":"function"},{"inputs":[{"internalType":"uint256","name":"trade_id","type":"uint256"}],"name":"remove_trade","outputs":[],"stateMutability":"nonpayable","type":"function"},{"inputs":[{"internalType":"uint256","name":"","type":"uint256"}],"name":"trades","outputs":[{"internalType":"uint256","name":"id","type":"uint256"},{"internalType":"string","name":"farmer_id","type":"string"},{"internalType":"uint256","name":"weight","type":"uint256"},{"internalType":"uint256","name":"hardness","type":"uint256"},{"internalType":"uint256","name":"size","type":"uint256"},{"internalType":"bool","name":"open","type":"bool"},{"internalType":"uint256","name":"quantity","type":"uint256"},{"internalType":"uint256","name":"quality_index","type":"uint256"},{"internalType":"string","name":"produce","type":"string"}],"stateMutability":"view","type":"function"}],"evm":{"bytecode":{"linkReferences":{},"object":"608060405234801561001057600080fd5b5061376e806100206000396000f3fe608060405234801561001057600080fd5b506004361061014d5760003560e01c806365481cda116100c3578063bf818c751161007c578063bf818c7514610435578063c27f3ea314610451578063e10587c11461046d578063f1d1a19b1461048b578063f562782c146104be578063f69cfc80146104da5761014d565b806365481cda1461033b57806365a9b4a01461036b57806373a433f81461039b57806381a063f3146103cb578063957dae9d146103e9578063bbb59036146104055761014d565b80632afd97a4116101155780632afd97a41461022857806333de5d52146102585780634f4f10ef14610274578063544b4ac4146102a75780635cda3172146102d7578063628f40681461030b5761014d565b806311d9bb4214610152578063159af658146101825780631e6c598e146101b65780631ff1df34146101ee578063283bcdbb1461020c575b600080fd5b61016c60048036038101906101679190612c83565b610512565b60405161017991906132ee565b60405180910390f35b61019c60048036038101906101979190612da5565b610559565b6040516101ad95949392919061327f565b60405180910390f35b6101d060048036038101906101cb9190612da5565b6107bf565b6040516101e599989796959493929190613355565b60405180910390f35b6101f661093a565b604051610203919061323b565b60405180910390f35b61022660048036038101906102219190612bc0565b610a5a565b005b610242600480360381019061023d9190612b7f565b610c17565b60405161024f91906132ee565b60405180910390f35b610272600480360381019061026d9190612c83565b610c45565b005b61028e60048036038101906102899190612c83565b610ddd565b60405161029e9493929190613309565b60405180910390f35b6102c160048036038101906102bc9190612b7f565b610ed5565b6040516102ce919061323b565b60405180910390f35b6102f160048036038101906102ec9190612b7f565b611013565b60405161030295949392919061327f565b60405180910390f35b61032560048036038101906103209190612c83565b61127f565b60405161033291906132ee565b60405180910390f35b61035560048036038101906103509190612b7f565b6112c6565b604051610362919061325d565b60405180910390f35b61038560048036038101906103809190612b7f565b6114bf565b60405161039291906132ee565b60405180910390f35b6103b560048036038101906103b09190612c83565b6114e7565b6040516103c291906132ee565b60405180910390f35b6103d361152e565b6040516103e0919061325d565b60405180910390f35b61040360048036038101906103fe9190612da5565b611709565b005b61041f600480360381019061041a9190612c83565b611b1f565b60405161042c91906132ee565b60405180910390f35b61044f600480360381019061044a9190612da5565b611b66565b005b61046b60048036038101906104669190612cd7565b6120f2565b005b610475612305565b6040516104829190613219565b60405180910390f35b6104a560048036038101906104a09190612da5565b6125b6565b6040516104b59493929190613309565b60405180910390f35b6104d860048036038101906104d39190612b7f565b61268b565b005b6104f460048036038101906104ef9190612c83565b6127af565b60405161050999989796959493929190613355565b60405180910390f35b600682805160208101820180518482526020830160208501208183528095505050505050818154811061054457600080fd5b90600052602060002001600091509150505481565b6001818154811061056957600080fd5b906000526020600020906005020160009150905080600001805461058c906135d7565b80601f01602080910402602001604051908101604052809291908181526020018280546105b8906135d7565b80156106055780601f106105da57610100808354040283529160200191610605565b820191906000526020600020905b8154815290600101906020018083116105e857829003601f168201915b50505050509080600101805461061a906135d7565b80601f0160208091040260200160405190810160405280929190818152602001828054610646906135d7565b80156106935780601f1061066857610100808354040283529160200191610693565b820191906000526020600020905b81548152906001019060200180831161067657829003601f168201915b5050505050908060020180546106a8906135d7565b80601f01602080910402602001604051908101604052809291908181526020018280546106d4906135d7565b80156107215780601f106106f657610100808354040283529160200191610721565b820191906000526020600020905b81548152906001019060200180831161070457829003601f168201915b505050505090806003018054610736906135d7565b80601f0160208091040260200160405190810160405280929190818152602001828054610762906135d7565b80156107af5780601f10610784576101008083540402835291602001916107af565b820191906000526020600020905b81548152906001019060200180831161079257829003601f168201915b5050505050908060040154905085565b600481815481106107cf57600080fd5b90600052602060002090600902016000915090508060000154908060010180546107f8906135d7565b80601f0160208091040260200160405190810160405280929190818152602001828054610824906135d7565b80156108715780601f1061084657610100808354040283529160200191610871565b820191906000526020600020905b81548152906001019060200180831161085457829003601f168201915b5050505050908060020154908060030154908060040154908060050160009054906101000a900460ff16908060060154908060070154908060080180546108b7906135d7565b80601f01602080910402602001604051908101604052809291908181526020018280546108e3906135d7565b80156109305780601f1061090557610100808354040283529160200191610930565b820191906000526020600020905b81548152906001019060200180831161091357829003601f168201915b5050505050905089565b6060600c805480602002602001604051908101604052809291908181526020016000905b82821015610a5157838290600052602060002090600402016040518060800160405290816000820154815260200160018201805461099b906135d7565b80601f01602080910402602001604051908101604052809291908181526020018280546109c7906135d7565b8015610a145780601f106109e957610100808354040283529160200191610a14565b820191906000526020600020905b8154815290600101906020018083116109f757829003601f168201915b50505050508152602001600282015481526020016003820160009054906101000a900460ff1615151515815250508152602001906001019061095e565b50505050905090565b60006040518060a00160405280868152602001858152602001848152602001838152602001600254815250905080600085604051610a989190613202565b90815260200160405180910390206000820151816000019080519060200190610ac2929190612a5f565b506020820151816001019080519060200190610adf929190612a5f565b506040820151816002019080519060200190610afc929190612a5f565b506060820151816003019080519060200190610b19929190612a5f565b506080820151816004015590505060018190806001815401808255809150506001900390600052602060002090600502016000909190919091506000820151816000019080519060200190610b6f929190612a5f565b506020820151816001019080519060200190610b8c929190612a5f565b506040820151816002019080519060200190610ba9929190612a5f565b506060820151816003019080519060200190610bc6929190612a5f565b50608082015181600401555050600a8085604051610be49190613202565b908152602001604051809103902081905550600160026000828254610c099190613529565b925050819055505050505050565b600a818051602081018201805184825260208301602085012081835280955050505050506000915090505481565b80600a83604051610c569190613202565b90815260200160405180910390206000828254610c739190613529565b9250508190555060006040518060800160405280600d548152602001848152602001838152602001600015158152509050600b83604051610cb49190613202565b9081526020016040518091039020819080600181540180825580915050600190039060005260206000209060040201600090919091909150600082015181600001556020820151816001019080519060200190610d12929190612a5f565b506040820151816002015560608201518160030160006101000a81548160ff0219169083151502179055505050600c819080600181540180825580915050600190039060005260206000209060040201600090919091909150600082015181600001556020820151816001019080519060200190610d91929190612a5f565b506040820151816002015560608201518160030160006101000a81548160ff02191690831515021790555050506001600d6000828254610dd19190613529565b92505081905550505050565b600b828051602081018201805184825260208301602085012081835280955050505050508181548110610e0f57600080fd5b906000526020600020906004020160009150915050806000015490806001018054610e39906135d7565b80601f0160208091040260200160405190810160405280929190818152602001828054610e65906135d7565b8015610eb25780601f10610e8757610100808354040283529160200191610eb2565b820191906000526020600020905b815481529060010190602001808311610e9557829003601f168201915b5050505050908060020154908060030160009054906101000a900460ff16905084565b6060600b82604051610ee79190613202565b9081526020016040518091039020805480602002602001604051908101604052809291908181526020016000905b82821015611008578382906000526020600020906004020160405180608001604052908160008201548152602001600182018054610f52906135d7565b80601f0160208091040260200160405190810160405280929190818152602001828054610f7e906135d7565b8015610fcb5780601f10610fa057610100808354040283529160200191610fcb565b820191906000526020600020905b815481529060010190602001808311610fae57829003601f168201915b50505050508152602001600282015481526020016003820160009054906101000a900460ff16151515158152505081526020019060010190610f15565b505050509050919050565b60008180516020810182018051848252602083016020850120818352809550505050505060009150905080600001805461104c906135d7565b80601f0160208091040260200160405190810160405280929190818152602001828054611078906135d7565b80156110c55780601f1061109a576101008083540402835291602001916110c5565b820191906000526020600020905b8154815290600101906020018083116110a857829003601f168201915b5050505050908060010180546110da906135d7565b80601f0160208091040260200160405190810160405280929190818152602001828054611106906135d7565b80156111535780601f1061112857610100808354040283529160200191611153565b820191906000526020600020905b81548152906001019060200180831161113657829003601f168201915b505050505090806002018054611168906135d7565b80601f0160208091040260200160405190810160405280929190818152602001828054611194906135d7565b80156111e15780601f106111b6576101008083540402835291602001916111e1565b820191906000526020600020905b8154815290600101906020018083116111c457829003601f168201915b5050505050908060030180546111f6906135d7565b80601f0160208091040260200160405190810160405280929190818152602001828054611222906135d7565b801561126f5780601f106112445761010080835404028352916020019161126f565b820191906000526020600020905b81548152906001019060200180831161125257829003601f168201915b5050505050908060040154905085565b60088280516020810182018051848252602083016020850120818352809550505050505081815481106112b157600080fd5b90600052602060002001600091509150505481565b60606003826040516112d89190613202565b9081526020016040518091039020805480602002602001604051908101604052809291908181526020016000905b828210156114b457838290600052602060002090600902016040518061012001604052908160008201548152602001600182018054611344906135d7565b80601f0160208091040260200160405190810160405280929190818152602001828054611370906135d7565b80156113bd5780601f10611392576101008083540402835291602001916113bd565b820191906000526020600020905b8154815290600101906020018083116113a057829003601f168201915b505050505081526020016002820154815260200160038201548152602001600482015481526020016005820160009054906101000a900460ff161515151581526020016006820154815260200160078201548152602001600882018054611423906135d7565b80601f016020809104026020016040519081016040528092919081815260200182805461144f906135d7565b801561149c5780601f106114715761010080835404028352916020019161149c565b820191906000526020600020905b81548152906001019060200180831161147f57829003601f168201915b50505050508152505081526020019060010190611306565b505050509050919050565b6000600a826040516114d19190613202565b9081526020016040518091039020549050919050565b600782805160208101820180518482526020830160208501208183528095505050505050818154811061151957600080fd5b90600052602060002001600091509150505481565b60606004805480602002602001604051908101604052809291908181526020016000905b8282101561170057838290600052602060002090600902016040518061012001604052908160008201548152602001600182018054611590906135d7565b80601f01602080910402602001604051908101604052809291908181526020018280546115bc906135d7565b80156116095780601f106115de57610100808354040283529160200191611609565b820191906000526020600020905b8154815290600101906020018083116115ec57829003601f168201915b505050505081526020016002820154815260200160038201548152602001600482015481526020016005820160009054906101000a900460ff16151515158152602001600682015481526020016007820154815260200160088201805461166f906135d7565b80601f016020809104026020016040519081016040528092919081815260200182805461169b906135d7565b80156116e85780601f106116bd576101008083540402835291602001916116e8565b820191906000526020600020905b8154815290600101906020018083116116cb57829003601f168201915b50505050508152505081526020019060010190611552565b50505050905090565b6000600c8281548110611745577f4e487b7100000000000000000000000000000000000000000000000000000000600052603260045260246000fd5b90600052602060002090600402016001018054611761906135d7565b80601f016020809104026020016040519081016040528092919081815260200182805461178d906135d7565b80156117da5780601f106117af576101008083540402835291602001916117da565b820191906000526020600020905b8154815290600101906020018083116117bd57829003601f168201915b505050505090506000611a34600b836040516117f69190613202565b9081526020016040518091039020805480602002602001604051908101604052809291908181526020016000905b82821015611917578382906000526020600020906004020160405180608001604052908160008201548152602001600182018054611861906135d7565b80601f016020809104026020016040519081016040528092919081815260200182805461188d906135d7565b80156118da5780601f106118af576101008083540402835291602001916118da565b820191906000526020600020905b8154815290600101906020018083116118bd57829003601f168201915b50505050508152602001600282015481526020016003820160009054906101000a900460ff16151515158152505081526020019060010190611824565b50505050600c8581548110611955577f4e487b7100000000000000000000000000000000000000000000000000000000600052603260045260246000fd5b906000526020600020906004020160405180608001604052908160008201548152602001600182018054611988906135d7565b80601f01602080910402602001604051908101604052809291908181526020018280546119b4906135d7565b8015611a015780601f106119d657610100808354040283529160200191611a01565b820191906000526020600020905b8154815290600101906020018083116119e457829003601f168201915b50505050508152602001600282015481526020016003820160009054906101000a900460ff16151515158152505061294d565b90506001600b83604051611a489190613202565b90815260200160405180910390208281548110611a8e577f4e487b7100000000000000000000000000000000000000000000000000000000600052603260045260246000fd5b906000526020600020906004020160030160006101000a81548160ff0219169083151502179055506001600c8481548110611af2577f4e487b7100000000000000000000000000000000000000000000000000000000600052603260045260246000fd5b906000526020600020906004020160030160006101000a81548160ff021916908315150217905550505050565b6009828051602081018201805184825260208301602085012081835280955050505050508181548110611b5157600080fd5b90600052602060002001600091509150505481565b600060048281548110611ba2577f4e487b7100000000000000000000000000000000000000000000000000000000600052603260045260246000fd5b90600052602060002090600902016001018054611bbe906135d7565b80601f0160208091040260200160405190810160405280929190818152602001828054611bea906135d7565b8015611c375780601f10611c0c57610100808354040283529160200191611c37565b820191906000526020600020905b815481529060010190602001808311611c1a57829003601f168201915b505050505090506000612007600383604051611c539190613202565b9081526020016040518091039020805480602002602001604051908101604052809291908181526020016000905b82821015611e2f57838290600052602060002090600902016040518061012001604052908160008201548152602001600182018054611cbf906135d7565b80601f0160208091040260200160405190810160405280929190818152602001828054611ceb906135d7565b8015611d385780601f10611d0d57610100808354040283529160200191611d38565b820191906000526020600020905b815481529060010190602001808311611d1b57829003601f168201915b505050505081526020016002820154815260200160038201548152602001600482015481526020016005820160009054906101000a900460ff161515151581526020016006820154815260200160078201548152602001600882018054611d9e906135d7565b80601f0160208091040260200160405190810160405280929190818152602001828054611dca906135d7565b8015611e175780601f10611dec57610100808354040283529160200191611e17565b820191906000526020600020905b815481529060010190602001808311611dfa57829003601f168201915b50505050508152505081526020019060010190611c81565b5050505060048581548110611e6d577f4e487b7100000000000000000000000000000000000000000000000000000000600052603260045260246000fd5b90600052602060002090600902016040518061012001604052908160008201548152602001600182018054611ea1906135d7565b80601f0160208091040260200160405190810160405280929190818152602001828054611ecd906135d7565b8015611f1a5780601f10611eef57610100808354040283529160200191611f1a565b820191906000526020600020905b815481529060010190602001808311611efd57829003601f168201915b505050505081526020016002820154815260200160038201548152602001600482015481526020016005820160009054906101000a900460ff161515151581526020016006820154815260200160078201548152602001600882018054611f80906135d7565b80601f0160208091040260200160405190810160405280929190818152602001828054611fac906135d7565b8015611ff95780601f10611fce57610100808354040283529160200191611ff9565b820191906000526020600020905b815481529060010190602001808311611fdc57829003601f168201915b5050505050815250506129d6565b9050600060038360405161201b9190613202565b90815260200160405180910390208281548110612061577f4e487b7100000000000000000000000000000000000000000000000000000000600052603260045260246000fd5b906000526020600020906009020160050160006101000a81548160ff0219169083151502179055506000600484815481106120c5577f4e487b7100000000000000000000000000000000000000000000000000000000600052603260045260246000fd5b906000526020600020906009020160050160006101000a81548160ff021916908315150217905550505050565b6000604051806101200160405280600554815260200189815260200188815260200187815260200186815260200160011515815260200185815260200184815260200183815250905060038860405161214b9190613202565b90815260200160405180910390208190806001815401808255809150506001900390600052602060002090600902016000909190919091506000820151816000015560208201518160010190805190602001906121a9929190612a5f565b5060408201518160020155606082015181600301556080820151816004015560a08201518160050160006101000a81548160ff02191690831515021790555060c0820151816006015560e08201518160070155610100820151816008019080519060200190612219929190612a5f565b505050600481908060018154018082558091505060019003906000526020600020906009020160009091909190915060008201518160000155602082015181600101908051906020019061226e929190612a5f565b5060408201518160020155606082015181600301556080820151816004015560a08201518160050160006101000a81548160ff02191690831515021790555060c0820151816006015560e082015181600701556101008201518160080190805190602001906122de929190612a5f565b5050506001600560008282546122f49190613529565b925050819055505050505050505050565b60606001805480602002602001604051908101604052809291908181526020016000905b828210156125ad57838290600052602060002090600502016040518060a001604052908160008201805461235c906135d7565b80601f0160208091040260200160405190810160405280929190818152602001828054612388906135d7565b80156123d55780601f106123aa576101008083540402835291602001916123d5565b820191906000526020600020905b8154815290600101906020018083116123b857829003601f168201915b505050505081526020016001820180546123ee906135d7565b80601f016020809104026020016040519081016040528092919081815260200182805461241a906135d7565b80156124675780601f1061243c57610100808354040283529160200191612467565b820191906000526020600020905b81548152906001019060200180831161244a57829003601f168201915b50505050508152602001600282018054612480906135d7565b80601f01602080910402602001604051908101604052809291908181526020018280546124ac906135d7565b80156124f95780601f106124ce576101008083540402835291602001916124f9565b820191906000526020600020905b8154815290600101906020018083116124dc57829003601f168201915b50505050508152602001600382018054612512906135d7565b80601f016020809104026020016040519081016040528092919081815260200182805461253e906135d7565b801561258b5780601f106125605761010080835404028352916020019161258b565b820191906000526020600020905b81548152906001019060200180831161256e57829003601f168201915b5050505050815260200160048201548152505081526020019060010190612329565b50505050905090565b600c81815481106125c657600080fd5b90600052602060002090600402016000915090508060000154908060010180546125ef906135d7565b80601f016020809104026020016040519081016040528092919081815260200182805461261b906135d7565b80156126685780601f1061263d57610100808354040283529160200191612668565b820191906000526020600020905b81548152906001019060200180831161264b57829003601f168201915b5050505050908060020154908060030160009054906101000a900460ff16905084565b6040518060400160405280600581526020017f48656c6c6f0000000000000000000000000000000000000000000000000000008152506000826040516126d19190613202565b908152602001604051809103902060020190805190602001906126f5929190612a5f565b506040518060400160405280600581526020017f48656c6c6f000000000000000000000000000000000000000000000000000000815250600160008360405161273e9190613202565b90815260200160405180910390206004015481548110612787577f4e487b7100000000000000000000000000000000000000000000000000000000600052603260045260246000fd5b906000526020600020906005020160020190805190602001906127ab929190612a5f565b5050565b60038280516020810182018051848252602083016020850120818352809550505050505081815481106127e157600080fd5b90600052602060002090600902016000915091505080600001549080600101805461280b906135d7565b80601f0160208091040260200160405190810160405280929190818152602001828054612837906135d7565b80156128845780601f1061285957610100808354040283529160200191612884565b820191906000526020600020905b81548152906001019060200180831161286757829003601f168201915b5050505050908060020154908060030154908060040154908060050160009054906101000a900460ff16908060060154908060070154908060080180546128ca906135d7565b80601f01602080910402602001604051908101604052809291908181526020018280546128f6906135d7565b80156129435780601f1061291857610100808354040283529160200191612943565b820191906000526020600020905b81548152906001019060200180831161292657829003601f168201915b5050505050905089565b600080600090505b83518110156129ca57826000015184828151811061299c577f4e487b7100000000000000000000000000000000000000000000000000000000600052603260045260246000fd5b60200260200101516000015114156129b757809150506129d0565b80806129c29061363a565b915050612955565b50606390505b92915050565b600080600090505b8351811015612a53578260000151848281518110612a25577f4e487b7100000000000000000000000000000000000000000000000000000000600052603260045260246000fd5b6020026020010151600001511415612a405780915050612a59565b8080612a4b9061363a565b9150506129de565b50606390505b92915050565b828054612a6b906135d7565b90600052602060002090601f016020900481019282612a8d5760008555612ad4565b82601f10612aa657805160ff1916838001178555612ad4565b82800160010185558215612ad4579182015b82811115612ad3578251825591602001919060010190612ab8565b5b509050612ae19190612ae5565b5090565b5b80821115612afe576000816000905550600101612ae6565b5090565b6000612b15612b1084613415565b6133f0565b905082815260208101848484011115612b2d57600080fd5b612b38848285613595565b509392505050565b600082601f830112612b5157600080fd5b8135612b61848260208601612b02565b91505092915050565b600081359050612b7981613721565b92915050565b600060208284031215612b9157600080fd5b600082013567ffffffffffffffff811115612bab57600080fd5b612bb784828501612b40565b91505092915050565b60008060008060808587031215612bd657600080fd5b600085013567ffffffffffffffff811115612bf057600080fd5b612bfc87828801612b40565b945050602085013567ffffffffffffffff811115612c1957600080fd5b612c2587828801612b40565b935050604085013567ffffffffffffffff811115612c4257600080fd5b612c4e87828801612b40565b925050606085013567ffffffffffffffff811115612c6b57600080fd5b612c7787828801612b40565b91505092959194509250565b60008060408385031215612c9657600080fd5b600083013567ffffffffffffffff811115612cb057600080fd5b612cbc85828601612b40565b9250506020612ccd85828601612b6a565b9150509250929050565b600080600080600080600060e0888a031215612cf257600080fd5b600088013567ffffffffffffffff811115612d0c57600080fd5b612d188a828b01612b40565b9750506020612d298a828b01612b6a565b9650506040612d3a8a828b01612b6a565b9550506060612d4b8a828b01612b6a565b9450506080612d5c8a828b01612b6a565b93505060a0612d6d8a828b01612b6a565b92505060c088013567ffffffffffffffff811115612d8a57600080fd5b612d968a828b01612b40565b91505092959891949750929550565b600060208284031215612db757600080fd5b6000612dc584828501612b6a565b91505092915050565b6000612dda838361302a565b905092915050565b6000612dee83836130b5565b905092915050565b6000612e028383613118565b905092915050565b6000612e1582613476565b612e1f81856134c9565b935083602082028501612e3185613446565b8060005b85811015612e6d5784840389528151612e4e8582612dce565b9450612e59836134a2565b925060208a01995050600181019050612e35565b50829750879550505050505092915050565b6000612e8a82613481565b612e9481856134da565b935083602082028501612ea685613456565b8060005b85811015612ee25784840389528151612ec38582612de2565b9450612ece836134af565b925060208a01995050600181019050612eaa565b50829750879550505050505092915050565b6000612eff8261348c565b612f0981856134eb565b935083602082028501612f1b85613466565b8060005b85811015612f575784840389528151612f388582612df6565b9450612f43836134bc565b925060208a01995050600181019050612f1f565b50829750879550505050505092915050565b612f728161357f565b82525050565b612f818161357f565b82525050565b6000612f9282613497565b612f9c81856134fc565b9350612fac8185602086016135a4565b612fb581613710565b840191505092915050565b6000612fcb82613497565b612fd5818561350d565b9350612fe58185602086016135a4565b612fee81613710565b840191505092915050565b600061300482613497565b61300e818561351e565b935061301e8185602086016135a4565b80840191505092915050565b600060a08301600083015184820360008601526130478282612f87565b915050602083015184820360208601526130618282612f87565b9150506040830151848203604086015261307b8282612f87565b915050606083015184820360608601526130958282612f87565b91505060808301516130aa60808601826131e4565b508091505092915050565b60006080830160008301516130cd60008601826131e4565b50602083015184820360208601526130e58282612f87565b91505060408301516130fa60408601826131e4565b50606083015161310d6060860182612f69565b508091505092915050565b60006101208301600083015161313160008601826131e4565b50602083015184820360208601526131498282612f87565b915050604083015161315e60408601826131e4565b50606083015161317160608601826131e4565b50608083015161318460808601826131e4565b5060a083015161319760a0860182612f69565b5060c08301516131aa60c08601826131e4565b5060e08301516131bd60e08601826131e4565b506101008301518482036101008601526131d78282612f87565b9150508091505092915050565b6131ed8161358b565b82525050565b6131fc8161358b565b82525050565b600061320e8284612ff9565b915081905092915050565b600060208201905081810360008301526132338184612e0a565b905092915050565b600060208201905081810360008301526132558184612e7f565b905092915050565b600060208201905081810360008301526132778184612ef4565b905092915050565b600060a08201905081810360008301526132998188612fc0565b905081810360208301526132ad8187612fc0565b905081810360408301526132c18186612fc0565b905081810360608301526132d58185612fc0565b90506132e460808301846131f3565b9695505050505050565b600060208201905061330360008301846131f3565b92915050565b600060808201905061331e60008301876131f3565b81810360208301526133308186612fc0565b905061333f60408301856131f3565b61334c6060830184612f78565b95945050505050565b60006101208201905061336b600083018c6131f3565b818103602083015261337d818b612fc0565b905061338c604083018a6131f3565b61339960608301896131f3565b6133a660808301886131f3565b6133b360a0830187612f78565b6133c060c08301866131f3565b6133cd60e08301856131f3565b8181036101008301526133e08184612fc0565b90509a9950505050505050505050565b60006133fa61340b565b90506134068282613609565b919050565b6000604051905090565b600067ffffffffffffffff8211156134305761342f6136e1565b5b61343982613710565b9050602081019050919050565b6000819050602082019050919050565b6000819050602082019050919050565b6000819050602082019050919050565b600081519050919050565b600081519050919050565b600081519050919050565b600081519050919050565b6000602082019050919050565b6000602082019050919050565b6000602082019050919050565b600082825260208201905092915050565b600082825260208201905092915050565b600082825260208201905092915050565b600082825260208201905092915050565b600082825260208201905092915050565b600081905092915050565b60006135348261358b565b915061353f8361358b565b9250827fffffffffffffffffffffffffffffffffffffffffffffffffffffffffffffffff0382111561357457613573613683565b5b828201905092915050565b60008115159050919050565b6000819050919050565b82818337600083830152505050565b60005b838110156135c25780820151818401526020810190506135a7565b838111156135d1576000848401525b50505050565b600060028204905060018216806135ef57607f821691505b60208210811415613603576136026136b2565b5b50919050565b61361282613710565b810181811067ffffffffffffffff82111715613631576136306136e1565b5b80604052505050565b60006136458261358b565b91507fffffffffffffffffffffffffffffffffffffffffffffffffffffffffffffffff82141561367857613677613683565b5b600182019050919050565b7f4e487b7100000000000000000000000000000000000000000000000000000000600052601160045260246000fd5b7f4e487b7100000000000000000000000000000000000000000000000000000000600052602260045260246000fd5b7f4e487b7100000000000000000000000000000000000000000000000000000000600052604160045260246000fd5b6000601f19601f8301169050919050565b61372a8161358b565b811461373557600080fd5b5056fea2646970667358221220754de4df7b8941956506359e8d66290922818200be62308d3b5eb59c85d64e3c64736f6c63430008010033","opcodes":"PUSH1 0x80 PUSH1 0x40 MSTORE CALLVALUE DUP1 ISZERO PUSH2 0x10 JUMPI PUSH1 0x0 DUP1 REVERT JUMPDEST POP PUSH2 0x376E DUP1 PUSH2 0x20 PUSH1 0x0 CODECOPY PUSH1 0x0 RETURN INVALID PUSH1 0x80 PUSH1 0x40 MSTORE CALLVALUE DUP1 ISZERO PUSH2 0x10 JUMPI PUSH1 0x0 DUP1 REVERT JUMPDEST POP PUSH1 0x4 CALLDATASIZE LT PUSH2 0x14D JUMPI PUSH1 0x0 CALLDATALOAD PUSH1 0xE0 SHR DUP1 PUSH4 0x65481CDA GT PUSH2 0xC3 JUMPI DUP1 PUSH4 0xBF818C75 GT PUSH2 0x7C JUMPI DUP1 PUSH4 0xBF818C75 EQ PUSH2 0x435 JUMPI DUP1 PUSH4 0xC27F3EA3 EQ PUSH2 0x451 JUMPI DUP1 PUSH4 0xE10587C1 EQ PUSH2 0x46D JUMPI DUP1 PUSH4 0xF1D1A19B EQ PUSH2 0x48B JUMPI DUP1 PUSH4 0xF562782C EQ PUSH2 0x4BE JUMPI DUP1 PUSH4 0xF69CFC80 EQ PUSH2 0x4DA JUMPI PUSH2 0x14D JUMP JUMPDEST DUP1 PUSH4 0x65481CDA EQ PUSH2 0x33B JUMPI DUP1 PUSH4 0x65A9B4A0 EQ PUSH2 0x36B JUMPI DUP1 PUSH4 0x73A433F8 EQ PUSH2 0x39B JUMPI DUP1 PUSH4 0x81A063F3 EQ PUSH2 0x3CB JUMPI DUP1 PUSH4 0x957DAE9D EQ PUSH2 0x3E9 JUMPI DUP1 PUSH4 0xBBB59036 EQ PUSH2 0x405 JUMPI PUSH2 0x14D JUMP JUMPDEST DUP1 PUSH4 0x2AFD97A4 GT PUSH2 0x115 JUMPI DUP1 PUSH4 0x2AFD97A4 EQ PUSH2 0x228 JUMPI DUP1 PUSH4 0x33DE5D52 EQ PUSH2 0x258 JUMPI DUP1 PUSH4 0x4F4F10EF EQ PUSH2 0x274 JUMPI DUP1 PUSH4 0x544B4AC4 EQ PUSH2 0x2A7 JUMPI DUP1 PUSH4 0x5CDA3172 EQ PUSH2 0x2D7 JUMPI DUP1 PUSH4 0x628F4068 EQ PUSH2 0x30B JUMPI PUSH2 0x14D JUMP JUMPDEST DUP1 PUSH4 0x11D9BB42 EQ PUSH2 0x152 JUMPI DUP1 PUSH4 0x159AF658 EQ PUSH2 0x182 JUMPI DUP1 PUSH4 0x1E6C598E EQ PUSH2 0x1B6 JUMPI DUP1 PUSH4 0x1FF1DF34 EQ PUSH2 0x1EE JUMPI DUP1 PUSH4 0x283BCDBB EQ PUSH2 0x20C JUMPI JUMPDEST PUSH1 0x0 DUP1 REVERT JUMPDEST PUSH2 0x16C PUSH1 0x4 DUP1 CALLDATASIZE SUB DUP2 ADD SWAP1 PUSH2 0x167 SWAP2 SWAP1 PUSH2 0x2C83 JUMP JUMPDEST PUSH2 0x512 JUMP JUMPDEST PUSH1 0x40 MLOAD PUSH2 0x179 SWAP2 SWAP1 PUSH2 0x32EE JUMP JUMPDEST PUSH1 0x40 MLOAD DUP1 SWAP2 SUB SWAP1 RETURN JUMPDEST PUSH2 0x19C PUSH1 0x4 DUP1 CALLDATASIZE SUB DUP2 ADD SWAP1 PUSH2 0x197 SWAP2 SWAP1 PUSH2 0x2DA5 JUMP JUMPDEST PUSH2 0x559 JUMP JUMPDEST PUSH1 0x40 MLOAD PUSH2 0x1AD SWAP6 SWAP5 SWAP4 SWAP3 SWAP2 SWAP1 PUSH2 0x327F JUMP JUMPDEST PUSH1 0x40 MLOAD DUP1 SWAP2 SUB SWAP1 RETURN JUMPDEST PUSH2 0x1D0 PUSH1 0x4 DUP1 CALLDATASIZE SUB DUP2 ADD SWAP1 PUSH2 0x1CB SWAP2 SWAP1 PUSH2 0x2DA5 JUMP JUMPDEST PUSH2 0x7BF JUMP JUMPDEST PUSH1 0x40 MLOAD PUSH2 0x1E5 SWAP10 SWAP9 SWAP8 SWAP7 SWAP6 SWAP5 SWAP4 SWAP3 SWAP2 SWAP1 PUSH2 0x3355 JUMP JUMPDEST PUSH1 0x40 MLOAD DUP1 SWAP2 SUB SWAP1 RETURN JUMPDEST PUSH2 0x1F6 PUSH2 0x93A JUMP JUMPDEST PUSH1 0x40 MLOAD PUSH2 0x203 SWAP2 SWAP1 PUSH2 0x323B JUMP JUMPDEST PUSH1 0x40 MLOAD DUP1 SWAP2 SUB SWAP1 RETURN JUMPDEST PUSH2 0x226 PUSH1 0x4 DUP1 CALLDATASIZE SUB DUP2 ADD SWAP1 PUSH2 0x221 SWAP2 SWAP1 PUSH2 0x2BC0 JUMP JUMPDEST PUSH2 0xA5A JUMP JUMPDEST STOP JUMPDEST PUSH2 0x242 PUSH1 0x4 DUP1 CALLDATASIZE SUB DUP2 ADD SWAP1 PUSH2 0x23D SWAP2 SWAP1 PUSH2 0x2B7F JUMP JUMPDEST PUSH2 0xC17 JUMP JUMPDEST PUSH1 0x40 MLOAD PUSH2 0x24F SWAP2 SWAP1 PUSH2 0x32EE JUMP JUMPDEST PUSH1 0x40 MLOAD DUP1 SWAP2 SUB SWAP1 RETURN JUMPDEST PUSH2 0x272 PUSH1 0x4 DUP1 CALLDATASIZE SUB DUP2 ADD SWAP1 PUSH2 0x26D SWAP2 SWAP1 PUSH2 0x2C83 JUMP JUMPDEST PUSH2 0xC45 JUMP JUMPDEST STOP JUMPDEST PUSH2 0x28E PUSH1 0x4 DUP1 CALLDATASIZE SUB DUP2 ADD SWAP1 PUSH2 0x289 SWAP2 SWAP1 PUSH2 0x2C83 JUMP JUMPDEST PUSH2 0xDDD JUMP JUMPDEST PUSH1 0x40 MLOAD PUSH2 0x29E SWAP5 SWAP4 SWAP3 SWAP2 SWAP1 PUSH2 0x3309 JUMP JUMPDEST PUSH1 0x40 MLOAD DUP1 SWAP2 SUB SWAP1 RETURN JUMPDEST PUSH2 0x2C1 PUSH1 0x4 DUP1 CALLDATASIZE SUB DUP2 ADD SWAP1 PUSH2 0x2BC SWAP2 SWAP1 PUSH2 0x2B7F JUMP JUMPDEST PUSH2 0xED5 JUMP JUMPDEST PUSH1 0x40 MLOAD PUSH2 0x2CE SWAP2 SWAP1 PUSH2 0x323B JUMP JUMPDEST PUSH1 0x40 MLOAD DUP1 SWAP2 SUB SWAP1 RETURN JUMPDEST PUSH2 0x2F1 PUSH1 0x4 DUP1 CALLDATASIZE SUB DUP2 ADD SWAP1 PUSH2 0x2EC SWAP2 SWAP1 PUSH2 0x2B7F JUMP JUMPDEST PUSH2 0x1013 JUMP JUMPDEST PUSH1 0x40 MLOAD PUSH2 0x302 SWAP6 SWAP5 SWAP4 SWAP3 SWAP2 SWAP1 PUSH2 0x327F JUMP JUMPDEST PUSH1 0x40 MLOAD DUP1 SWAP2 SUB SWAP1 RETURN JUMPDEST PUSH2 0x325 PUSH1 0x4 DUP1 CALLDATASIZE SUB DUP2 ADD SWAP1 PUSH2 0x320 SWAP2 SWAP1 PUSH2 0x2C83 JUMP JUMPDEST PUSH2 0x127F JUMP JUMPDEST PUSH1 0x40 MLOAD PUSH2 0x332 SWAP2 SWAP1 PUSH2 0x32EE JUMP JUMPDEST PUSH1 0x40 MLOAD DUP1 SWAP2 SUB SWAP1 RETURN JUMPDEST PUSH2 0x355 PUSH1 0x4 DUP1 CALLDATASIZE SUB DUP2 ADD SWAP1 PUSH2 0x350 SWAP2 SWAP1 PUSH2 0x2B7F JUMP JUMPDEST PUSH2 0x12C6 JUMP JUMPDEST PUSH1 0x40 MLOAD PUSH2 0x362 SWAP2 SWAP1 PUSH2 0x325D JUMP JUMPDEST PUSH1 0x40 MLOAD DUP1 SWAP2 SUB SWAP1 RETURN JUMPDEST PUSH2 0x385 PUSH1 0x4 DUP1 CALLDATASIZE SUB DUP2 ADD SWAP1 PUSH2 0x380 SWAP2 SWAP1 PUSH2 0x2B7F JUMP JUMPDEST PUSH2 0x14BF JUMP JUMPDEST PUSH1 0x40 MLOAD PUSH2 0x392 SWAP2 SWAP1 PUSH2 0x32EE JUMP JUMPDEST PUSH1 0x40 MLOAD DUP1 SWAP2 SUB SWAP1 RETURN JUMPDEST PUSH2 0x3B5 PUSH1 0x4 DUP1 CALLDATASIZE SUB DUP2 ADD SWAP1 PUSH2 0x3B0 SWAP2 SWAP1 PUSH2 0x2C83 JUMP JUMPDEST PUSH2 0x14E7 JUMP JUMPDEST PUSH1 0x40 MLOAD PUSH2 0x3C2 SWAP2 SWAP1 PUSH2 0x32EE JUMP JUMPDEST PUSH1 0x40 MLOAD DUP1 SWAP2 SUB SWAP1 RETURN JUMPDEST PUSH2 0x3D3 PUSH2 0x152E JUMP JUMPDEST PUSH1 0x40 MLOAD PUSH2 0x3E0 SWAP2 SWAP1 PUSH2 0x325D JUMP JUMPDEST PUSH1 0x40 MLOAD DUP1 SWAP2 SUB SWAP1 RETURN JUMPDEST PUSH2 0x403 PUSH1 0x4 DUP1 CALLDATASIZE SUB DUP2 ADD SWAP1 PUSH2 0x3FE SWAP2 SWAP1 PUSH2 0x2DA5 JUMP JUMPDEST PUSH2 0x1709 JUMP JUMPDEST STOP JUMPDEST PUSH2 0x41F PUSH1 0x4 DUP1 CALLDATASIZE SUB DUP2 ADD SWAP1 PUSH2 0x41A SWAP2 SWAP1 PUSH2 0x2C83 JUMP JUMPDEST PUSH2 0x1B1F JUMP JUMPDEST PUSH1 0x40 MLOAD PUSH2 0x42C SWAP2 SWAP1 PUSH2 0x32EE JUMP JUMPDEST PUSH1 0x40 MLOAD DUP1 SWAP2 SUB SWAP1 RETURN JUMPDEST PUSH2 0x44F PUSH1 0x4 DUP1 CALLDATASIZE SUB DUP2 ADD SWAP1 PUSH2 0x44A SWAP2 SWAP1 PUSH2 0x2DA5 JUMP JUMPDEST PUSH2 0x1B66 JUMP JUMPDEST STOP JUMPDEST PUSH2 0x46B PUSH1 0x4 DUP1 CALLDATASIZE SUB DUP2 ADD SWAP1 PUSH2 0x466 SWAP2 SWAP1 PUSH2 0x2CD7 JUMP JUMPDEST PUSH2 0x20F2 JUMP JUMPDEST STOP JUMPDEST PUSH2 0x475 PUSH2 0x2305 JUMP JUMPDEST PUSH1 0x40 MLOAD PUSH2 0x482 SWAP2 SWAP1 PUSH2 0x3219 JUMP JUMPDEST PUSH1 0x40 MLOAD DUP1 SWAP2 SUB SWAP1 RETURN JUMPDEST PUSH2 0x4A5 PUSH1 0x4 DUP1 CALLDATASIZE SUB DUP2 ADD SWAP1 PUSH2 0x4A0 SWAP2 SWAP1 PUSH2 0x2DA5 JUMP JUMPDEST PUSH2 0x25B6 JUMP JUMPDEST PUSH1 0x40 MLOAD PUSH2 0x4B5 SWAP5 SWAP4 SWAP3 SWAP2 SWAP1 PUSH2 0x3309 JUMP JUMPDEST PUSH1 0x40 MLOAD DUP1 SWAP2 SUB SWAP1 RETURN JUMPDEST PUSH2 0x4D8 PUSH1 0x4 DUP1 CALLDATASIZE SUB DUP2 ADD SWAP1 PUSH2 0x4D3 SWAP2 SWAP1 PUSH2 0x2B7F JUMP JUMPDEST PUSH2 0x268B JUMP JUMPDEST STOP JUMPDEST PUSH2 0x4F4 PUSH1 0x4 DUP1 CALLDATASIZE SUB DUP2 ADD SWAP1 PUSH2 0x4EF SWAP2 SWAP1 PUSH2 0x2C83 JUMP JUMPDEST PUSH2 0x27AF JUMP JUMPDEST PUSH1 0x40 MLOAD PUSH2 0x509 SWAP10 SWAP9 SWAP8 SWAP7 SWAP6 SWAP5 SWAP4 SWAP3 SWAP2 SWAP1 PUSH2 0x3355 JUMP JUMPDEST PUSH1 0x40 MLOAD DUP1 SWAP2 SUB SWAP1 RETURN JUMPDEST PUSH1 0x6 DUP3 DUP1 MLOAD PUSH1 0x20 DUP2 ADD DUP3 ADD DUP1 MLOAD DUP5 DUP3 MSTORE PUSH1 0x20 DUP4 ADD PUSH1 0x20 DUP6 ADD KECCAK256 DUP2 DUP4 MSTORE DUP1 SWAP6 POP POP POP POP POP POP DUP2 DUP2 SLOAD DUP2 LT PUSH2 0x544 JUMPI PUSH1 0x0 DUP1 REVERT JUMPDEST SWAP1 PUSH1 0x0 MSTORE PUSH1 0x20 PUSH1 0x0 KECCAK256 ADD PUSH1 0x0 SWAP2 POP SWAP2 POP POP SLOAD DUP2 JUMP JUMPDEST PUSH1 0x1 DUP2 DUP2 SLOAD DUP2 LT PUSH2 0x569 JUMPI PUSH1 0x0 DUP1 REVERT JUMPDEST SWAP1 PUSH1 0x0 MSTORE PUSH1 0x20 PUSH1 0x0 KECCAK256 SWAP1 PUSH1 0x5 MUL ADD PUSH1 0x0 SWAP2 POP SWAP1 POP DUP1 PUSH1 0x0 ADD DUP1 SLOAD PUSH2 0x58C SWAP1 PUSH2 0x35D7 JUMP JUMPDEST DUP1 PUSH1 0x1F ADD PUSH1 0x20 DUP1 SWAP2 DIV MUL PUSH1 0x20 ADD PUSH1 0x40 MLOAD SWAP1 DUP2 ADD PUSH1 0x40 MSTORE DUP1 SWAP3 SWAP2 SWAP1 DUP2 DUP2 MSTORE PUSH1 0x20 ADD DUP3 DUP1 SLOAD PUSH2 0x5B8 SWAP1 PUSH2 0x35D7 JUMP JUMPDEST DUP1 ISZERO PUSH2 0x605 JUMPI DUP1 PUSH1 0x1F LT PUSH2 0x5DA JUMPI PUSH2 0x100 DUP1 DUP4 SLOAD DIV MUL DUP4 MSTORE SWAP2 PUSH1 0x20 ADD SWAP2 PUSH2 0x605 JUMP JUMPDEST DUP3 ADD SWAP2 SWAP1 PUSH1 0x0 MSTORE PUSH1 0x20 PUSH1 0x0 KECCAK256 SWAP1 JUMPDEST DUP2 SLOAD DUP2 MSTORE SWAP1 PUSH1 0x1 ADD SWAP1 PUSH1 0x20 ADD DUP1 DUP4 GT PUSH2 0x5E8 JUMPI DUP3 SWAP1 SUB PUSH1 0x1F AND DUP3 ADD SWAP2 JUMPDEST POP POP POP POP POP SWAP1 DUP1 PUSH1 0x1 ADD DUP1 SLOAD PUSH2 0x61A SWAP1 PUSH2 0x35D7 JUMP JUMPDEST DUP1 PUSH1 0x1F ADD PUSH1 0x20 DUP1 SWAP2 DIV MUL PUSH1 0x20 ADD PUSH1 0x40 MLOAD SWAP1 DUP2 ADD PUSH1 0x40 MSTORE DUP1 SWAP3 SWAP2 SWAP1 DUP2 DUP2 MSTORE PUSH1 0x20 ADD DUP3 DUP1 SLOAD PUSH2 0x646 SWAP1 PUSH2 0x35D7 JUMP JUMPDEST DUP1 ISZERO PUSH2 0x693 JUMPI DUP1 PUSH1 0x1F LT PUSH2 0x668 JUMPI PUSH2 0x100 DUP1 DUP4 SLOAD DIV MUL DUP4 MSTORE SWAP2 PUSH1 0x20 ADD SWAP2 PUSH2 0x693 JUMP JUMPDEST DUP3 ADD SWAP2 SWAP1 PUSH1 0x0 MSTORE PUSH1 0x20 PUSH1 0x0 KECCAK256 SWAP1 JUMPDEST DUP2 SLOAD DUP2 MSTORE SWAP1 PUSH1 0x1 ADD SWAP1 PUSH1 0x20 ADD DUP1 DUP4 GT PUSH2 0x676 JUMPI DUP3 SWAP1 SUB PUSH1 0x1F AND DUP3 ADD SWAP2 JUMPDEST POP POP POP POP POP SWAP1 DUP1 PUSH1 0x2 ADD DUP1 SLOAD PUSH2 0x6A8 SWAP1 PUSH2 0x35D7 JUMP JUMPDEST DUP1 PUSH1 0x1F ADD PUSH1 0x20 DUP1 SWAP2 DIV MUL PUSH1 0x20 ADD PUSH1 0x40 MLOAD SWAP1 DUP2 ADD PUSH1 0x40 MSTORE DUP1 SWAP3 SWAP2 SWAP1 DUP2 DUP2 MSTORE PUSH1 0x20 ADD DUP3 DUP1 SLOAD PUSH2 0x6D4 SWAP1 PUSH2 0x35D7 JUMP JUMPDEST DUP1 ISZERO PUSH2 0x721 JUMPI DUP1 PUSH1 0x1F LT PUSH2 0x6F6 JUMPI PUSH2 0x100 DUP1 DUP4 SLOAD DIV MUL DUP4 MSTORE SWAP2 PUSH1 0x20 ADD SWAP2 PUSH2 0x721 JUMP JUMPDEST DUP3 ADD SWAP2 SWAP1 PUSH1 0x0 MSTORE PUSH1 0x20 PUSH1 0x0 KECCAK256 SWAP1 JUMPDEST DUP2 SLOAD DUP2 MSTORE SWAP1 PUSH1 0x1 ADD SWAP1 PUSH1 0x20 ADD DUP1 DUP4 GT PUSH2 0x704 JUMPI DUP3 SWAP1 SUB PUSH1 0x1F AND DUP3 ADD SWAP2 JUMPDEST POP POP POP POP POP SWAP1 DUP1 PUSH1 0x3 ADD DUP1 SLOAD PUSH2 0x736 SWAP1 PUSH2 0x35D7 JUMP JUMPDEST DUP1 PUSH1 0x1F ADD PUSH1 0x20 DUP1 SWAP2 DIV MUL PUSH1 0x20 ADD PUSH1 0x40 MLOAD SWAP1 DUP2 ADD PUSH1 0x40 MSTORE DUP1 SWAP3 SWAP2 SWAP1 DUP2 DUP2 MSTORE PUSH1 0x20 ADD DUP3 DUP1 SLOAD PUSH2 0x762 SWAP1 PUSH2 0x35D7 JUMP JUMPDEST DUP1 ISZERO PUSH2 0x7AF JUMPI DUP1 PUSH1 0x1F LT PUSH2 0x784 JUMPI PUSH2 0x100 DUP1 DUP4 SLOAD DIV MUL DUP4 MSTORE SWAP2 PUSH1 0x20 ADD SWAP2 PUSH2 0x7AF JUMP JUMPDEST DUP3 ADD SWAP2 SWAP1 PUSH1 0x0 MSTORE PUSH1 0x20 PUSH1 0x0 KECCAK256 SWAP1 JUMPDEST DUP2 SLOAD DUP2 MSTORE SWAP1 PUSH1 0x1 ADD SWAP1 PUSH1 0x20 ADD DUP1 DUP4 GT PUSH2 0x792 JUMPI DUP3 SWAP1 SUB PUSH1 0x1F AND DUP3 ADD SWAP2 JUMPDEST POP POP POP POP POP SWAP1 DUP1 PUSH1 0x4 ADD SLOAD SWAP1 POP DUP6 JUMP JUMPDEST PUSH1 0x4 DUP2 DUP2 SLOAD DUP2 LT PUSH2 0x7CF JUMPI PUSH1 0x0 DUP1 REVERT JUMPDEST SWAP1 PUSH1 0x0 MSTORE PUSH1 0x20 PUSH1 0x0 KECCAK256 SWAP1 PUSH1 0x9 MUL ADD PUSH1 0x0 SWAP2 POP SWAP1 POP DUP1 PUSH1 0x0 ADD SLOAD SWAP1 DUP1 PUSH1 0x1 ADD DUP1 SLOAD PUSH2 0x7F8 SWAP1 PUSH2 0x35D7 JUMP JUMPDEST DUP1 PUSH1 0x1F ADD PUSH1 0x20 DUP1 SWAP2 DIV MUL PUSH1 0x20 ADD PUSH1 0x40 MLOAD SWAP1 DUP2 ADD PUSH1 0x40 MSTORE DUP1 SWAP3 SWAP2 SWAP1 DUP2 DUP2 MSTORE PUSH1 0x20 ADD DUP3 DUP1 SLOAD PUSH2 0x824 SWAP1 PUSH2 0x35D7 JUMP JUMPDEST DUP1 ISZERO PUSH2 0x871 JUMPI DUP1 PUSH1 0x1F LT PUSH2 0x846 JUMPI PUSH2 0x100 DUP1 DUP4 SLOAD DIV MUL DUP4 MSTORE SWAP2 PUSH1 0x20 ADD SWAP2 PUSH2 0x871 JUMP JUMPDEST DUP3 ADD SWAP2 SWAP1 PUSH1 0x0 MSTORE PUSH1 0x20 PUSH1 0x0 KECCAK256 SWAP1 JUMPDEST DUP2 SLOAD DUP2 MSTORE SWAP1 PUSH1 0x1 ADD SWAP1 PUSH1 0x20 ADD DUP1 DUP4 GT PUSH2 0x854 JUMPI DUP3 SWAP1 SUB PUSH1 0x1F AND DUP3 ADD SWAP2 JUMPDEST POP POP POP POP POP SWAP1 DUP1 PUSH1 0x2 ADD SLOAD SWAP1 DUP1 PUSH1 0x3 ADD SLOAD SWAP1 DUP1 PUSH1 0x4 ADD SLOAD SWAP1 DUP1 PUSH1 0x5 ADD PUSH1 0x0 SWAP1 SLOAD SWAP1 PUSH2 0x100 EXP SWAP1 DIV PUSH1 0xFF AND SWAP1 DUP1 PUSH1 0x6 ADD SLOAD SWAP1 DUP1 PUSH1 0x7 ADD SLOAD SWAP1 DUP1 PUSH1 0x8 ADD DUP1 SLOAD PUSH2 0x8B7 SWAP1 PUSH2 0x35D7 JUMP JUMPDEST DUP1 PUSH1 0x1F ADD PUSH1 0x20 DUP1 SWAP2 DIV MUL PUSH1 0x20 ADD PUSH1 0x40 MLOAD SWAP1 DUP2 ADD PUSH1 0x40 MSTORE DUP1 SWAP3 SWAP2 SWAP1 DUP2 DUP2 MSTORE PUSH1 0x20 ADD DUP3 DUP1 SLOAD PUSH2 0x8E3 SWAP1 PUSH2 0x35D7 JUMP JUMPDEST DUP1 ISZERO PUSH2 0x930 JUMPI DUP1 PUSH1 0x1F LT PUSH2 0x905 JUMPI PUSH2 0x100 DUP1 DUP4 SLOAD DIV MUL DUP4 MSTORE SWAP2 PUSH1 0x20 ADD SWAP2 PUSH2 0x930 JUMP JUMPDEST DUP3 ADD SWAP2 SWAP1 PUSH1 0x0 MSTORE PUSH1 0x20 PUSH1 0x0 KECCAK256 SWAP1 JUMPDEST DUP2 SLOAD DUP2 MSTORE SWAP1 PUSH1 0x1 ADD SWAP1 PUSH1 0x20 ADD DUP1 DUP4 GT PUSH2 0x913 JUMPI DUP3 SWAP1 SUB PUSH1 0x1F AND DUP3 ADD SWAP2 JUMPDEST POP POP POP POP POP SWAP1 POP DUP10 JUMP JUMPDEST PUSH1 0x60 PUSH1 0xC DUP1 SLOAD DUP1 PUSH1 0x20 MUL PUSH1 0x20 ADD PUSH1 0x40 MLOAD SWAP1 DUP2 ADD PUSH1 0x40 MSTORE DUP1 SWAP3 SWAP2 SWAP1 DUP2 DUP2 MSTORE PUSH1 0x20 ADD PUSH1 0x0 SWAP1 JUMPDEST DUP3 DUP3 LT ISZERO PUSH2 0xA51 JUMPI DUP4 DUP3 SWAP1 PUSH1 0x0 MSTORE PUSH1 0x20 PUSH1 0x0 KECCAK256 SWAP1 PUSH1 0x4 MUL ADD PUSH1 0x40 MLOAD DUP1 PUSH1 0x80 ADD PUSH1 0x40 MSTORE SWAP1 DUP2 PUSH1 0x0 DUP3 ADD SLOAD DUP2 MSTORE PUSH1 0x20 ADD PUSH1 0x1 DUP3 ADD DUP1 SLOAD PUSH2 0x99B SWAP1 PUSH2 0x35D7 JUMP JUMPDEST DUP1 PUSH1 0x1F ADD PUSH1 0x20 DUP1 SWAP2 DIV MUL PUSH1 0x20 ADD PUSH1 0x40 MLOAD SWAP1 DUP2 ADD PUSH1 0x40 MSTORE DUP1 SWAP3 SWAP2 SWAP1 DUP2 DUP2 MSTORE PUSH1 0x20 ADD DUP3 DUP1 SLOAD PUSH2 0x9C7 SWAP1 PUSH2 0x35D7 JUMP JUMPDEST DUP1 ISZERO PUSH2 0xA14 JUMPI DUP1 PUSH1 0x1F LT PUSH2 0x9E9 JUMPI PUSH2 0x100 DUP1 DUP4 SLOAD DIV MUL DUP4 MSTORE SWAP2 PUSH1 0x20 ADD SWAP2 PUSH2 0xA14 JUMP JUMPDEST DUP3 ADD SWAP2 SWAP1 PUSH1 0x0 MSTORE PUSH1 0x20 PUSH1 0x0 KECCAK256 SWAP1 JUMPDEST DUP2 SLOAD DUP2 MSTORE SWAP1 PUSH1 0x1 ADD SWAP1 PUSH1 0x20 ADD DUP1 DUP4 GT PUSH2 0x9F7 JUMPI DUP3 SWAP1 SUB PUSH1 0x1F AND DUP3 ADD SWAP2 JUMPDEST POP POP POP POP POP DUP2 MSTORE PUSH1 0x20 ADD PUSH1 0x2 DUP3 ADD SLOAD DUP2 MSTORE PUSH1 0x20 ADD PUSH1 0x3 DUP3 ADD PUSH1 0x0 SWAP1 SLOAD SWAP1 PUSH2 0x100 EXP SWAP1 DIV PUSH1 0xFF AND ISZERO ISZERO ISZERO ISZERO DUP2 MSTORE POP POP DUP2 MSTORE PUSH1 0x20 ADD SWAP1 PUSH1 0x1 ADD SWAP1 PUSH2 0x95E JUMP JUMPDEST POP POP POP POP SWAP1 POP SWAP1 JUMP JUMPDEST PUSH1 0x0 PUSH1 0x40 MLOAD DUP1 PUSH1 0xA0 ADD PUSH1 0x40 MSTORE DUP1 DUP7 DUP2 MSTORE PUSH1 0x20 ADD DUP6 DUP2 MSTORE PUSH1 0x20 ADD DUP5 DUP2 MSTORE PUSH1 0x20 ADD DUP4 DUP2 MSTORE PUSH1 0x20 ADD PUSH1 0x2 SLOAD DUP2 MSTORE POP SWAP1 POP DUP1 PUSH1 0x0 DUP6 PUSH1 0x40 MLOAD PUSH2 0xA98 SWAP2 SWAP1 PUSH2 0x3202 JUMP JUMPDEST SWAP1 DUP2 MSTORE PUSH1 0x20 ADD PUSH1 0x40 MLOAD DUP1 SWAP2 SUB SWAP1 KECCAK256 PUSH1 0x0 DUP3 ADD MLOAD DUP2 PUSH1 0x0 ADD SWAP1 DUP1 MLOAD SWAP1 PUSH1 0x20 ADD SWAP1 PUSH2 0xAC2 SWAP3 SWAP2 SWAP1 PUSH2 0x2A5F JUMP JUMPDEST POP PUSH1 0x20 DUP3 ADD MLOAD DUP2 PUSH1 0x1 ADD SWAP1 DUP1 MLOAD SWAP1 PUSH1 0x20 ADD SWAP1 PUSH2 0xADF SWAP3 SWAP2 SWAP1 PUSH2 0x2A5F JUMP JUMPDEST POP PUSH1 0x40 DUP3 ADD MLOAD DUP2 PUSH1 0x2 ADD SWAP1 DUP1 MLOAD SWAP1 PUSH1 0x20 ADD SWAP1 PUSH2 0xAFC SWAP3 SWAP2 SWAP1 PUSH2 0x2A5F JUMP JUMPDEST POP PUSH1 0x60 DUP3 ADD MLOAD DUP2 PUSH1 0x3 ADD SWAP1 DUP1 MLOAD SWAP1 PUSH1 0x20 ADD SWAP1 PUSH2 0xB19 SWAP3 SWAP2 SWAP1 PUSH2 0x2A5F JUMP JUMPDEST POP PUSH1 0x80 DUP3 ADD MLOAD DUP2 PUSH1 0x4 ADD SSTORE SWAP1 POP POP PUSH1 0x1 DUP2 SWAP1 DUP1 PUSH1 0x1 DUP2 SLOAD ADD DUP1 DUP3 SSTORE DUP1 SWAP2 POP POP PUSH1 0x1 SWAP1 SUB SWAP1 PUSH1 0x0 MSTORE PUSH1 0x20 PUSH1 0x0 KECCAK256 SWAP1 PUSH1 0x5 MUL ADD PUSH1 0x0 SWAP1 SWAP2 SWAP1 SWAP2 SWAP1 SWAP2 POP PUSH1 0x0 DUP3 ADD MLOAD DUP2 PUSH1 0x0 ADD SWAP1 DUP1 MLOAD SWAP1 PUSH1 0x20 ADD SWAP1 PUSH2 0xB6F SWAP3 SWAP2 SWAP1 PUSH2 0x2A5F JUMP JUMPDEST POP PUSH1 0x20 DUP3 ADD MLOAD DUP2 PUSH1 0x1 ADD SWAP1 DUP1 MLOAD SWAP1 PUSH1 0x20 ADD SWAP1 PUSH2 0xB8C SWAP3 SWAP2 SWAP1 PUSH2 0x2A5F JUMP JUMPDEST POP PUSH1 0x40 DUP3 ADD MLOAD DUP2 PUSH1 0x2 ADD SWAP1 DUP1 MLOAD SWAP1 PUSH1 0x20 ADD SWAP1 PUSH2 0xBA9 SWAP3 SWAP2 SWAP1 PUSH2 0x2A5F JUMP JUMPDEST POP PUSH1 0x60 DUP3 ADD MLOAD DUP2 PUSH1 0x3 ADD SWAP1 DUP1 MLOAD SWAP1 PUSH1 0x20 ADD SWAP1 PUSH2 0xBC6 SWAP3 SWAP2 SWAP1 PUSH2 0x2A5F JUMP JUMPDEST POP PUSH1 0x80 DUP3 ADD MLOAD DUP2 PUSH1 0x4 ADD SSTORE POP POP PUSH1 0xA DUP1 DUP6 PUSH1 0x40 MLOAD PUSH2 0xBE4 SWAP2 SWAP1 PUSH2 0x3202 JUMP JUMPDEST SWAP1 DUP2 MSTORE PUSH1 0x20 ADD PUSH1 0x40 MLOAD DUP1 SWAP2 SUB SWAP1 KECCAK256 DUP2 SWAP1 SSTORE POP PUSH1 0x1 PUSH1 0x2 PUSH1 0x0 DUP3 DUP3 SLOAD PUSH2 0xC09 SWAP2 SWAP1 PUSH2 0x3529 JUMP JUMPDEST SWAP3 POP POP DUP2 SWAP1 SSTORE POP POP POP POP POP POP JUMP JUMPDEST PUSH1 0xA DUP2 DUP1 MLOAD PUSH1 0x20 DUP2 ADD DUP3 ADD DUP1 MLOAD DUP5 DUP3 MSTORE PUSH1 0x20 DUP4 ADD PUSH1 0x20 DUP6 ADD KECCAK256 DUP2 DUP4 MSTORE DUP1 SWAP6 POP POP POP POP POP POP PUSH1 0x0 SWAP2 POP SWAP1 POP SLOAD DUP2 JUMP JUMPDEST DUP1 PUSH1 0xA DUP4 PUSH1 0x40 MLOAD PUSH2 0xC56 SWAP2 SWAP1 PUSH2 0x3202 JUMP JUMPDEST SWAP1 DUP2 MSTORE PUSH1 0x20 ADD PUSH1 0x40 MLOAD DUP1 SWAP2 SUB SWAP1 KECCAK256 PUSH1 0x0 DUP3 DUP3 SLOAD PUSH2 0xC73 SWAP2 SWAP1 PUSH2 0x3529 JUMP JUMPDEST SWAP3 POP POP DUP2 SWAP1 SSTORE POP PUSH1 0x0 PUSH1 0x40 MLOAD DUP1 PUSH1 0x80 ADD PUSH1 0x40 MSTORE DUP1 PUSH1 0xD SLOAD DUP2 MSTORE PUSH1 0x20 ADD DUP5 DUP2 MSTORE PUSH1 0x20 ADD DUP4 DUP2 MSTORE PUSH1 0x20 ADD PUSH1 0x0 ISZERO ISZERO DUP2 MSTORE POP SWAP1 POP PUSH1 0xB DUP4 PUSH1 0x40 MLOAD PUSH2 0xCB4 SWAP2 SWAP1 PUSH2 0x3202 JUMP JUMPDEST SWAP1 DUP2 MSTORE PUSH1 0x20 ADD PUSH1 0x40 MLOAD DUP1 SWAP2 SUB SWAP1 KECCAK256 DUP2 SWAP1 DUP1 PUSH1 0x1 DUP2 SLOAD ADD DUP1 DUP3 SSTORE DUP1 SWAP2 POP POP PUSH1 0x1 SWAP1 SUB SWAP1 PUSH1 0x0 MSTORE PUSH1 0x20 PUSH1 0x0 KECCAK256 SWAP1 PUSH1 0x4 MUL ADD PUSH1 0x0 SWAP1 SWAP2 SWAP1 SWAP2 SWAP1 SWAP2 POP PUSH1 0x0 DUP3 ADD MLOAD DUP2 PUSH1 0x0 ADD SSTORE PUSH1 0x20 DUP3 ADD MLOAD DUP2 PUSH1 0x1 ADD SWAP1 DUP1 MLOAD SWAP1 PUSH1 0x20 ADD SWAP1 PUSH2 0xD12 SWAP3 SWAP2 SWAP1 PUSH2 0x2A5F JUMP JUMPDEST POP PUSH1 0x40 DUP3 ADD MLOAD DUP2 PUSH1 0x2 ADD SSTORE PUSH1 0x60 DUP3 ADD MLOAD DUP2 PUSH1 0x3 ADD PUSH1 0x0 PUSH2 0x100 EXP DUP2 SLOAD DUP2 PUSH1 0xFF MUL NOT AND SWAP1 DUP4 ISZERO ISZERO MUL OR SWAP1 SSTORE POP POP POP PUSH1 0xC DUP2 SWAP1 DUP1 PUSH1 0x1 DUP2 SLOAD ADD DUP1 DUP3 SSTORE DUP1 SWAP2 POP POP PUSH1 0x1 SWAP1 SUB SWAP1 PUSH1 0x0 MSTORE PUSH1 0x20 PUSH1 0x0 KECCAK256 SWAP1 PUSH1 0x4 MUL ADD PUSH1 0x0 SWAP1 SWAP2 SWAP1 SWAP2 SWAP1 SWAP2 POP PUSH1 0x0 DUP3 ADD MLOAD DUP2 PUSH1 0x0 ADD SSTORE PUSH1 0x20 DUP3 ADD MLOAD DUP2 PUSH1 0x1 ADD SWAP1 DUP1 MLOAD SWAP1 PUSH1 0x20 ADD SWAP1 PUSH2 0xD91 SWAP3 SWAP2 SWAP1 PUSH2 0x2A5F JUMP JUMPDEST POP PUSH1 0x40 DUP3 ADD MLOAD DUP2 PUSH1 0x2 ADD SSTORE PUSH1 0x60 DUP3 ADD MLOAD DUP2 PUSH1 0x3 ADD PUSH1 0x0 PUSH2 0x100 EXP DUP2 SLOAD DUP2 PUSH1 0xFF MUL NOT AND SWAP1 DUP4 ISZERO ISZERO MUL OR SWAP1 SSTORE POP POP POP PUSH1 0x1 PUSH1 0xD PUSH1 0x0 DUP3 DUP3 SLOAD PUSH2 0xDD1 SWAP2 SWAP1 PUSH2 0x3529 JUMP JUMPDEST SWAP3 POP POP DUP2 SWAP1 SSTORE POP POP POP POP JUMP JUMPDEST PUSH1 0xB DUP3 DUP1 MLOAD PUSH1 0x20 DUP2 ADD DUP3 ADD DUP1 MLOAD DUP5 DUP3 MSTORE PUSH1 0x20 DUP4 ADD PUSH1 0x20 DUP6 ADD KECCAK256 DUP2 DUP4 MSTORE DUP1 SWAP6 POP POP POP POP POP POP DUP2 DUP2 SLOAD DUP2 LT PUSH2 0xE0F JUMPI PUSH1 0x0 DUP1 REVERT JUMPDEST SWAP1 PUSH1 0x0 MSTORE PUSH1 0x20 PUSH1 0x0 KECCAK256 SWAP1 PUSH1 0x4 MUL ADD PUSH1 0x0 SWAP2 POP SWAP2 POP POP DUP1 PUSH1 0x0 ADD SLOAD SWAP1 DUP1 PUSH1 0x1 ADD DUP1 SLOAD PUSH2 0xE39 SWAP1 PUSH2 0x35D7 JUMP JUMPDEST DUP1 PUSH1 0x1F ADD PUSH1 0x20 DUP1 SWAP2 DIV MUL PUSH1 0x20 ADD PUSH1 0x40 MLOAD SWAP1 DUP2 ADD PUSH1 0x40 MSTORE DUP1 SWAP3 SWAP2 SWAP1 DUP2 DUP2 MSTORE PUSH1 0x20 ADD DUP3 DUP1 SLOAD PUSH2 0xE65 SWAP1 PUSH2 0x35D7 JUMP JUMPDEST DUP1 ISZERO PUSH2 0xEB2 JUMPI DUP1 PUSH1 0x1F LT PUSH2 0xE87 JUMPI PUSH2 0x100 DUP1 DUP4 SLOAD DIV MUL DUP4 MSTORE SWAP2 PUSH1 0x20 ADD SWAP2 PUSH2 0xEB2 JUMP JUMPDEST DUP3 ADD SWAP2 SWAP1 PUSH1 0x0 MSTORE PUSH1 0x20 PUSH1 0x0 KECCAK256 SWAP1 JUMPDEST DUP2 SLOAD DUP2 MSTORE SWAP1 PUSH1 0x1 ADD SWAP1 PUSH1 0x20 ADD DUP1 DUP4 GT PUSH2 0xE95 JUMPI DUP3 SWAP1 SUB PUSH1 0x1F AND DUP3 ADD SWAP2 JUMPDEST POP POP POP POP POP SWAP1 DUP1 PUSH1 0x2 ADD SLOAD SWAP1 DUP1 PUSH1 0x3 ADD PUSH1 0x0 SWAP1 SLOAD SWAP1 PUSH2 0x100 EXP SWAP1 DIV PUSH1 0xFF AND SWAP1 POP DUP5 JUMP JUMPDEST PUSH1 0x60 PUSH1 0xB DUP3 PUSH1 0x40 MLOAD PUSH2 0xEE7 SWAP2 SWAP1 PUSH2 0x3202 JUMP JUMPDEST SWAP1 DUP2 MSTORE PUSH1 0x20 ADD PUSH1 0x40 MLOAD DUP1 SWAP2 SUB SWAP1 KECCAK256 DUP1 SLOAD DUP1 PUSH1 0x20 MUL PUSH1 0x20 ADD PUSH1 0x40 MLOAD SWAP1 DUP2 ADD PUSH1 0x40 MSTORE DUP1 SWAP3 SWAP2 SWAP1 DUP2 DUP2 MSTORE PUSH1 0x20 ADD PUSH1 0x0 SWAP1 JUMPDEST DUP3 DUP3 LT ISZERO PUSH2 0x1008 JUMPI DUP4 DUP3 SWAP1 PUSH1 0x0 MSTORE PUSH1 0x20 PUSH1 0x0 KECCAK256 SWAP1 PUSH1 0x4 MUL ADD PUSH1 0x40 MLOAD DUP1 PUSH1 0x80 ADD PUSH1 0x40 MSTORE SWAP1 DUP2 PUSH1 0x0 DUP3 ADD SLOAD DUP2 MSTORE PUSH1 0x20 ADD PUSH1 0x1 DUP3 ADD DUP1 SLOAD PUSH2 0xF52 SWAP1 PUSH2 0x35D7 JUMP JUMPDEST DUP1 PUSH1 0x1F ADD PUSH1 0x20 DUP1 SWAP2 DIV MUL PUSH1 0x20 ADD PUSH1 0x40 MLOAD SWAP1 DUP2 ADD PUSH1 0x40 MSTORE DUP1 SWAP3 SWAP2 SWAP1 DUP2 DUP2 MSTORE PUSH1 0x20 ADD DUP3 DUP1 SLOAD PUSH2 0xF7E SWAP1 PUSH2 0x35D7 JUMP JUMPDEST DUP1 ISZERO PUSH2 0xFCB JUMPI DUP1 PUSH1 0x1F LT PUSH2 0xFA0 JUMPI PUSH2 0x100 DUP1 DUP4 SLOAD DIV MUL DUP4 MSTORE SWAP2 PUSH1 0x20 ADD SWAP2 PUSH2 0xFCB JUMP JUMPDEST DUP3 ADD SWAP2 SWAP1 PUSH1 0x0 MSTORE PUSH1 0x20 PUSH1 0x0 KECCAK256 SWAP1 JUMPDEST DUP2 SLOAD DUP2 MSTORE SWAP1 PUSH1 0x1 ADD SWAP1 PUSH1 0x20 ADD DUP1 DUP4 GT PUSH2 0xFAE JUMPI DUP3 SWAP1 SUB PUSH1 0x1F AND DUP3 ADD SWAP2 JUMPDEST POP POP POP POP POP DUP2 MSTORE PUSH1 0x20 ADD PUSH1 0x2 DUP3 ADD SLOAD DUP2 MSTORE PUSH1 0x20 ADD PUSH1 0x3 DUP3 ADD PUSH1 0x0 SWAP1 SLOAD SWAP1 PUSH2 0x100 EXP SWAP1 DIV PUSH1 0xFF AND ISZERO ISZERO ISZERO ISZERO DUP2 MSTORE POP POP DUP2 MSTORE PUSH1 0x20 ADD SWAP1 PUSH1 0x1 ADD SWAP1 PUSH2 0xF15 JUMP JUMPDEST POP POP POP POP SWAP1 POP SWAP2 SWAP1 POP JUMP JUMPDEST PUSH1 0x0 DUP2 DUP1 MLOAD PUSH1 0x20 DUP2 ADD DUP3 ADD DUP1 MLOAD DUP5 DUP3 MSTORE PUSH1 0x20 DUP4 ADD PUSH1 0x20 DUP6 ADD KECCAK256 DUP2 DUP4 MSTORE DUP1 SWAP6 POP POP POP POP POP POP PUSH1 0x0 SWAP2 POP SWAP1 POP DUP1 PUSH1 0x0 ADD DUP1 SLOAD PUSH2 0x104C SWAP1 PUSH2 0x35D7 JUMP JUMPDEST DUP1 PUSH1 0x1F ADD PUSH1 0x20 DUP1 SWAP2 DIV MUL PUSH1 0x20 ADD PUSH1 0x40 MLOAD SWAP1 DUP2 ADD PUSH1 0x40 MSTORE DUP1 SWAP3 SWAP2 SWAP1 DUP2 DUP2 MSTORE PUSH1 0x20 ADD DUP3 DUP1 SLOAD PUSH2 0x1078 SWAP1 PUSH2 0x35D7 JUMP JUMPDEST DUP1 ISZERO PUSH2 0x10C5 JUMPI DUP1 PUSH1 0x1F LT PUSH2 0x109A JUMPI PUSH2 0x100 DUP1 DUP4 SLOAD DIV MUL DUP4 MSTORE SWAP2 PUSH1 0x20 ADD SWAP2 PUSH2 0x10C5 JUMP JUMPDEST DUP3 ADD SWAP2 SWAP1 PUSH1 0x0 MSTORE PUSH1 0x20 PUSH1 0x0 KECCAK256 SWAP1 JUMPDEST DUP2 SLOAD DUP2 MSTORE SWAP1 PUSH1 0x1 ADD SWAP1 PUSH1 0x20 ADD DUP1 DUP4 GT PUSH2 0x10A8 JUMPI DUP3 SWAP1 SUB PUSH1 0x1F AND DUP3 ADD SWAP2 JUMPDEST POP POP POP POP POP SWAP1 DUP1 PUSH1 0x1 ADD DUP1 SLOAD PUSH2 0x10DA SWAP1 PUSH2 0x35D7 JUMP JUMPDEST DUP1 PUSH1 0x1F ADD PUSH1 0x20 DUP1 SWAP2 DIV MUL PUSH1 0x20 ADD PUSH1 0x40 MLOAD SWAP1 DUP2 ADD PUSH1 0x40 MSTORE DUP1 SWAP3 SWAP2 SWAP1 DUP2 DUP2 MSTORE PUSH1 0x20 ADD DUP3 DUP1 SLOAD PUSH2 0x1106 SWAP1 PUSH2 0x35D7 JUMP JUMPDEST DUP1 ISZERO PUSH2 0x1153 JUMPI DUP1 PUSH1 0x1F LT PUSH2 0x1128 JUMPI PUSH2 0x100 DUP1 DUP4 SLOAD DIV MUL DUP4 MSTORE SWAP2 PUSH1 0x20 ADD SWAP2 PUSH2 0x1153 JUMP JUMPDEST DUP3 ADD SWAP2 SWAP1 PUSH1 0x0 MSTORE PUSH1 0x20 PUSH1 0x0 KECCAK256 SWAP1 JUMPDEST DUP2 SLOAD DUP2 MSTORE SWAP1 PUSH1 0x1 ADD SWAP1 PUSH1 0x20 ADD DUP1 DUP4 GT PUSH2 0x1136 JUMPI DUP3 SWAP1 SUB PUSH1 0x1F AND DUP3 ADD SWAP2 JUMPDEST POP POP POP POP POP SWAP1 DUP1 PUSH1 0x2 ADD DUP1 SLOAD PUSH2 0x1168 SWAP1 PUSH2 0x35D7 JUMP JUMPDEST DUP1 PUSH1 0x1F ADD PUSH1 0x20 DUP1 SWAP2 DIV MUL PUSH1 0x20 ADD PUSH1 0x40 MLOAD SWAP1 DUP2 ADD PUSH1 0x40 MSTORE DUP1 SWAP3 SWAP2 SWAP1 DUP2 DUP2 MSTORE PUSH1 0x20 ADD DUP3 DUP1 SLOAD PUSH2 0x1194 SWAP1 PUSH2 0x35D7 JUMP JUMPDEST DUP1 ISZERO PUSH2 0x11E1 JUMPI DUP1 PUSH1 0x1F LT PUSH2 0x11B6 JUMPI PUSH2 0x100 DUP1 DUP4 SLOAD DIV MUL DUP4 MSTORE SWAP2 PUSH1 0x20 ADD SWAP2 PUSH2 0x11E1 JUMP JUMPDEST DUP3 ADD SWAP2 SWAP1 PUSH1 0x0 MSTORE PUSH1 0x20 PUSH1 0x0 KECCAK256 SWAP1 JUMPDEST DUP2 SLOAD DUP2 MSTORE SWAP1 PUSH1 0x1 ADD SWAP1 PUSH1 0x20 ADD DUP1 DUP4 GT PUSH2 0x11C4 JUMPI DUP3 SWAP1 SUB PUSH1 0x1F AND DUP3 ADD SWAP2 JUMPDEST POP POP POP POP POP SWAP1 DUP1 PUSH1 0x3 ADD DUP1 SLOAD PUSH2 0x11F6 SWAP1 PUSH2 0x35D7 JUMP JUMPDEST DUP1 PUSH1 0x1F ADD PUSH1 0x20 DUP1 SWAP2 DIV MUL PUSH1 0x20 ADD PUSH1 0x40 MLOAD SWAP1 DUP2 ADD PUSH1 0x40 MSTORE DUP1 SWAP3 SWAP2 SWAP1 DUP2 DUP2 MSTORE PUSH1 0x20 ADD DUP3 DUP1 SLOAD PUSH2 0x1222 SWAP1 PUSH2 0x35D7 JUMP JUMPDEST DUP1 ISZERO PUSH2 0x126F JUMPI DUP1 PUSH1 0x1F LT PUSH2 0x1244 JUMPI PUSH2 0x100 DUP1 DUP4 SLOAD DIV MUL DUP4 MSTORE SWAP2 PUSH1 0x20 ADD SWAP2 PUSH2 0x126F JUMP JUMPDEST DUP3 ADD SWAP2 SWAP1 PUSH1 0x0 MSTORE PUSH1 0x20 PUSH1 0x0 KECCAK256 SWAP1 JUMPDEST DUP2 SLOAD DUP2 MSTORE SWAP1 PUSH1 0x1 ADD SWAP1 PUSH1 0x20 ADD DUP1 DUP4 GT PUSH2 0x1252 JUMPI DUP3 SWAP1 SUB PUSH1 0x1F AND DUP3 ADD SWAP2 JUMPDEST POP POP POP POP POP SWAP1 DUP1 PUSH1 0x4 ADD SLOAD SWAP1 POP DUP6 JUMP JUMPDEST PUSH1 0x8 DUP3 DUP1 MLOAD PUSH1 0x20 DUP2 ADD DUP3 ADD DUP1 MLOAD DUP5 DUP3 MSTORE PUSH1 0x20 DUP4 ADD PUSH1 0x20 DUP6 ADD KECCAK256 DUP2 DUP4 MSTORE DUP1 SWAP6 POP POP POP POP POP POP DUP2 DUP2 SLOAD DUP2 LT PUSH2 0x12B1 JUMPI PUSH1 0x0 DUP1 REVERT JUMPDEST SWAP1 PUSH1 0x0 MSTORE PUSH1 0x20 PUSH1 0x0 KECCAK256 ADD PUSH1 0x0 SWAP2 POP SWAP2 POP POP SLOAD DUP2 JUMP JUMPDEST PUSH1 0x60 PUSH1 0x3 DUP3 PUSH1 0x40 MLOAD PUSH2 0x12D8 SWAP2 SWAP1 PUSH2 0x3202 JUMP JUMPDEST SWAP1 DUP2 MSTORE PUSH1 0x20 ADD PUSH1 0x40 MLOAD DUP1 SWAP2 SUB SWAP1 KECCAK256 DUP1 SLOAD DUP1 PUSH1 0x20 MUL PUSH1 0x20 ADD PUSH1 0x40 MLOAD SWAP1 DUP2 ADD PUSH1 0x40 MSTORE DUP1 SWAP3 SWAP2 SWAP1 DUP2 DUP2 MSTORE PUSH1 0x20 ADD PUSH1 0x0 SWAP1 JUMPDEST DUP3 DUP3 LT ISZERO PUSH2 0x14B4 JUMPI DUP4 DUP3 SWAP1 PUSH1 0x0 MSTORE PUSH1 0x20 PUSH1 0x0 KECCAK256 SWAP1 PUSH1 0x9 MUL ADD PUSH1 0x40 MLOAD DUP1 PUSH2 0x120 ADD PUSH1 0x40 MSTORE SWAP1 DUP2 PUSH1 0x0 DUP3 ADD SLOAD DUP2 MSTORE PUSH1 0x20 ADD PUSH1 0x1 DUP3 ADD DUP1 SLOAD PUSH2 0x1344 SWAP1 PUSH2 0x35D7 JUMP JUMPDEST DUP1 PUSH1 0x1F ADD PUSH1 0x20 DUP1 SWAP2 DIV MUL PUSH1 0x20 ADD PUSH1 0x40 MLOAD SWAP1 DUP2 ADD PUSH1 0x40 MSTORE DUP1 SWAP3 SWAP2 SWAP1 DUP2 DUP2 MSTORE PUSH1 0x20 ADD DUP3 DUP1 SLOAD PUSH2 0x1370 SWAP1 PUSH2 0x35D7 JUMP JUMPDEST DUP1 ISZERO PUSH2 0x13BD JUMPI DUP1 PUSH1 0x1F LT PUSH2 0x1392 JUMPI PUSH2 0x100 DUP1 DUP4 SLOAD DIV MUL DUP4 MSTORE SWAP2 PUSH1 0x20 ADD SWAP2 PUSH2 0x13BD JUMP JUMPDEST DUP3 ADD SWAP2 SWAP1 PUSH1 0x0 MSTORE PUSH1 0x20 PUSH1 0x0 KECCAK256 SWAP1 JUMPDEST DUP2 SLOAD DUP2 MSTORE SWAP1 PUSH1 0x1 ADD SWAP1 PUSH1 0x20 ADD DUP1 DUP4 GT PUSH2 0x13A0 JUMPI DUP3 SWAP1 SUB PUSH1 0x1F AND DUP3 ADD SWAP2 JUMPDEST POP POP POP POP POP DUP2 MSTORE PUSH1 0x20 ADD PUSH1 0x2 DUP3 ADD SLOAD DUP2 MSTORE PUSH1 0x20 ADD PUSH1 0x3 DUP3 ADD SLOAD DUP2 MSTORE PUSH1 0x20 ADD PUSH1 0x4 DUP3 ADD SLOAD DUP2 MSTORE PUSH1 0x20 ADD PUSH1 0x5 DUP3 ADD PUSH1 0x0 SWAP1 SLOAD SWAP1 PUSH2 0x100 EXP SWAP1 DIV PUSH1 0xFF AND ISZERO ISZERO ISZERO ISZERO DUP2 MSTORE PUSH1 0x20 ADD PUSH1 0x6 DUP3 ADD SLOAD DUP2 MSTORE PUSH1 0x20 ADD PUSH1 0x7 DUP3 ADD SLOAD DUP2 MSTORE PUSH1 0x20 ADD PUSH1 0x8 DUP3 ADD DUP1 SLOAD PUSH2 0x1423 SWAP1 PUSH2 0x35D7 JUMP JUMPDEST DUP1 PUSH1 0x1F ADD PUSH1 0x20 DUP1 SWAP2 DIV MUL PUSH1 0x20 ADD PUSH1 0x40 MLOAD SWAP1 DUP2 ADD PUSH1 0x40 MSTORE DUP1 SWAP3 SWAP2 SWAP1 DUP2 DUP2 MSTORE PUSH1 0x20 ADD DUP3 DUP1 SLOAD PUSH2 0x144F SWAP1 PUSH2 0x35D7 JUMP JUMPDEST DUP1 ISZERO PUSH2 0x149C JUMPI DUP1 PUSH1 0x1F LT PUSH2 0x1471 JUMPI PUSH2 0x100 DUP1 DUP4 SLOAD DIV MUL DUP4 MSTORE SWAP2 PUSH1 0x20 ADD SWAP2 PUSH2 0x149C JUMP JUMPDEST DUP3 ADD SWAP2 SWAP1 PUSH1 0x0 MSTORE PUSH1 0x20 PUSH1 0x0 KECCAK256 SWAP1 JUMPDEST DUP2 SLOAD DUP2 MSTORE SWAP1 PUSH1 0x1 ADD SWAP1 PUSH1 0x20 ADD DUP1 DUP4 GT PUSH2 0x147F JUMPI DUP3 SWAP1 SUB PUSH1 0x1F AND DUP3 ADD SWAP2 JUMPDEST POP POP POP POP POP DUP2 MSTORE POP POP DUP2 MSTORE PUSH1 0x20 ADD SWAP1 PUSH1 0x1 ADD SWAP1 PUSH2 0x1306 JUMP JUMPDEST POP POP POP POP SWAP1 POP SWAP2 SWAP1 POP JUMP JUMPDEST PUSH1 0x0 PUSH1 0xA DUP3 PUSH1 0x40 MLOAD PUSH2 0x14D1 SWAP2 SWAP1 PUSH2 0x3202 JUMP JUMPDEST SWAP1 DUP2 MSTORE PUSH1 0x20 ADD PUSH1 0x40 MLOAD DUP1 SWAP2 SUB SWAP1 KECCAK256 SLOAD SWAP1 POP SWAP2 SWAP1 POP JUMP JUMPDEST PUSH1 0x7 DUP3 DUP1 MLOAD PUSH1 0x20 DUP2 ADD DUP3 ADD DUP1 MLOAD DUP5 DUP3 MSTORE PUSH1 0x20 DUP4 ADD PUSH1 0x20 DUP6 ADD KECCAK256 DUP2 DUP4 MSTORE DUP1 SWAP6 POP POP POP POP POP POP DUP2 DUP2 SLOAD DUP2 LT PUSH2 0x1519 JUMPI PUSH1 0x0 DUP1 REVERT JUMPDEST SWAP1 PUSH1 0x0 MSTORE PUSH1 0x20 PUSH1 0x0 KECCAK256 ADD PUSH1 0x0 SWAP2 POP SWAP2 POP POP SLOAD DUP2 JUMP JUMPDEST PUSH1 0x60 PUSH1 0x4 DUP1 SLOAD DUP1 PUSH1 0x20 MUL PUSH1 0x20 ADD PUSH1 0x40 MLOAD SWAP1 DUP2 ADD PUSH1 0x40 MSTORE DUP1 SWAP3 SWAP2 SWAP1 DUP2 DUP2 MSTORE PUSH1 0x20 ADD PUSH1 0x0 SWAP1 JUMPDEST DUP3 DUP3 LT ISZERO PUSH2 0x1700 JUMPI DUP4 DUP3 SWAP1 PUSH1 0x0 MSTORE PUSH1 0x20 PUSH1 0x0 KECCAK256 SWAP1 PUSH1 0x9 MUL ADD PUSH1 0x40 MLOAD DUP1 PUSH2 0x120 ADD PUSH1 0x40 MSTORE SWAP1 DUP2 PUSH1 0x0 DUP3 ADD SLOAD DUP2 MSTORE PUSH1 0x20 ADD PUSH1 0x1 DUP3 ADD DUP1 SLOAD PUSH2 0x1590 SWAP1 PUSH2 0x35D7 JUMP JUMPDEST DUP1 PUSH1 0x1F ADD PUSH1 0x20 DUP1 SWAP2 DIV MUL PUSH1 0x20 ADD PUSH1 0x40 MLOAD SWAP1 DUP2 ADD PUSH1 0x40 MSTORE DUP1 SWAP3 SWAP2 SWAP1 DUP2 DUP2 MSTORE PUSH1 0x20 ADD DUP3 DUP1 SLOAD PUSH2 0x15BC SWAP1 PUSH2 0x35D7 JUMP JUMPDEST DUP1 ISZERO PUSH2 0x1609 JUMPI DUP1 PUSH1 0x1F LT PUSH2 0x15DE JUMPI PUSH2 0x100 DUP1 DUP4 SLOAD DIV MUL DUP4 MSTORE SWAP2 PUSH1 0x20 ADD SWAP2 PUSH2 0x1609 JUMP JUMPDEST DUP3 ADD SWAP2 SWAP1 PUSH1 0x0 MSTORE PUSH1 0x20 PUSH1 0x0 KECCAK256 SWAP1 JUMPDEST DUP2 SLOAD DUP2 MSTORE SWAP1 PUSH1 0x1 ADD SWAP1 PUSH1 0x20 ADD DUP1 DUP4 GT PUSH2 0x15EC JUMPI DUP3 SWAP1 SUB PUSH1 0x1F AND DUP3 ADD SWAP2 JUMPDEST POP POP POP POP POP DUP2 MSTORE PUSH1 0x20 ADD PUSH1 0x2 DUP3 ADD SLOAD DUP2 MSTORE PUSH1 0x20 ADD PUSH1 0x3 DUP3 ADD SLOAD DUP2 MSTORE PUSH1 0x20 ADD PUSH1 0x4 DUP3 ADD SLOAD DUP2 MSTORE PUSH1 0x20 ADD PUSH1 0x5 DUP3 ADD PUSH1 0x0 SWAP1 SLOAD SWAP1 PUSH2 0x100 EXP SWAP1 DIV PUSH1 0xFF AND ISZERO ISZERO ISZERO ISZERO DUP2 MSTORE PUSH1 0x20 ADD PUSH1 0x6 DUP3 ADD SLOAD DUP2 MSTORE PUSH1 0x20 ADD PUSH1 0x7 DUP3 ADD SLOAD DUP2 MSTORE PUSH1 0x20 ADD PUSH1 0x8 DUP3 ADD DUP1 SLOAD PUSH2 0x166F SWAP1 PUSH2 0x35D7 JUMP JUMPDEST DUP1 PUSH1 0x1F ADD PUSH1 0x20 DUP1 SWAP2 DIV MUL PUSH1 0x20 ADD PUSH1 0x40 MLOAD SWAP1 DUP2 ADD PUSH1 0x40 MSTORE DUP1 SWAP3 SWAP2 SWAP1 DUP2 DUP2 MSTORE PUSH1 0x20 ADD DUP3 DUP1 SLOAD PUSH2 0x169B SWAP1 PUSH2 0x35D7 JUMP JUMPDEST DUP1 ISZERO PUSH2 0x16E8 JUMPI DUP1 PUSH1 0x1F LT PUSH2 0x16BD JUMPI PUSH2 0x100 DUP1 DUP4 SLOAD DIV MUL DUP4 MSTORE SWAP2 PUSH1 0x20 ADD SWAP2 PUSH2 0x16E8 JUMP JUMPDEST DUP3 ADD SWAP2 SWAP1 PUSH1 0x0 MSTORE PUSH1 0x20 PUSH1 0x0 KECCAK256 SWAP1 JUMPDEST DUP2 SLOAD DUP2 MSTORE SWAP1 PUSH1 0x1 ADD SWAP1 PUSH1 0x20 ADD DUP1 DUP4 GT PUSH2 0x16CB JUMPI DUP3 SWAP1 SUB PUSH1 0x1F AND DUP3 ADD SWAP2 JUMPDEST POP POP POP POP POP DUP2 MSTORE POP POP DUP2 MSTORE PUSH1 0x20 ADD SWAP1 PUSH1 0x1 ADD SWAP1 PUSH2 0x1552 JUMP JUMPDEST POP POP POP POP SWAP1 POP SWAP1 JUMP JUMPDEST PUSH1 0x0 PUSH1 0xC DUP3 DUP2 SLOAD DUP2 LT PUSH2 0x1745 JUMPI PUSH32 0x4E487B7100000000000000000000000000000000000000000000000000000000 PUSH1 0x0 MSTORE PUSH1 0x32 PUSH1 0x4 MSTORE PUSH1 0x24 PUSH1 0x0 REVERT JUMPDEST SWAP1 PUSH1 0x0 MSTORE PUSH1 0x20 PUSH1 0x0 KECCAK256 SWAP1 PUSH1 0x4 MUL ADD PUSH1 0x1 ADD DUP1 SLOAD PUSH2 0x1761 SWAP1 PUSH2 0x35D7 JUMP JUMPDEST DUP1 PUSH1 0x1F ADD PUSH1 0x20 DUP1 SWAP2 DIV MUL PUSH1 0x20 ADD PUSH1 0x40 MLOAD SWAP1 DUP2 ADD PUSH1 0x40 MSTORE DUP1 SWAP3 SWAP2 SWAP1 DUP2 DUP2 MSTORE PUSH1 0x20 ADD DUP3 DUP1 SLOAD PUSH2 0x178D SWAP1 PUSH2 0x35D7 JUMP JUMPDEST DUP1 ISZERO PUSH2 0x17DA JUMPI DUP1 PUSH1 0x1F LT PUSH2 0x17AF JUMPI PUSH2 0x100 DUP1 DUP4 SLOAD DIV MUL DUP4 MSTORE SWAP2 PUSH1 0x20 ADD SWAP2 PUSH2 0x17DA JUMP JUMPDEST DUP3 ADD SWAP2 SWAP1 PUSH1 0x0 MSTORE PUSH1 0x20 PUSH1 0x0 KECCAK256 SWAP1 JUMPDEST DUP2 SLOAD DUP2 MSTORE SWAP1 PUSH1 0x1 ADD SWAP1 PUSH1 0x20 ADD DUP1 DUP4 GT PUSH2 0x17BD JUMPI DUP3 SWAP1 SUB PUSH1 0x1F AND DUP3 ADD SWAP2 JUMPDEST POP POP POP POP POP SWAP1 POP PUSH1 0x0 PUSH2 0x1A34 PUSH1 0xB DUP4 PUSH1 0x40 MLOAD PUSH2 0x17F6 SWAP2 SWAP1 PUSH2 0x3202 JUMP JUMPDEST SWAP1 DUP2 MSTORE PUSH1 0x20 ADD PUSH1 0x40 MLOAD DUP1 SWAP2 SUB SWAP1 KECCAK256 DUP1 SLOAD DUP1 PUSH1 0x20 MUL PUSH1 0x20 ADD PUSH1 0x40 MLOAD SWAP1 DUP2 ADD PUSH1 0x40 MSTORE DUP1 SWAP3 SWAP2 SWAP1 DUP2 DUP2 MSTORE PUSH1 0x20 ADD PUSH1 0x0 SWAP1 JUMPDEST DUP3 DUP3 LT ISZERO PUSH2 0x1917 JUMPI DUP4 DUP3 SWAP1 PUSH1 0x0 MSTORE PUSH1 0x20 PUSH1 0x0 KECCAK256 SWAP1 PUSH1 0x4 MUL ADD PUSH1 0x40 MLOAD DUP1 PUSH1 0x80 ADD PUSH1 0x40 MSTORE SWAP1 DUP2 PUSH1 0x0 DUP3 ADD SLOAD DUP2 MSTORE PUSH1 0x20 ADD PUSH1 0x1 DUP3 ADD DUP1 SLOAD PUSH2 0x1861 SWAP1 PUSH2 0x35D7 JUMP JUMPDEST DUP1 PUSH1 0x1F ADD PUSH1 0x20 DUP1 SWAP2 DIV MUL PUSH1 0x20 ADD PUSH1 0x40 MLOAD SWAP1 DUP2 ADD PUSH1 0x40 MSTORE DUP1 SWAP3 SWAP2 SWAP1 DUP2 DUP2 MSTORE PUSH1 0x20 ADD DUP3 DUP1 SLOAD PUSH2 0x188D SWAP1 PUSH2 0x35D7 JUMP JUMPDEST DUP1 ISZERO PUSH2 0x18DA JUMPI DUP1 PUSH1 0x1F LT PUSH2 0x18AF JUMPI PUSH2 0x100 DUP1 DUP4 SLOAD DIV MUL DUP4 MSTORE SWAP2 PUSH1 0x20 ADD SWAP2 PUSH2 0x18DA JUMP JUMPDEST DUP3 ADD SWAP2 SWAP1 PUSH1 0x0 MSTORE PUSH1 0x20 PUSH1 0x0 KECCAK256 SWAP1 JUMPDEST DUP2 SLOAD DUP2 MSTORE SWAP1 PUSH1 0x1 ADD SWAP1 PUSH1 0x20 ADD DUP1 DUP4 GT PUSH2 0x18BD JUMPI DUP3 SWAP1 SUB PUSH1 0x1F AND DUP3 ADD SWAP2 JUMPDEST POP POP POP POP POP DUP2 MSTORE PUSH1 0x20 ADD PUSH1 0x2 DUP3 ADD SLOAD DUP2 MSTORE PUSH1 0x20 ADD PUSH1 0x3 DUP3 ADD PUSH1 0x0 SWAP1 SLOAD SWAP1 PUSH2 0x100 EXP SWAP1 DIV PUSH1 0xFF AND ISZERO ISZERO ISZERO ISZERO DUP2 MSTORE POP POP DUP2 MSTORE PUSH1 0x20 ADD SWAP1 PUSH1 0x1 ADD SWAP1 PUSH2 0x1824 JUMP JUMPDEST POP POP POP POP PUSH1 0xC DUP6 DUP2 SLOAD DUP2 LT PUSH2 0x1955 JUMPI PUSH32 0x4E487B7100000000000000000000000000000000000000000000000000000000 PUSH1 0x0 MSTORE PUSH1 0x32 PUSH1 0x4 MSTORE PUSH1 0x24 PUSH1 0x0 REVERT JUMPDEST SWAP1 PUSH1 0x0 MSTORE PUSH1 0x20 PUSH1 0x0 KECCAK256 SWAP1 PUSH1 0x4 MUL ADD PUSH1 0x40 MLOAD DUP1 PUSH1 0x80 ADD PUSH1 0x40 MSTORE SWAP1 DUP2 PUSH1 0x0 DUP3 ADD SLOAD DUP2 MSTORE PUSH1 0x20 ADD PUSH1 0x1 DUP3 ADD DUP1 SLOAD PUSH2 0x1988 SWAP1 PUSH2 0x35D7 JUMP JUMPDEST DUP1 PUSH1 0x1F ADD PUSH1 0x20 DUP1 SWAP2 DIV MUL PUSH1 0x20 ADD PUSH1 0x40 MLOAD SWAP1 DUP2 ADD PUSH1 0x40 MSTORE DUP1 SWAP3 SWAP2 SWAP1 DUP2 DUP2 MSTORE PUSH1 0x20 ADD DUP3 DUP1 SLOAD PUSH2 0x19B4 SWAP1 PUSH2 0x35D7 JUMP JUMPDEST DUP1 ISZERO PUSH2 0x1A01 JUMPI DUP1 PUSH1 0x1F LT PUSH2 0x19D6 JUMPI PUSH2 0x100 DUP1 DUP4 SLOAD DIV MUL DUP4 MSTORE SWAP2 PUSH1 0x20 ADD SWAP2 PUSH2 0x1A01 JUMP JUMPDEST DUP3 ADD SWAP2 SWAP1 PUSH1 0x0 MSTORE PUSH1 0x20 PUSH1 0x0 KECCAK256 SWAP1 JUMPDEST DUP2 SLOAD DUP2 MSTORE SWAP1 PUSH1 0x1 ADD SWAP1 PUSH1 0x20 ADD DUP1 DUP4 GT PUSH2 0x19E4 JUMPI DUP3 SWAP1 SUB PUSH1 0x1F AND DUP3 ADD SWAP2 JUMPDEST POP POP POP POP POP DUP2 MSTORE PUSH1 0x20 ADD PUSH1 0x2 DUP3 ADD SLOAD DUP2 MSTORE PUSH1 0x20 ADD PUSH1 0x3 DUP3 ADD PUSH1 0x0 SWAP1 SLOAD SWAP1 PUSH2 0x100 EXP SWAP1 DIV PUSH1 0xFF AND ISZERO ISZERO ISZERO ISZERO DUP2 MSTORE POP POP PUSH2 0x294D JUMP JUMPDEST SWAP1 POP PUSH1 0x1 PUSH1 0xB DUP4 PUSH1 0x40 MLOAD PUSH2 0x1A48 SWAP2 SWAP1 PUSH2 0x3202 JUMP JUMPDEST SWAP1 DUP2 MSTORE PUSH1 0x20 ADD PUSH1 0x40 MLOAD DUP1 SWAP2 SUB SWAP1 KECCAK256 DUP3 DUP2 SLOAD DUP2 LT PUSH2 0x1A8E JUMPI PUSH32 0x4E487B7100000000000000000000000000000000000000000000000000000000 PUSH1 0x0 MSTORE PUSH1 0x32 PUSH1 0x4 MSTORE PUSH1 0x24 PUSH1 0x0 REVERT JUMPDEST SWAP1 PUSH1 0x0 MSTORE PUSH1 0x20 PUSH1 0x0 KECCAK256 SWAP1 PUSH1 0x4 MUL ADD PUSH1 0x3 ADD PUSH1 0x0 PUSH2 0x100 EXP DUP2 SLOAD DUP2 PUSH1 0xFF MUL NOT AND SWAP1 DUP4 ISZERO ISZERO MUL OR SWAP1 SSTORE POP PUSH1 0x1 PUSH1 0xC DUP5 DUP2 SLOAD DUP2 LT PUSH2 0x1AF2 JUMPI PUSH32 0x4E487B7100000000000000000000000000000000000000000000000000000000 PUSH1 0x0 MSTORE PUSH1 0x32 PUSH1 0x4 MSTORE PUSH1 0x24 PUSH1 0x0 REVERT JUMPDEST SWAP1 PUSH1 0x0 MSTORE PUSH1 0x20 PUSH1 0x0 KECCAK256 SWAP1 PUSH1 0x4 MUL ADD PUSH1 0x3 ADD PUSH1 0x0 PUSH2 0x100 EXP DUP2 SLOAD DUP2 PUSH1 0xFF MUL NOT AND SWAP1 DUP4 ISZERO ISZERO MUL OR SWAP1 SSTORE POP POP POP POP JUMP JUMPDEST PUSH1 0x9 DUP3 DUP1 MLOAD PUSH1 0x20 DUP2 ADD DUP3 ADD DUP1 MLOAD DUP5 DUP3 MSTORE PUSH1 0x20 DUP4 ADD PUSH1 0x20 DUP6 ADD KECCAK256 DUP2 DUP4 MSTORE DUP1 SWAP6 POP POP POP POP POP POP DUP2 DUP2 SLOAD DUP2 LT PUSH2 0x1B51 JUMPI PUSH1 0x0 DUP1 REVERT JUMPDEST SWAP1 PUSH1 0x0 MSTORE PUSH1 0x20 PUSH1 0x0 KECCAK256 ADD PUSH1 0x0 SWAP2 POP SWAP2 POP POP SLOAD DUP2 JUMP JUMPDEST PUSH1 0x0 PUSH1 0x4 DUP3 DUP2 SLOAD DUP2 LT PUSH2 0x1BA2 JUMPI PUSH32 0x4E487B7100000000000000000000000000000000000000000000000000000000 PUSH1 0x0 MSTORE PUSH1 0x32 PUSH1 0x4 MSTORE PUSH1 0x24 PUSH1 0x0 REVERT JUMPDEST SWAP1 PUSH1 0x0 MSTORE PUSH1 0x20 PUSH1 0x0 KECCAK256 SWAP1 PUSH1 0x9 MUL ADD PUSH1 0x1 ADD DUP1 SLOAD PUSH2 0x1BBE SWAP1 PUSH2 0x35D7 JUMP JUMPDEST DUP1 PUSH1 0x1F ADD PUSH1 0x20 DUP1 SWAP2 DIV MUL PUSH1 0x20 ADD PUSH1 0x40 MLOAD SWAP1 DUP2 ADD PUSH1 0x40 MSTORE DUP1 SWAP3 SWAP2 SWAP1 DUP2 DUP2 MSTORE PUSH1 0x20 ADD DUP3 DUP1 SLOAD PUSH2 0x1BEA SWAP1 PUSH2 0x35D7 JUMP JUMPDEST DUP1 ISZERO PUSH2 0x1C37 JUMPI DUP1 PUSH1 0x1F LT PUSH2 0x1C0C JUMPI PUSH2 0x100 DUP1 DUP4 SLOAD DIV MUL DUP4 MSTORE SWAP2 PUSH1 0x20 ADD SWAP2 PUSH2 0x1C37 JUMP JUMPDEST DUP3 ADD SWAP2 SWAP1 PUSH1 0x0 MSTORE PUSH1 0x20 PUSH1 0x0 KECCAK256 SWAP1 JUMPDEST DUP2 SLOAD DUP2 MSTORE SWAP1 PUSH1 0x1 ADD SWAP1 PUSH1 0x20 ADD DUP1 DUP4 GT PUSH2 0x1C1A JUMPI DUP3 SWAP1 SUB PUSH1 0x1F AND DUP3 ADD SWAP2 JUMPDEST POP POP POP POP POP SWAP1 POP PUSH1 0x0 PUSH2 0x2007 PUSH1 0x3 DUP4 PUSH1 0x40 MLOAD PUSH2 0x1C53 SWAP2 SWAP1 PUSH2 0x3202 JUMP JUMPDEST SWAP1 DUP2 MSTORE PUSH1 0x20 ADD PUSH1 0x40 MLOAD DUP1 SWAP2 SUB SWAP1 KECCAK256 DUP1 SLOAD DUP1 PUSH1 0x20 MUL PUSH1 0x20 ADD PUSH1 0x40 MLOAD SWAP1 DUP2 ADD PUSH1 0x40 MSTORE DUP1 SWAP3 SWAP2 SWAP1 DUP2 DUP2 MSTORE PUSH1 0x20 ADD PUSH1 0x0 SWAP1 JUMPDEST DUP3 DUP3 LT ISZERO PUSH2 0x1E2F JUMPI DUP4 DUP3 SWAP1 PUSH1 0x0 MSTORE PUSH1 0x20 PUSH1 0x0 KECCAK256 SWAP1 PUSH1 0x9 MUL ADD PUSH1 0x40 MLOAD DUP1 PUSH2 0x120 ADD PUSH1 0x40 MSTORE SWAP1 DUP2 PUSH1 0x0 DUP3 ADD SLOAD DUP2 MSTORE PUSH1 0x20 ADD PUSH1 0x1 DUP3 ADD DUP1 SLOAD PUSH2 0x1CBF SWAP1 PUSH2 0x35D7 JUMP JUMPDEST DUP1 PUSH1 0x1F ADD PUSH1 0x20 DUP1 SWAP2 DIV MUL PUSH1 0x20 ADD PUSH1 0x40 MLOAD SWAP1 DUP2 ADD PUSH1 0x40 MSTORE DUP1 SWAP3 SWAP2 SWAP1 DUP2 DUP2 MSTORE PUSH1 0x20 ADD DUP3 DUP1 SLOAD PUSH2 0x1CEB SWAP1 PUSH2 0x35D7 JUMP JUMPDEST DUP1 ISZERO PUSH2 0x1D38 JUMPI DUP1 PUSH1 0x1F LT PUSH2 0x1D0D JUMPI PUSH2 0x100 DUP1 DUP4 SLOAD DIV MUL DUP4 MSTORE SWAP2 PUSH1 0x20 ADD SWAP2 PUSH2 0x1D38 JUMP JUMPDEST DUP3 ADD SWAP2 SWAP1 PUSH1 0x0 MSTORE PUSH1 0x20 PUSH1 0x0 KECCAK256 SWAP1 JUMPDEST DUP2 SLOAD DUP2 MSTORE SWAP1 PUSH1 0x1 ADD SWAP1 PUSH1 0x20 ADD DUP1 DUP4 GT PUSH2 0x1D1B JUMPI DUP3 SWAP1 SUB PUSH1 0x1F AND DUP3 ADD SWAP2 JUMPDEST POP POP POP POP POP DUP2 MSTORE PUSH1 0x20 ADD PUSH1 0x2 DUP3 ADD SLOAD DUP2 MSTORE PUSH1 0x20 ADD PUSH1 0x3 DUP3 ADD SLOAD DUP2 MSTORE PUSH1 0x20 ADD PUSH1 0x4 DUP3 ADD SLOAD DUP2 MSTORE PUSH1 0x20 ADD PUSH1 0x5 DUP3 ADD PUSH1 0x0 SWAP1 SLOAD SWAP1 PUSH2 0x100 EXP SWAP1 DIV PUSH1 0xFF AND ISZERO ISZERO ISZERO ISZERO DUP2 MSTORE PUSH1 0x20 ADD PUSH1 0x6 DUP3 ADD SLOAD DUP2 MSTORE PUSH1 0x20 ADD PUSH1 0x7 DUP3 ADD SLOAD DUP2 MSTORE PUSH1 0x20 ADD PUSH1 0x8 DUP3 ADD DUP1 SLOAD PUSH2 0x1D9E SWAP1 PUSH2 0x35D7 JUMP JUMPDEST DUP1 PUSH1 0x1F ADD PUSH1 0x20 DUP1 SWAP2 DIV MUL PUSH1 0x20 ADD PUSH1 0x40 MLOAD SWAP1 DUP2 ADD PUSH1 0x40 MSTORE DUP1 SWAP3 SWAP2 SWAP1 DUP2 DUP2 MSTORE PUSH1 0x20 ADD DUP3 DUP1 SLOAD PUSH2 0x1DCA SWAP1 PUSH2 0x35D7 JUMP JUMPDEST DUP1 ISZERO PUSH2 0x1E17 JUMPI DUP1 PUSH1 0x1F LT PUSH2 0x1DEC JUMPI PUSH2 0x100 DUP1 DUP4 SLOAD DIV MUL DUP4 MSTORE SWAP2 PUSH1 0x20 ADD SWAP2 PUSH2 0x1E17 JUMP JUMPDEST DUP3 ADD SWAP2 SWAP1 PUSH1 0x0 MSTORE PUSH1 0x20 PUSH1 0x0 KECCAK256 SWAP1 JUMPDEST DUP2 SLOAD DUP2 MSTORE SWAP1 PUSH1 0x1 ADD SWAP1 PUSH1 0x20 ADD DUP1 DUP4 GT PUSH2 0x1DFA JUMPI DUP3 SWAP1 SUB PUSH1 0x1F AND DUP3 ADD SWAP2 JUMPDEST POP POP POP POP POP DUP2 MSTORE POP POP DUP2 MSTORE PUSH1 0x20 ADD SWAP1 PUSH1 0x1 ADD SWAP1 PUSH2 0x1C81 JUMP JUMPDEST POP POP POP POP PUSH1 0x4 DUP6 DUP2 SLOAD DUP2 LT PUSH2 0x1E6D JUMPI PUSH32 0x4E487B7100000000000000000000000000000000000000000000000000000000 PUSH1 0x0 MSTORE PUSH1 0x32 PUSH1 0x4 MSTORE PUSH1 0x24 PUSH1 0x0 REVERT JUMPDEST SWAP1 PUSH1 0x0 MSTORE PUSH1 0x20 PUSH1 0x0 KECCAK256 SWAP1 PUSH1 0x9 MUL ADD PUSH1 0x40 MLOAD DUP1 PUSH2 0x120 ADD PUSH1 0x40 MSTORE SWAP1 DUP2 PUSH1 0x0 DUP3 ADD SLOAD DUP2 MSTORE PUSH1 0x20 ADD PUSH1 0x1 DUP3 ADD DUP1 SLOAD PUSH2 0x1EA1 SWAP1 PUSH2 0x35D7 JUMP JUMPDEST DUP1 PUSH1 0x1F ADD PUSH1 0x20 DUP1 SWAP2 DIV MUL PUSH1 0x20 ADD PUSH1 0x40 MLOAD SWAP1 DUP2 ADD PUSH1 0x40 MSTORE DUP1 SWAP3 SWAP2 SWAP1 DUP2 DUP2 MSTORE PUSH1 0x20 ADD DUP3 DUP1 SLOAD PUSH2 0x1ECD SWAP1 PUSH2 0x35D7 JUMP JUMPDEST DUP1 ISZERO PUSH2 0x1F1A JUMPI DUP1 PUSH1 0x1F LT PUSH2 0x1EEF JUMPI PUSH2 0x100 DUP1 DUP4 SLOAD DIV MUL DUP4 MSTORE SWAP2 PUSH1 0x20 ADD SWAP2 PUSH2 0x1F1A JUMP JUMPDEST DUP3 ADD SWAP2 SWAP1 PUSH1 0x0 MSTORE PUSH1 0x20 PUSH1 0x0 KECCAK256 SWAP1 JUMPDEST DUP2 SLOAD DUP2 MSTORE SWAP1 PUSH1 0x1 ADD SWAP1 PUSH1 0x20 ADD DUP1 DUP4 GT PUSH2 0x1EFD JUMPI DUP3 SWAP1 SUB PUSH1 0x1F AND DUP3 ADD SWAP2 JUMPDEST POP POP POP POP POP DUP2 MSTORE PUSH1 0x20 ADD PUSH1 0x2 DUP3 ADD SLOAD DUP2 MSTORE PUSH1 0x20 ADD PUSH1 0x3 DUP3 ADD SLOAD DUP2 MSTORE PUSH1 0x20 ADD PUSH1 0x4 DUP3 ADD SLOAD DUP2 MSTORE PUSH1 0x20 ADD PUSH1 0x5 DUP3 ADD PUSH1 0x0 SWAP1 SLOAD SWAP1 PUSH2 0x100 EXP SWAP1 DIV PUSH1 0xFF AND ISZERO ISZERO ISZERO ISZERO DUP2 MSTORE PUSH1 0x20 ADD PUSH1 0x6 DUP3 ADD SLOAD DUP2 MSTORE PUSH1 0x20 ADD PUSH1 0x7 DUP3 ADD SLOAD DUP2 MSTORE PUSH1 0x20 ADD PUSH1 0x8 DUP3 ADD DUP1 SLOAD PUSH2 0x1F80 SWAP1 PUSH2 0x35D7 JUMP JUMPDEST DUP1 PUSH1 0x1F ADD PUSH1 0x20 DUP1 SWAP2 DIV MUL PUSH1 0x20 ADD PUSH1 0x40 MLOAD SWAP1 DUP2 ADD PUSH1 0x40 MSTORE DUP1 SWAP3 SWAP2 SWAP1 DUP2 DUP2 MSTORE PUSH1 0x20 ADD DUP3 DUP1 SLOAD PUSH2 0x1FAC SWAP1 PUSH2 0x35D7 JUMP JUMPDEST DUP1 ISZERO PUSH2 0x1FF9 JUMPI DUP1 PUSH1 0x1F LT PUSH2 0x1FCE JUMPI PUSH2 0x100 DUP1 DUP4 SLOAD DIV MUL DUP4 MSTORE SWAP2 PUSH1 0x20 ADD SWAP2 PUSH2 0x1FF9 JUMP JUMPDEST DUP3 ADD SWAP2 SWAP1 PUSH1 0x0 MSTORE PUSH1 0x20 PUSH1 0x0 KECCAK256 SWAP1 JUMPDEST DUP2 SLOAD DUP2 MSTORE SWAP1 PUSH1 0x1 ADD SWAP1 PUSH1 0x20 ADD DUP1 DUP4 GT PUSH2 0x1FDC JUMPI DUP3 SWAP1 SUB PUSH1 0x1F AND DUP3 ADD SWAP2 JUMPDEST POP POP POP POP POP DUP2 MSTORE POP POP PUSH2 0x29D6 JUMP JUMPDEST SWAP1 POP PUSH1 0x0 PUSH1 0x3 DUP4 PUSH1 0x40 MLOAD PUSH2 0x201B SWAP2 SWAP1 PUSH2 0x3202 JUMP JUMPDEST SWAP1 DUP2 MSTORE PUSH1 0x20 ADD PUSH1 0x40 MLOAD DUP1 SWAP2 SUB SWAP1 KECCAK256 DUP3 DUP2 SLOAD DUP2 LT PUSH2 0x2061 JUMPI PUSH32 0x4E487B7100000000000000000000000000000000000000000000000000000000 PUSH1 0x0 MSTORE PUSH1 0x32 PUSH1 0x4 MSTORE PUSH1 0x24 PUSH1 0x0 REVERT JUMPDEST SWAP1 PUSH1 0x0 MSTORE PUSH1 0x20 PUSH1 0x0 KECCAK256 SWAP1 PUSH1 0x9 MUL ADD PUSH1 0x5 ADD PUSH1 0x0 PUSH2 0x100 EXP DUP2 SLOAD DUP2 PUSH1 0xFF MUL NOT AND SWAP1 DUP4 ISZERO ISZERO MUL OR SWAP1 SSTORE POP PUSH1 0x0 PUSH1 0x4 DUP5 DUP2 SLOAD DUP2 LT PUSH2 0x20C5 JUMPI PUSH32 0x4E487B7100000000000000000000000000000000000000000000000000000000 PUSH1 0x0 MSTORE PUSH1 0x32 PUSH1 0x4 MSTORE PUSH1 0x24 PUSH1 0x0 REVERT JUMPDEST SWAP1 PUSH1 0x0 MSTORE PUSH1 0x20 PUSH1 0x0 KECCAK256 SWAP1 PUSH1 0x9 MUL ADD PUSH1 0x5 ADD PUSH1 0x0 PUSH2 0x100 EXP DUP2 SLOAD DUP2 PUSH1 0xFF MUL NOT AND SWAP1 DUP4 ISZERO ISZERO MUL OR SWAP1 SSTORE POP POP POP POP JUMP JUMPDEST PUSH1 0x0 PUSH1 0x40 MLOAD DUP1 PUSH2 0x120 ADD PUSH1 0x40 MSTORE DUP1 PUSH1 0x5 SLOAD DUP2 MSTORE PUSH1 0x20 ADD DUP10 DUP2 MSTORE PUSH1 0x20 ADD DUP9 DUP2 MSTORE PUSH1 0x20 ADD DUP8 DUP2 MSTORE PUSH1 0x20 ADD DUP7 DUP2 MSTORE PUSH1 0x20 ADD PUSH1 0x1 ISZERO ISZERO DUP2 MSTORE PUSH1 0x20 ADD DUP6 DUP2 MSTORE PUSH1 0x20 ADD DUP5 DUP2 MSTORE PUSH1 0x20 ADD DUP4 DUP2 MSTORE POP SWAP1 POP PUSH1 0x3 DUP9 PUSH1 0x40 MLOAD PUSH2 0x214B SWAP2 SWAP1 PUSH2 0x3202 JUMP JUMPDEST SWAP1 DUP2 MSTORE PUSH1 0x20 ADD PUSH1 0x40 MLOAD DUP1 SWAP2 SUB SWAP1 KECCAK256 DUP2 SWAP1 DUP1 PUSH1 0x1 DUP2 SLOAD ADD DUP1 DUP3 SSTORE DUP1 SWAP2 POP POP PUSH1 0x1 SWAP1 SUB SWAP1 PUSH1 0x0 MSTORE PUSH1 0x20 PUSH1 0x0 KECCAK256 SWAP1 PUSH1 0x9 MUL ADD PUSH1 0x0 SWAP1 SWAP2 SWAP1 SWAP2 SWAP1 SWAP2 POP PUSH1 0x0 DUP3 ADD MLOAD DUP2 PUSH1 0x0 ADD SSTORE PUSH1 0x20 DUP3 ADD MLOAD DUP2 PUSH1 0x1 ADD SWAP1 DUP1 MLOAD SWAP1 PUSH1 0x20 ADD SWAP1 PUSH2 0x21A9 SWAP3 SWAP2 SWAP1 PUSH2 0x2A5F JUMP JUMPDEST POP PUSH1 0x40 DUP3 ADD MLOAD DUP2 PUSH1 0x2 ADD SSTORE PUSH1 0x60 DUP3 ADD MLOAD DUP2 PUSH1 0x3 ADD SSTORE PUSH1 0x80 DUP3 ADD MLOAD DUP2 PUSH1 0x4 ADD SSTORE PUSH1 0xA0 DUP3 ADD MLOAD DUP2 PUSH1 0x5 ADD PUSH1 0x0 PUSH2 0x100 EXP DUP2 SLOAD DUP2 PUSH1 0xFF MUL NOT AND SWAP1 DUP4 ISZERO ISZERO MUL OR SWAP1 SSTORE POP PUSH1 0xC0 DUP3 ADD MLOAD DUP2 PUSH1 0x6 ADD SSTORE PUSH1 0xE0 DUP3 ADD MLOAD DUP2 PUSH1 0x7 ADD SSTORE PUSH2 0x100 DUP3 ADD MLOAD DUP2 PUSH1 0x8 ADD SWAP1 DUP1 MLOAD SWAP1 PUSH1 0x20 ADD SWAP1 PUSH2 0x2219 SWAP3 SWAP2 SWAP1 PUSH2 0x2A5F JUMP JUMPDEST POP POP POP PUSH1 0x4 DUP2 SWAP1 DUP1 PUSH1 0x1 DUP2 SLOAD ADD DUP1 DUP3 SSTORE DUP1 SWAP2 POP POP PUSH1 0x1 SWAP1 SUB SWAP1 PUSH1 0x0 MSTORE PUSH1 0x20 PUSH1 0x0 KECCAK256 SWAP1 PUSH1 0x9 MUL ADD PUSH1 0x0 SWAP1 SWAP2 SWAP1 SWAP2 SWAP1 SWAP2 POP PUSH1 0x0 DUP3 ADD MLOAD DUP2 PUSH1 0x0 ADD SSTORE PUSH1 0x20 DUP3 ADD MLOAD DUP2 PUSH1 0x1 ADD SWAP1 DUP1 MLOAD SWAP1 PUSH1 0x20 ADD SWAP1 PUSH2 0x226E SWAP3 SWAP2 SWAP1 PUSH2 0x2A5F JUMP JUMPDEST POP PUSH1 0x40 DUP3 ADD MLOAD DUP2 PUSH1 0x2 ADD SSTORE PUSH1 0x60 DUP3 ADD MLOAD DUP2 PUSH1 0x3 ADD SSTORE PUSH1 0x80 DUP3 ADD MLOAD DUP2 PUSH1 0x4 ADD SSTORE PUSH1 0xA0 DUP3 ADD MLOAD DUP2 PUSH1 0x5 ADD PUSH1 0x0 PUSH2 0x100 EXP DUP2 SLOAD DUP2 PUSH1 0xFF MUL NOT AND SWAP1 DUP4 ISZERO ISZERO MUL OR SWAP1 SSTORE POP PUSH1 0xC0 DUP3 ADD MLOAD DUP2 PUSH1 0x6 ADD SSTORE PUSH1 0xE0 DUP3 ADD MLOAD DUP2 PUSH1 0x7 ADD SSTORE PUSH2 0x100 DUP3 ADD MLOAD DUP2 PUSH1 0x8 ADD SWAP1 DUP1 MLOAD SWAP1 PUSH1 0x20 ADD SWAP1 PUSH2 0x22DE SWAP3 SWAP2 SWAP1 PUSH2 0x2A5F JUMP JUMPDEST POP POP POP PUSH1 0x1 PUSH1 0x5 PUSH1 0x0 DUP3 DUP3 SLOAD PUSH2 0x22F4 SWAP2 SWAP1 PUSH2 0x3529 JUMP JUMPDEST SWAP3 POP POP DUP2 SWAP1 SSTORE POP POP POP POP POP POP POP POP POP JUMP JUMPDEST PUSH1 0x60 PUSH1 0x1 DUP1 SLOAD DUP1 PUSH1 0x20 MUL PUSH1 0x20 ADD PUSH1 0x40 MLOAD SWAP1 DUP2 ADD PUSH1 0x40 MSTORE DUP1 SWAP3 SWAP2 SWAP1 DUP2 DUP2 MSTORE PUSH1 0x20 ADD PUSH1 0x0 SWAP1 JUMPDEST DUP3 DUP3 LT ISZERO PUSH2 0x25AD JUMPI DUP4 DUP3 SWAP1 PUSH1 0x0 MSTORE PUSH1 0x20 PUSH1 0x0 KECCAK256 SWAP1 PUSH1 0x5 MUL ADD PUSH1 0x40 MLOAD DUP1 PUSH1 0xA0 ADD PUSH1 0x40 MSTORE SWAP1 DUP2 PUSH1 0x0 DUP3 ADD DUP1 SLOAD PUSH2 0x235C SWAP1 PUSH2 0x35D7 JUMP JUMPDEST DUP1 PUSH1 0x1F ADD PUSH1 0x20 DUP1 SWAP2 DIV MUL PUSH1 0x20 ADD PUSH1 0x40 MLOAD SWAP1 DUP2 ADD PUSH1 0x40 MSTORE DUP1 SWAP3 SWAP2 SWAP1 DUP2 DUP2 MSTORE PUSH1 0x20 ADD DUP3 DUP1 SLOAD PUSH2 0x2388 SWAP1 PUSH2 0x35D7 JUMP JUMPDEST DUP1 ISZERO PUSH2 0x23D5 JUMPI DUP1 PUSH1 0x1F LT PUSH2 0x23AA JUMPI PUSH2 0x100 DUP1 DUP4 SLOAD DIV MUL DUP4 MSTORE SWAP2 PUSH1 0x20 ADD SWAP2 PUSH2 0x23D5 JUMP JUMPDEST DUP3 ADD SWAP2 SWAP1 PUSH1 0x0 MSTORE PUSH1 0x20 PUSH1 0x0 KECCAK256 SWAP1 JUMPDEST DUP2 SLOAD DUP2 MSTORE SWAP1 PUSH1 0x1 ADD SWAP1 PUSH1 0x20 ADD DUP1 DUP4 GT PUSH2 0x23B8 JUMPI DUP3 SWAP1 SUB PUSH1 0x1F AND DUP3 ADD SWAP2 JUMPDEST POP POP POP POP POP DUP2 MSTORE PUSH1 0x20 ADD PUSH1 0x1 DUP3 ADD DUP1 SLOAD PUSH2 0x23EE SWAP1 PUSH2 0x35D7 JUMP JUMPDEST DUP1 PUSH1 0x1F ADD PUSH1 0x20 DUP1 SWAP2 DIV MUL PUSH1 0x20 ADD PUSH1 0x40 MLOAD SWAP1 DUP2 ADD PUSH1 0x40 MSTORE DUP1 SWAP3 SWAP2 SWAP1 DUP2 DUP2 MSTORE PUSH1 0x20 ADD DUP3 DUP1 SLOAD PUSH2 0x241A SWAP1 PUSH2 0x35D7 JUMP JUMPDEST DUP1 ISZERO PUSH2 0x2467 JUMPI DUP1 PUSH1 0x1F LT PUSH2 0x243C JUMPI PUSH2 0x100 DUP1 DUP4 SLOAD DIV MUL DUP4 MSTORE SWAP2 PUSH1 0x20 ADD SWAP2 PUSH2 0x2467 JUMP JUMPDEST DUP3 ADD SWAP2 SWAP1 PUSH1 0x0 MSTORE PUSH1 0x20 PUSH1 0x0 KECCAK256 SWAP1 JUMPDEST DUP2 SLOAD DUP2 MSTORE SWAP1 PUSH1 0x1 ADD SWAP1 PUSH1 0x20 ADD DUP1 DUP4 GT PUSH2 0x244A JUMPI DUP3 SWAP1 SUB PUSH1 0x1F AND DUP3 ADD SWAP2 JUMPDEST POP POP POP POP POP DUP2 MSTORE PUSH1 0x20 ADD PUSH1 0x2 DUP3 ADD DUP1 SLOAD PUSH2 0x2480 SWAP1 PUSH2 0x35D7 JUMP JUMPDEST DUP1 PUSH1 0x1F ADD PUSH1 0x20 DUP1 SWAP2 DIV MUL PUSH1 0x20 ADD PUSH1 0x40 MLOAD SWAP1 DUP2 ADD PUSH1 0x40 MSTORE DUP1 SWAP3 SWAP2 SWAP1 DUP2 DUP2 MSTORE PUSH1 0x20 ADD DUP3 DUP1 SLOAD PUSH2 0x24AC SWAP1 PUSH2 0x35D7 JUMP JUMPDEST DUP1 ISZERO PUSH2 0x24F9 JUMPI DUP1 PUSH1 0x1F LT PUSH2 0x24CE JUMPI PUSH2 0x100 DUP1 DUP4 SLOAD DIV MUL DUP4 MSTORE SWAP2 PUSH1 0x20 ADD SWAP2 PUSH2 0x24F9 JUMP JUMPDEST DUP3 ADD SWAP2 SWAP1 PUSH1 0x0 MSTORE PUSH1 0x20 PUSH1 0x0 KECCAK256 SWAP1 JUMPDEST DUP2 SLOAD DUP2 MSTORE SWAP1 PUSH1 0x1 ADD SWAP1 PUSH1 0x20 ADD DUP1 DUP4 GT PUSH2 0x24DC JUMPI DUP3 SWAP1 SUB PUSH1 0x1F AND DUP3 ADD SWAP2 JUMPDEST POP POP POP POP POP DUP2 MSTORE PUSH1 0x20 ADD PUSH1 0x3 DUP3 ADD DUP1 SLOAD PUSH2 0x2512 SWAP1 PUSH2 0x35D7 JUMP JUMPDEST DUP1 PUSH1 0x1F ADD PUSH1 0x20 DUP1 SWAP2 DIV MUL PUSH1 0x20 ADD PUSH1 0x40 MLOAD SWAP1 DUP2 ADD PUSH1 0x40 MSTORE DUP1 SWAP3 SWAP2 SWAP1 DUP2 DUP2 MSTORE PUSH1 0x20 ADD DUP3 DUP1 SLOAD PUSH2 0x253E SWAP1 PUSH2 0x35D7 JUMP JUMPDEST DUP1 ISZERO PUSH2 0x258B JUMPI DUP1 PUSH1 0x1F LT PUSH2 0x2560 JUMPI PUSH2 0x100 DUP1 DUP4 SLOAD DIV MUL DUP4 MSTORE SWAP2 PUSH1 0x20 ADD SWAP2 PUSH2 0x258B JUMP JUMPDEST DUP3 ADD SWAP2 SWAP1 PUSH1 0x0 MSTORE PUSH1 0x20 PUSH1 0x0 KECCAK256 SWAP1 JUMPDEST DUP2 SLOAD DUP2 MSTORE SWAP1 PUSH1 0x1 ADD SWAP1 PUSH1 0x20 ADD DUP1 DUP4 GT PUSH2 0x256E JUMPI DUP3 SWAP1 SUB PUSH1 0x1F AND DUP3 ADD SWAP2 JUMPDEST POP POP POP POP POP DUP2 MSTORE PUSH1 0x20 ADD PUSH1 0x4 DUP3 ADD SLOAD DUP2 MSTORE POP POP DUP2 MSTORE PUSH1 0x20 ADD SWAP1 PUSH1 0x1 ADD SWAP1 PUSH2 0x2329 JUMP JUMPDEST POP POP POP POP SWAP1 POP SWAP1 JUMP JUMPDEST PUSH1 0xC DUP2 DUP2 SLOAD DUP2 LT PUSH2 0x25C6 JUMPI PUSH1 0x0 DUP1 REVERT JUMPDEST SWAP1 PUSH1 0x0 MSTORE PUSH1 0x20 PUSH1 0x0 KECCAK256 SWAP1 PUSH1 0x4 MUL ADD PUSH1 0x0 SWAP2 POP SWAP1 POP DUP1 PUSH1 0x0 ADD SLOAD SWAP1 DUP1 PUSH1 0x1 ADD DUP1 SLOAD PUSH2 0x25EF SWAP1 PUSH2 0x35D7 JUMP JUMPDEST DUP1 PUSH1 0x1F ADD PUSH1 0x20 DUP1 SWAP2 DIV MUL PUSH1 0x20 ADD PUSH1 0x40 MLOAD SWAP1 DUP2 ADD PUSH1 0x40 MSTORE DUP1 SWAP3 SWAP2 SWAP1 DUP2 DUP2 MSTORE PUSH1 0x20 ADD DUP3 DUP1 SLOAD PUSH2 0x261B SWAP1 PUSH2 0x35D7 JUMP JUMPDEST DUP1 ISZERO PUSH2 0x2668 JUMPI DUP1 PUSH1 0x1F LT PUSH2 0x263D JUMPI PUSH2 0x100 DUP1 DUP4 SLOAD DIV MUL DUP4 MSTORE SWAP2 PUSH1 0x20 ADD SWAP2 PUSH2 0x2668 JUMP JUMPDEST DUP3 ADD SWAP2 SWAP1 PUSH1 0x0 MSTORE PUSH1 0x20 PUSH1 0x0 KECCAK256 SWAP1 JUMPDEST DUP2 SLOAD DUP2 MSTORE SWAP1 PUSH1 0x1 ADD SWAP1 PUSH1 0x20 ADD DUP1 DUP4 GT PUSH2 0x264B JUMPI DUP3 SWAP1 SUB PUSH1 0x1F AND DUP3 ADD SWAP2 JUMPDEST POP POP POP POP POP SWAP1 DUP1 PUSH1 0x2 ADD SLOAD SWAP1 DUP1 PUSH1 0x3 ADD PUSH1 0x0 SWAP1 SLOAD SWAP1 PUSH2 0x100 EXP SWAP1 DIV PUSH1 0xFF AND SWAP1 POP DUP5 JUMP JUMPDEST PUSH1 0x40 MLOAD DUP1 PUSH1 0x40 ADD PUSH1 0x40 MSTORE DUP1 PUSH1 0x5 DUP2 MSTORE PUSH1 0x20 ADD PUSH32 0x48656C6C6F000000000000000000000000000000000000000000000000000000 DUP2 MSTORE POP PUSH1 0x0 DUP3 PUSH1 0x40 MLOAD PUSH2 0x26D1 SWAP2 SWAP1 PUSH2 0x3202 JUMP JUMPDEST SWAP1 DUP2 MSTORE PUSH1 0x20 ADD PUSH1 0x40 MLOAD DUP1 SWAP2 SUB SWAP1 KECCAK256 PUSH1 0x2 ADD SWAP1 DUP1 MLOAD SWAP1 PUSH1 0x20 ADD SWAP1 PUSH2 0x26F5 SWAP3 SWAP2 SWAP1 PUSH2 0x2A5F JUMP JUMPDEST POP PUSH1 0x40 MLOAD DUP1 PUSH1 0x40 ADD PUSH1 0x40 MSTORE DUP1 PUSH1 0x5 DUP2 MSTORE PUSH1 0x20 ADD PUSH32 0x48656C6C6F000000000000000000000000000000000000000000000000000000 DUP2 MSTORE POP PUSH1 0x1 PUSH1 0x0 DUP4 PUSH1 0x40 MLOAD PUSH2 0x273E SWAP2 SWAP1 PUSH2 0x3202 JUMP JUMPDEST SWAP1 DUP2 MSTORE PUSH1 0x20 ADD PUSH1 0x40 MLOAD DUP1 SWAP2 SUB SWAP1 KECCAK256 PUSH1 0x4 ADD SLOAD DUP2 SLOAD DUP2 LT PUSH2 0x2787 JUMPI PUSH32 0x4E487B7100000000000000000000000000000000000000000000000000000000 PUSH1 0x0 MSTORE PUSH1 0x32 PUSH1 0x4 MSTORE PUSH1 0x24 PUSH1 0x0 REVERT JUMPDEST SWAP1 PUSH1 0x0 MSTORE PUSH1 0x20 PUSH1 0x0 KECCAK256 SWAP1 PUSH1 0x5 MUL ADD PUSH1 0x2 ADD SWAP1 DUP1 MLOAD SWAP1 PUSH1 0x20 ADD SWAP1 PUSH2 0x27AB SWAP3 SWAP2 SWAP1 PUSH2 0x2A5F JUMP JUMPDEST POP POP JUMP JUMPDEST PUSH1 0x3 DUP3 DUP1 MLOAD PUSH1 0x20 DUP2 ADD DUP3 ADD DUP1 MLOAD DUP5 DUP3 MSTORE PUSH1 0x20 DUP4 ADD PUSH1 0x20 DUP6 ADD KECCAK256 DUP2 DUP4 MSTORE DUP1 SWAP6 POP POP POP POP POP POP DUP2 DUP2 SLOAD DUP2 LT PUSH2 0x27E1 JUMPI PUSH1 0x0 DUP1 REVERT JUMPDEST SWAP1 PUSH1 0x0 MSTORE PUSH1 0x20 PUSH1 0x0 KECCAK256 SWAP1 PUSH1 0x9 MUL ADD PUSH1 0x0 SWAP2 POP SWAP2 POP POP DUP1 PUSH1 0x0 ADD SLOAD SWAP1 DUP1 PUSH1 0x1 ADD DUP1 SLOAD PUSH2 0x280B SWAP1 PUSH2 0x35D7 JUMP JUMPDEST DUP1 PUSH1 0x1F ADD PUSH1 0x20 DUP1 SWAP2 DIV MUL PUSH1 0x20 ADD PUSH1 0x40 MLOAD SWAP1 DUP2 ADD PUSH1 0x40 MSTORE DUP1 SWAP3 SWAP2 SWAP1 DUP2 DUP2 MSTORE PUSH1 0x20 ADD DUP3 DUP1 SLOAD PUSH2 0x2837 SWAP1 PUSH2 0x35D7 JUMP JUMPDEST DUP1 ISZERO PUSH2 0x2884 JUMPI DUP1 PUSH1 0x1F LT PUSH2 0x2859 JUMPI PUSH2 0x100 DUP1 DUP4 SLOAD DIV MUL DUP4 MSTORE SWAP2 PUSH1 0x20 ADD SWAP2 PUSH2 0x2884 JUMP JUMPDEST DUP3 ADD SWAP2 SWAP1 PUSH1 0x0 MSTORE PUSH1 0x20 PUSH1 0x0 KECCAK256 SWAP1 JUMPDEST DUP2 SLOAD DUP2 MSTORE SWAP1 PUSH1 0x1 ADD SWAP1 PUSH1 0x20 ADD DUP1 DUP4 GT PUSH2 0x2867 JUMPI DUP3 SWAP1 SUB PUSH1 0x1F AND DUP3 ADD SWAP2 JUMPDEST POP POP POP POP POP SWAP1 DUP1 PUSH1 0x2 ADD SLOAD SWAP1 DUP1 PUSH1 0x3 ADD SLOAD SWAP1 DUP1 PUSH1 0x4 ADD SLOAD SWAP1 DUP1 PUSH1 0x5 ADD PUSH1 0x0 SWAP1 SLOAD SWAP1 PUSH2 0x100 EXP SWAP1 DIV PUSH1 0xFF AND SWAP1 DUP1 PUSH1 0x6 ADD SLOAD SWAP1 DUP1 PUSH1 0x7 ADD SLOAD SWAP1 DUP1 PUSH1 0x8 ADD DUP1 SLOAD PUSH2 0x28CA SWAP1 PUSH2 0x35D7 JUMP JUMPDEST DUP1 PUSH1 0x1F ADD PUSH1 0x20 DUP1 SWAP2 DIV MUL PUSH1 0x20 ADD PUSH1 0x40 MLOAD SWAP1 DUP2 ADD PUSH1 0x40 MSTORE DUP1 SWAP3 SWAP2 SWAP1 DUP2 DUP2 MSTORE PUSH1 0x20 ADD DUP3 DUP1 SLOAD PUSH2 0x28F6 SWAP1 PUSH2 0x35D7 JUMP JUMPDEST DUP1 ISZERO PUSH2 0x2943 JUMPI DUP1 PUSH1 0x1F LT PUSH2 0x2918 JUMPI PUSH2 0x100 DUP1 DUP4 SLOAD DIV MUL DUP4 MSTORE SWAP2 PUSH1 0x20 ADD SWAP2 PUSH2 0x2943 JUMP JUMPDEST DUP3 ADD SWAP2 SWAP1 PUSH1 0x0 MSTORE PUSH1 0x20 PUSH1 0x0 KECCAK256 SWAP1 JUMPDEST DUP2 SLOAD DUP2 MSTORE SWAP1 PUSH1 0x1 ADD SWAP1 PUSH1 0x20 ADD DUP1 DUP4 GT PUSH2 0x2926 JUMPI DUP3 SWAP1 SUB PUSH1 0x1F AND DUP3 ADD SWAP2 JUMPDEST POP POP POP POP POP SWAP1 POP DUP10 JUMP JUMPDEST PUSH1 0x0 DUP1 PUSH1 0x0 SWAP1 POP JUMPDEST DUP4 MLOAD DUP2 LT ISZERO PUSH2 0x29CA JUMPI DUP3 PUSH1 0x0 ADD MLOAD DUP5 DUP3 DUP2 MLOAD DUP2 LT PUSH2 0x299C JUMPI PUSH32 0x4E487B7100000000000000000000000000000000000000000000000000000000 PUSH1 0x0 MSTORE PUSH1 0x32 PUSH1 0x4 MSTORE PUSH1 0x24 PUSH1 0x0 REVERT JUMPDEST PUSH1 0x20 MUL PUSH1 0x20 ADD ADD MLOAD PUSH1 0x0 ADD MLOAD EQ ISZERO PUSH2 0x29B7 JUMPI DUP1 SWAP2 POP POP PUSH2 0x29D0 JUMP JUMPDEST DUP1 DUP1 PUSH2 0x29C2 SWAP1 PUSH2 0x363A JUMP JUMPDEST SWAP2 POP POP PUSH2 0x2955 JUMP JUMPDEST POP PUSH1 0x63 SWAP1 POP JUMPDEST SWAP3 SWAP2 POP POP JUMP JUMPDEST PUSH1 0x0 DUP1 PUSH1 0x0 SWAP1 POP JUMPDEST DUP4 MLOAD DUP2 LT ISZERO PUSH2 0x2A53 JUMPI DUP3 PUSH1 0x0 ADD MLOAD DUP5 DUP3 DUP2 MLOAD DUP2 LT PUSH2 0x2A25 JUMPI PUSH32 0x4E487B7100000000000000000000000000000000000000000000000000000000 PUSH1 0x0 MSTORE PUSH1 0x32 PUSH1 0x4 MSTORE PUSH1 0x24 PUSH1 0x0 REVERT JUMPDEST PUSH1 0x20 MUL PUSH1 0x20 ADD ADD MLOAD PUSH1 0x0 ADD MLOAD EQ ISZERO PUSH2 0x2A40 JUMPI DUP1 SWAP2 POP POP PUSH2 0x2A59 JUMP JUMPDEST DUP1 DUP1 PUSH2 0x2A4B SWAP1 PUSH2 0x363A JUMP JUMPDEST SWAP2 POP POP PUSH2 0x29DE JUMP JUMPDEST POP PUSH1 0x63 SWAP1 POP JUMPDEST SWAP3 SWAP2 POP POP JUMP JUMPDEST DUP3 DUP1 SLOAD PUSH2 0x2A6B SWAP1 PUSH2 0x35D7 JUMP JUMPDEST SWAP1 PUSH1 0x0 MSTORE PUSH1 0x20 PUSH1 0x0 KECCAK256 SWAP1 PUSH1 0x1F ADD PUSH1 0x20 SWAP1 DIV DUP2 ADD SWAP3 DUP3 PUSH2 0x2A8D JUMPI PUSH1 0x0 DUP6 SSTORE PUSH2 0x2AD4 JUMP JUMPDEST DUP3 PUSH1 0x1F LT PUSH2 0x2AA6 JUMPI DUP1 MLOAD PUSH1 0xFF NOT AND DUP4 DUP1 ADD OR DUP6 SSTORE PUSH2 0x2AD4 JUMP JUMPDEST DUP3 DUP1 ADD PUSH1 0x1 ADD DUP6 SSTORE DUP3 ISZERO PUSH2 0x2AD4 JUMPI SWAP2 DUP3 ADD JUMPDEST DUP3 DUP2 GT ISZERO PUSH2 0x2AD3 JUMPI DUP3 MLOAD DUP3 SSTORE SWAP2 PUSH1 0x20 ADD SWAP2 SWAP1 PUSH1 0x1 ADD SWAP1 PUSH2 0x2AB8 JUMP JUMPDEST JUMPDEST POP SWAP1 POP PUSH2 0x2AE1 SWAP2 SWAP1 PUSH2 0x2AE5 JUMP JUMPDEST POP SWAP1 JUMP JUMPDEST JUMPDEST DUP1 DUP3 GT ISZERO PUSH2 0x2AFE JUMPI PUSH1 0x0 DUP2 PUSH1 0x0 SWAP1 SSTORE POP PUSH1 0x1 ADD PUSH2 0x2AE6 JUMP JUMPDEST POP SWAP1 JUMP JUMPDEST PUSH1 0x0 PUSH2 0x2B15 PUSH2 0x2B10 DUP5 PUSH2 0x3415 JUMP JUMPDEST PUSH2 0x33F0 JUMP JUMPDEST SWAP1 POP DUP3 DUP2 MSTORE PUSH1 0x20 DUP2 ADD DUP5 DUP5 DUP5 ADD GT ISZERO PUSH2 0x2B2D JUMPI PUSH1 0x0 DUP1 REVERT JUMPDEST PUSH2 0x2B38 DUP5 DUP3 DUP6 PUSH2 0x3595 JUMP JUMPDEST POP SWAP4 SWAP3 POP POP POP JUMP JUMPDEST PUSH1 0x0 DUP3 PUSH1 0x1F DUP4 ADD SLT PUSH2 0x2B51 JUMPI PUSH1 0x0 DUP1 REVERT JUMPDEST DUP2 CALLDATALOAD PUSH2 0x2B61 DUP5 DUP3 PUSH1 0x20 DUP7 ADD PUSH2 0x2B02 JUMP JUMPDEST SWAP2 POP POP SWAP3 SWAP2 POP POP JUMP JUMPDEST PUSH1 0x0 DUP2 CALLDATALOAD SWAP1 POP PUSH2 0x2B79 DUP2 PUSH2 0x3721 JUMP JUMPDEST SWAP3 SWAP2 POP POP JUMP JUMPDEST PUSH1 0x0 PUSH1 0x20 DUP3 DUP5 SUB SLT ISZERO PUSH2 0x2B91 JUMPI PUSH1 0x0 DUP1 REVERT JUMPDEST PUSH1 0x0 DUP3 ADD CALLDATALOAD PUSH8 0xFFFFFFFFFFFFFFFF DUP2 GT ISZERO PUSH2 0x2BAB JUMPI PUSH1 0x0 DUP1 REVERT JUMPDEST PUSH2 0x2BB7 DUP5 DUP3 DUP6 ADD PUSH2 0x2B40 JUMP JUMPDEST SWAP2 POP POP SWAP3 SWAP2 POP POP JUMP JUMPDEST PUSH1 0x0 DUP1 PUSH1 0x0 DUP1 PUSH1 0x80 DUP6 DUP8 SUB SLT ISZERO PUSH2 0x2BD6 JUMPI PUSH1 0x0 DUP1 REVERT JUMPDEST PUSH1 0x0 DUP6 ADD CALLDATALOAD PUSH8 0xFFFFFFFFFFFFFFFF DUP2 GT ISZERO PUSH2 0x2BF0 JUMPI PUSH1 0x0 DUP1 REVERT JUMPDEST PUSH2 0x2BFC DUP8 DUP3 DUP9 ADD PUSH2 0x2B40 JUMP JUMPDEST SWAP5 POP POP PUSH1 0x20 DUP6 ADD CALLDATALOAD PUSH8 0xFFFFFFFFFFFFFFFF DUP2 GT ISZERO PUSH2 0x2C19 JUMPI PUSH1 0x0 DUP1 REVERT JUMPDEST PUSH2 0x2C25 DUP8 DUP3 DUP9 ADD PUSH2 0x2B40 JUMP JUMPDEST SWAP4 POP POP PUSH1 0x40 DUP6 ADD CALLDATALOAD PUSH8 0xFFFFFFFFFFFFFFFF DUP2 GT ISZERO PUSH2 0x2C42 JUMPI PUSH1 0x0 DUP1 REVERT JUMPDEST PUSH2 0x2C4E DUP8 DUP3 DUP9 ADD PUSH2 0x2B40 JUMP JUMPDEST SWAP3 POP POP PUSH1 0x60 DUP6 ADD CALLDATALOAD PUSH8 0xFFFFFFFFFFFFFFFF DUP2 GT ISZERO PUSH2 0x2C6B JUMPI PUSH1 0x0 DUP1 REVERT JUMPDEST PUSH2 0x2C77 DUP8 DUP3 DUP9 ADD PUSH2 0x2B40 JUMP JUMPDEST SWAP2 POP POP SWAP3 SWAP6 SWAP2 SWAP5 POP SWAP3 POP JUMP JUMPDEST PUSH1 0x0 DUP1 PUSH1 0x40 DUP4 DUP6 SUB SLT ISZERO PUSH2 0x2C96 JUMPI PUSH1 0x0 DUP1 REVERT JUMPDEST PUSH1 0x0 DUP4 ADD CALLDATALOAD PUSH8 0xFFFFFFFFFFFFFFFF DUP2 GT ISZERO PUSH2 0x2CB0 JUMPI PUSH1 0x0 DUP1 REVERT JUMPDEST PUSH2 0x2CBC DUP6 DUP3 DUP7 ADD PUSH2 0x2B40 JUMP JUMPDEST SWAP3 POP POP PUSH1 0x20 PUSH2 0x2CCD DUP6 DUP3 DUP7 ADD PUSH2 0x2B6A JUMP JUMPDEST SWAP2 POP POP SWAP3 POP SWAP3 SWAP1 POP JUMP JUMPDEST PUSH1 0x0 DUP1 PUSH1 0x0 DUP1 PUSH1 0x0 DUP1 PUSH1 0x0 PUSH1 0xE0 DUP9 DUP11 SUB SLT ISZERO PUSH2 0x2CF2 JUMPI PUSH1 0x0 DUP1 REVERT JUMPDEST PUSH1 0x0 DUP9 ADD CALLDATALOAD PUSH8 0xFFFFFFFFFFFFFFFF DUP2 GT ISZERO PUSH2 0x2D0C JUMPI PUSH1 0x0 DUP1 REVERT JUMPDEST PUSH2 0x2D18 DUP11 DUP3 DUP12 ADD PUSH2 0x2B40 JUMP JUMPDEST SWAP8 POP POP PUSH1 0x20 PUSH2 0x2D29 DUP11 DUP3 DUP12 ADD PUSH2 0x2B6A JUMP JUMPDEST SWAP7 POP POP PUSH1 0x40 PUSH2 0x2D3A DUP11 DUP3 DUP12 ADD PUSH2 0x2B6A JUMP JUMPDEST SWAP6 POP POP PUSH1 0x60 PUSH2 0x2D4B DUP11 DUP3 DUP12 ADD PUSH2 0x2B6A JUMP JUMPDEST SWAP5 POP POP PUSH1 0x80 PUSH2 0x2D5C DUP11 DUP3 DUP12 ADD PUSH2 0x2B6A JUMP JUMPDEST SWAP4 POP POP PUSH1 0xA0 PUSH2 0x2D6D DUP11 DUP3 DUP12 ADD PUSH2 0x2B6A JUMP JUMPDEST SWAP3 POP POP PUSH1 0xC0 DUP9 ADD CALLDATALOAD PUSH8 0xFFFFFFFFFFFFFFFF DUP2 GT ISZERO PUSH2 0x2D8A JUMPI PUSH1 0x0 DUP1 REVERT JUMPDEST PUSH2 0x2D96 DUP11 DUP3 DUP12 ADD PUSH2 0x2B40 JUMP JUMPDEST SWAP2 POP POP SWAP3 SWAP6 SWAP9 SWAP2 SWAP5 SWAP8 POP SWAP3 SWAP6 POP JUMP JUMPDEST PUSH1 0x0 PUSH1 0x20 DUP3 DUP5 SUB SLT ISZERO PUSH2 0x2DB7 JUMPI PUSH1 0x0 DUP1 REVERT JUMPDEST PUSH1 0x0 PUSH2 0x2DC5 DUP5 DUP3 DUP6 ADD PUSH2 0x2B6A JUMP JUMPDEST SWAP2 POP POP SWAP3 SWAP2 POP POP JUMP JUMPDEST PUSH1 0x0 PUSH2 0x2DDA DUP4 DUP4 PUSH2 0x302A JUMP JUMPDEST SWAP1 POP SWAP3 SWAP2 POP POP JUMP JUMPDEST PUSH1 0x0 PUSH2 0x2DEE DUP4 DUP4 PUSH2 0x30B5 JUMP JUMPDEST SWAP1 POP SWAP3 SWAP2 POP POP JUMP JUMPDEST PUSH1 0x0 PUSH2 0x2E02 DUP4 DUP4 PUSH2 0x3118 JUMP JUMPDEST SWAP1 POP SWAP3 SWAP2 POP POP JUMP JUMPDEST PUSH1 0x0 PUSH2 0x2E15 DUP3 PUSH2 0x3476 JUMP JUMPDEST PUSH2 0x2E1F DUP2 DUP6 PUSH2 0x34C9 JUMP JUMPDEST SWAP4 POP DUP4 PUSH1 0x20 DUP3 MUL DUP6 ADD PUSH2 0x2E31 DUP6 PUSH2 0x3446 JUMP JUMPDEST DUP1 PUSH1 0x0 JUMPDEST DUP6 DUP2 LT ISZERO PUSH2 0x2E6D JUMPI DUP5 DUP5 SUB DUP10 MSTORE DUP2 MLOAD PUSH2 0x2E4E DUP6 DUP3 PUSH2 0x2DCE JUMP JUMPDEST SWAP5 POP PUSH2 0x2E59 DUP4 PUSH2 0x34A2 JUMP JUMPDEST SWAP3 POP PUSH1 0x20 DUP11 ADD SWAP10 POP POP PUSH1 0x1 DUP2 ADD SWAP1 POP PUSH2 0x2E35 JUMP JUMPDEST POP DUP3 SWAP8 POP DUP8 SWAP6 POP POP POP POP POP POP SWAP3 SWAP2 POP POP JUMP JUMPDEST PUSH1 0x0 PUSH2 0x2E8A DUP3 PUSH2 0x3481 JUMP JUMPDEST PUSH2 0x2E94 DUP2 DUP6 PUSH2 0x34DA JUMP JUMPDEST SWAP4 POP DUP4 PUSH1 0x20 DUP3 MUL DUP6 ADD PUSH2 0x2EA6 DUP6 PUSH2 0x3456 JUMP JUMPDEST DUP1 PUSH1 0x0 JUMPDEST DUP6 DUP2 LT ISZERO PUSH2 0x2EE2 JUMPI DUP5 DUP5 SUB DUP10 MSTORE DUP2 MLOAD PUSH2 0x2EC3 DUP6 DUP3 PUSH2 0x2DE2 JUMP JUMPDEST SWAP5 POP PUSH2 0x2ECE DUP4 PUSH2 0x34AF JUMP JUMPDEST SWAP3 POP PUSH1 0x20 DUP11 ADD SWAP10 POP POP PUSH1 0x1 DUP2 ADD SWAP1 POP PUSH2 0x2EAA JUMP JUMPDEST POP DUP3 SWAP8 POP DUP8 SWAP6 POP POP POP POP POP POP SWAP3 SWAP2 POP POP JUMP JUMPDEST PUSH1 0x0 PUSH2 0x2EFF DUP3 PUSH2 0x348C JUMP JUMPDEST PUSH2 0x2F09 DUP2 DUP6 PUSH2 0x34EB JUMP JUMPDEST SWAP4 POP DUP4 PUSH1 0x20 DUP3 MUL DUP6 ADD PUSH2 0x2F1B DUP6 PUSH2 0x3466 JUMP JUMPDEST DUP1 PUSH1 0x0 JUMPDEST DUP6 DUP2 LT ISZERO PUSH2 0x2F57 JUMPI DUP5 DUP5 SUB DUP10 MSTORE DUP2 MLOAD PUSH2 0x2F38 DUP6 DUP3 PUSH2 0x2DF6 JUMP JUMPDEST SWAP5 POP PUSH2 0x2F43 DUP4 PUSH2 0x34BC JUMP JUMPDEST SWAP3 POP PUSH1 0x20 DUP11 ADD SWAP10 POP POP PUSH1 0x1 DUP2 ADD SWAP1 POP PUSH2 0x2F1F JUMP JUMPDEST POP DUP3 SWAP8 POP DUP8 SWAP6 POP POP POP POP POP POP SWAP3 SWAP2 POP POP JUMP JUMPDEST PUSH2 0x2F72 DUP2 PUSH2 0x357F JUMP JUMPDEST DUP3 MSTORE POP POP JUMP JUMPDEST PUSH2 0x2F81 DUP2 PUSH2 0x357F JUMP JUMPDEST DUP3 MSTORE POP POP JUMP JUMPDEST PUSH1 0x0 PUSH2 0x2F92 DUP3 PUSH2 0x3497 JUMP JUMPDEST PUSH2 0x2F9C DUP2 DUP6 PUSH2 0x34FC JUMP JUMPDEST SWAP4 POP PUSH2 0x2FAC DUP2 DUP6 PUSH1 0x20 DUP7 ADD PUSH2 0x35A4 JUMP JUMPDEST PUSH2 0x2FB5 DUP2 PUSH2 0x3710 JUMP JUMPDEST DUP5 ADD SWAP2 POP POP SWAP3 SWAP2 POP POP JUMP JUMPDEST PUSH1 0x0 PUSH2 0x2FCB DUP3 PUSH2 0x3497 JUMP JUMPDEST PUSH2 0x2FD5 DUP2 DUP6 PUSH2 0x350D JUMP JUMPDEST SWAP4 POP PUSH2 0x2FE5 DUP2 DUP6 PUSH1 0x20 DUP7 ADD PUSH2 0x35A4 JUMP JUMPDEST PUSH2 0x2FEE DUP2 PUSH2 0x3710 JUMP JUMPDEST DUP5 ADD SWAP2 POP POP SWAP3 SWAP2 POP POP JUMP JUMPDEST PUSH1 0x0 PUSH2 0x3004 DUP3 PUSH2 0x3497 JUMP JUMPDEST PUSH2 0x300E DUP2 DUP6 PUSH2 0x351E JUMP JUMPDEST SWAP4 POP PUSH2 0x301E DUP2 DUP6 PUSH1 0x20 DUP7 ADD PUSH2 0x35A4 JUMP JUMPDEST DUP1 DUP5 ADD SWAP2 POP POP SWAP3 SWAP2 POP POP JUMP JUMPDEST PUSH1 0x0 PUSH1 0xA0 DUP4 ADD PUSH1 0x0 DUP4 ADD MLOAD DUP5 DUP3 SUB PUSH1 0x0 DUP7 ADD MSTORE PUSH2 0x3047 DUP3 DUP3 PUSH2 0x2F87 JUMP JUMPDEST SWAP2 POP POP PUSH1 0x20 DUP4 ADD MLOAD DUP5 DUP3 SUB PUSH1 0x20 DUP7 ADD MSTORE PUSH2 0x3061 DUP3 DUP3 PUSH2 0x2F87 JUMP JUMPDEST SWAP2 POP POP PUSH1 0x40 DUP4 ADD MLOAD DUP5 DUP3 SUB PUSH1 0x40 DUP7 ADD MSTORE PUSH2 0x307B DUP3 DUP3 PUSH2 0x2F87 JUMP JUMPDEST SWAP2 POP POP PUSH1 0x60 DUP4 ADD MLOAD DUP5 DUP3 SUB PUSH1 0x60 DUP7 ADD MSTORE PUSH2 0x3095 DUP3 DUP3 PUSH2 0x2F87 JUMP JUMPDEST SWAP2 POP POP PUSH1 0x80 DUP4 ADD MLOAD PUSH2 0x30AA PUSH1 0x80 DUP7 ADD DUP3 PUSH2 0x31E4 JUMP JUMPDEST POP DUP1 SWAP2 POP POP SWAP3 SWAP2 POP POP JUMP JUMPDEST PUSH1 0x0 PUSH1 0x80 DUP4 ADD PUSH1 0x0 DUP4 ADD MLOAD PUSH2 0x30CD PUSH1 0x0 DUP7 ADD DUP3 PUSH2 0x31E4 JUMP JUMPDEST POP PUSH1 0x20 DUP4 ADD MLOAD DUP5 DUP3 SUB PUSH1 0x20 DUP7 ADD MSTORE PUSH2 0x30E5 DUP3 DUP3 PUSH2 0x2F87 JUMP JUMPDEST SWAP2 POP POP PUSH1 0x40 DUP4 ADD MLOAD PUSH2 0x30FA PUSH1 0x40 DUP7 ADD DUP3 PUSH2 0x31E4 JUMP JUMPDEST POP PUSH1 0x60 DUP4 ADD MLOAD PUSH2 0x310D PUSH1 0x60 DUP7 ADD DUP3 PUSH2 0x2F69 JUMP JUMPDEST POP DUP1 SWAP2 POP POP SWAP3 SWAP2 POP POP JUMP JUMPDEST PUSH1 0x0 PUSH2 0x120 DUP4 ADD PUSH1 0x0 DUP4 ADD MLOAD PUSH2 0x3131 PUSH1 0x0 DUP7 ADD DUP3 PUSH2 0x31E4 JUMP JUMPDEST POP PUSH1 0x20 DUP4 ADD MLOAD DUP5 DUP3 SUB PUSH1 0x20 DUP7 ADD MSTORE PUSH2 0x3149 DUP3 DUP3 PUSH2 0x2F87 JUMP JUMPDEST SWAP2 POP POP PUSH1 0x40 DUP4 ADD MLOAD PUSH2 0x315E PUSH1 0x40 DUP7 ADD DUP3 PUSH2 0x31E4 JUMP JUMPDEST POP PUSH1 0x60 DUP4 ADD MLOAD PUSH2 0x3171 PUSH1 0x60 DUP7 ADD DUP3 PUSH2 0x31E4 JUMP JUMPDEST POP PUSH1 0x80 DUP4 ADD MLOAD PUSH2 0x3184 PUSH1 0x80 DUP7 ADD DUP3 PUSH2 0x31E4 JUMP JUMPDEST POP PUSH1 0xA0 DUP4 ADD MLOAD PUSH2 0x3197 PUSH1 0xA0 DUP7 ADD DUP3 PUSH2 0x2F69 JUMP JUMPDEST POP PUSH1 0xC0 DUP4 ADD MLOAD PUSH2 0x31AA PUSH1 0xC0 DUP7 ADD DUP3 PUSH2 0x31E4 JUMP JUMPDEST POP PUSH1 0xE0 DUP4 ADD MLOAD PUSH2 0x31BD PUSH1 0xE0 DUP7 ADD DUP3 PUSH2 0x31E4 JUMP JUMPDEST POP PUSH2 0x100 DUP4 ADD MLOAD DUP5 DUP3 SUB PUSH2 0x100 DUP7 ADD MSTORE PUSH2 0x31D7 DUP3 DUP3 PUSH2 0x2F87 JUMP JUMPDEST SWAP2 POP POP DUP1 SWAP2 POP POP SWAP3 SWAP2 POP POP JUMP JUMPDEST PUSH2 0x31ED DUP2 PUSH2 0x358B JUMP JUMPDEST DUP3 MSTORE POP POP JUMP JUMPDEST PUSH2 0x31FC DUP2 PUSH2 0x358B JUMP JUMPDEST DUP3 MSTORE POP POP JUMP JUMPDEST PUSH1 0x0 PUSH2 0x320E DUP3 DUP5 PUSH2 0x2FF9 JUMP JUMPDEST SWAP2 POP DUP2 SWAP1 POP SWAP3 SWAP2 POP POP JUMP JUMPDEST PUSH1 0x0 PUSH1 0x20 DUP3 ADD SWAP1 POP DUP2 DUP2 SUB PUSH1 0x0 DUP4 ADD MSTORE PUSH2 0x3233 DUP2 DUP5 PUSH2 0x2E0A JUMP JUMPDEST SWAP1 POP SWAP3 SWAP2 POP POP JUMP JUMPDEST PUSH1 0x0 PUSH1 0x20 DUP3 ADD SWAP1 POP DUP2 DUP2 SUB PUSH1 0x0 DUP4 ADD MSTORE PUSH2 0x3255 DUP2 DUP5 PUSH2 0x2E7F JUMP JUMPDEST SWAP1 POP SWAP3 SWAP2 POP POP JUMP JUMPDEST PUSH1 0x0 PUSH1 0x20 DUP3 ADD SWAP1 POP DUP2 DUP2 SUB PUSH1 0x0 DUP4 ADD MSTORE PUSH2 0x3277 DUP2 DUP5 PUSH2 0x2EF4 JUMP JUMPDEST SWAP1 POP SWAP3 SWAP2 POP POP JUMP JUMPDEST PUSH1 0x0 PUSH1 0xA0 DUP3 ADD SWAP1 POP DUP2 DUP2 SUB PUSH1 0x0 DUP4 ADD MSTORE PUSH2 0x3299 DUP2 DUP9 PUSH2 0x2FC0 JUMP JUMPDEST SWAP1 POP DUP2 DUP2 SUB PUSH1 0x20 DUP4 ADD MSTORE PUSH2 0x32AD DUP2 DUP8 PUSH2 0x2FC0 JUMP JUMPDEST SWAP1 POP DUP2 DUP2 SUB PUSH1 0x40 DUP4 ADD MSTORE PUSH2 0x32C1 DUP2 DUP7 PUSH2 0x2FC0 JUMP JUMPDEST SWAP1 POP DUP2 DUP2 SUB PUSH1 0x60 DUP4 ADD MSTORE PUSH2 0x32D5 DUP2 DUP6 PUSH2 0x2FC0 JUMP JUMPDEST SWAP1 POP PUSH2 0x32E4 PUSH1 0x80 DUP4 ADD DUP5 PUSH2 0x31F3 JUMP JUMPDEST SWAP7 SWAP6 POP POP POP POP POP POP JUMP JUMPDEST PUSH1 0x0 PUSH1 0x20 DUP3 ADD SWAP1 POP PUSH2 0x3303 PUSH1 0x0 DUP4 ADD DUP5 PUSH2 0x31F3 JUMP JUMPDEST SWAP3 SWAP2 POP POP JUMP JUMPDEST PUSH1 0x0 PUSH1 0x80 DUP3 ADD SWAP1 POP PUSH2 0x331E PUSH1 0x0 DUP4 ADD DUP8 PUSH2 0x31F3 JUMP JUMPDEST DUP2 DUP2 SUB PUSH1 0x20 DUP4 ADD MSTORE PUSH2 0x3330 DUP2 DUP7 PUSH2 0x2FC0 JUMP JUMPDEST SWAP1 POP PUSH2 0x333F PUSH1 0x40 DUP4 ADD DUP6 PUSH2 0x31F3 JUMP JUMPDEST PUSH2 0x334C PUSH1 0x60 DUP4 ADD DUP5 PUSH2 0x2F78 JUMP JUMPDEST SWAP6 SWAP5 POP POP POP POP POP JUMP JUMPDEST PUSH1 0x0 PUSH2 0x120 DUP3 ADD SWAP1 POP PUSH2 0x336B PUSH1 0x0 DUP4 ADD DUP13 PUSH2 0x31F3 JUMP JUMPDEST DUP2 DUP2 SUB PUSH1 0x20 DUP4 ADD MSTORE PUSH2 0x337D DUP2 DUP12 PUSH2 0x2FC0 JUMP JUMPDEST SWAP1 POP PUSH2 0x338C PUSH1 0x40 DUP4 ADD DUP11 PUSH2 0x31F3 JUMP JUMPDEST PUSH2 0x3399 PUSH1 0x60 DUP4 ADD DUP10 PUSH2 0x31F3 JUMP JUMPDEST PUSH2 0x33A6 PUSH1 0x80 DUP4 ADD DUP9 PUSH2 0x31F3 JUMP JUMPDEST PUSH2 0x33B3 PUSH1 0xA0 DUP4 ADD DUP8 PUSH2 0x2F78 JUMP JUMPDEST PUSH2 0x33C0 PUSH1 0xC0 DUP4 ADD DUP7 PUSH2 0x31F3 JUMP JUMPDEST PUSH2 0x33CD PUSH1 0xE0 DUP4 ADD DUP6 PUSH2 0x31F3 JUMP JUMPDEST DUP2 DUP2 SUB PUSH2 0x100 DUP4 ADD MSTORE PUSH2 0x33E0 DUP2 DUP5 PUSH2 0x2FC0 JUMP JUMPDEST SWAP1 POP SWAP11 SWAP10 POP POP POP POP POP POP POP POP POP POP JUMP JUMPDEST PUSH1 0x0 PUSH2 0x33FA PUSH2 0x340B JUMP JUMPDEST SWAP1 POP PUSH2 0x3406 DUP3 DUP3 PUSH2 0x3609 JUMP JUMPDEST SWAP2 SWAP1 POP JUMP JUMPDEST PUSH1 0x0 PUSH1 0x40 MLOAD SWAP1 POP SWAP1 JUMP JUMPDEST PUSH1 0x0 PUSH8 0xFFFFFFFFFFFFFFFF DUP3 GT ISZERO PUSH2 0x3430 JUMPI PUSH2 0x342F PUSH2 0x36E1 JUMP JUMPDEST JUMPDEST PUSH2 0x3439 DUP3 PUSH2 0x3710 JUMP JUMPDEST SWAP1 POP PUSH1 0x20 DUP2 ADD SWAP1 POP SWAP2 SWAP1 POP JUMP JUMPDEST PUSH1 0x0 DUP2 SWAP1 POP PUSH1 0x20 DUP3 ADD SWAP1 POP SWAP2 SWAP1 POP JUMP JUMPDEST PUSH1 0x0 DUP2 SWAP1 POP PUSH1 0x20 DUP3 ADD SWAP1 POP SWAP2 SWAP1 POP JUMP JUMPDEST PUSH1 0x0 DUP2 SWAP1 POP PUSH1 0x20 DUP3 ADD SWAP1 POP SWAP2 SWAP1 POP JUMP JUMPDEST PUSH1 0x0 DUP2 MLOAD SWAP1 POP SWAP2 SWAP1 POP JUMP JUMPDEST PUSH1 0x0 DUP2 MLOAD SWAP1 POP SWAP2 SWAP1 POP JUMP JUMPDEST PUSH1 0x0 DUP2 MLOAD SWAP1 POP SWAP2 SWAP1 POP JUMP JUMPDEST PUSH1 0x0 DUP2 MLOAD SWAP1 POP SWAP2 SWAP1 POP JUMP JUMPDEST PUSH1 0x0 PUSH1 0x20 DUP3 ADD SWAP1 POP SWAP2 SWAP1 POP JUMP JUMPDEST PUSH1 0x0 PUSH1 0x20 DUP3 ADD SWAP1 POP SWAP2 SWAP1 POP JUMP JUMPDEST PUSH1 0x0 PUSH1 0x20 DUP3 ADD SWAP1 POP SWAP2 SWAP1 POP JUMP JUMPDEST PUSH1 0x0 DUP3 DUP3 MSTORE PUSH1 0x20 DUP3 ADD SWAP1 POP SWAP3 SWAP2 POP POP JUMP JUMPDEST PUSH1 0x0 DUP3 DUP3 MSTORE PUSH1 0x20 DUP3 ADD SWAP1 POP SWAP3 SWAP2 POP POP JUMP JUMPDEST PUSH1 0x0 DUP3 DUP3 MSTORE PUSH1 0x20 DUP3 ADD SWAP1 POP SWAP3 SWAP2 POP POP JUMP JUMPDEST PUSH1 0x0 DUP3 DUP3 MSTORE PUSH1 0x20 DUP3 ADD SWAP1 POP SWAP3 SWAP2 POP POP JUMP JUMPDEST PUSH1 0x0 DUP3 DUP3 MSTORE PUSH1 0x20 DUP3 ADD SWAP1 POP SWAP3 SWAP2 POP POP JUMP JUMPDEST PUSH1 0x0 DUP2 SWAP1 POP SWAP3 SWAP2 POP POP JUMP JUMPDEST PUSH1 0x0 PUSH2 0x3534 DUP3 PUSH2 0x358B JUMP JUMPDEST SWAP2 POP PUSH2 0x353F DUP4 PUSH2 0x358B JUMP JUMPDEST SWAP3 POP DUP3 PUSH32 0xFFFFFFFFFFFFFFFFFFFFFFFFFFFFFFFFFFFFFFFFFFFFFFFFFFFFFFFFFFFFFFFF SUB DUP3 GT ISZERO PUSH2 0x3574 JUMPI PUSH2 0x3573 PUSH2 0x3683 JUMP JUMPDEST JUMPDEST DUP3 DUP3 ADD SWAP1 POP SWAP3 SWAP2 POP POP JUMP JUMPDEST PUSH1 0x0 DUP2 ISZERO ISZERO SWAP1 POP SWAP2 SWAP1 POP JUMP JUMPDEST PUSH1 0x0 DUP2 SWAP1 POP SWAP2 SWAP1 POP JUMP JUMPDEST DUP3 DUP2 DUP4 CALLDATACOPY PUSH1 0x0 DUP4 DUP4 ADD MSTORE POP POP POP JUMP JUMPDEST PUSH1 0x0 JUMPDEST DUP4 DUP2 LT ISZERO PUSH2 0x35C2 JUMPI DUP1 DUP3 ADD MLOAD DUP2 DUP5 ADD MSTORE PUSH1 0x20 DUP2 ADD SWAP1 POP PUSH2 0x35A7 JUMP JUMPDEST DUP4 DUP2 GT ISZERO PUSH2 0x35D1 JUMPI PUSH1 0x0 DUP5 DUP5 ADD MSTORE JUMPDEST POP POP POP POP JUMP JUMPDEST PUSH1 0x0 PUSH1 0x2 DUP3 DIV SWAP1 POP PUSH1 0x1 DUP3 AND DUP1 PUSH2 0x35EF JUMPI PUSH1 0x7F DUP3 AND SWAP2 POP JUMPDEST PUSH1 0x20 DUP3 LT DUP2 EQ ISZERO PUSH2 0x3603 JUMPI PUSH2 0x3602 PUSH2 0x36B2 JUMP JUMPDEST JUMPDEST POP SWAP2 SWAP1 POP JUMP JUMPDEST PUSH2 0x3612 DUP3 PUSH2 0x3710 JUMP JUMPDEST DUP2 ADD DUP2 DUP2 LT PUSH8 0xFFFFFFFFFFFFFFFF DUP3 GT OR ISZERO PUSH2 0x3631 JUMPI PUSH2 0x3630 PUSH2 0x36E1 JUMP JUMPDEST JUMPDEST DUP1 PUSH1 0x40 MSTORE POP POP POP JUMP JUMPDEST PUSH1 0x0 PUSH2 0x3645 DUP3 PUSH2 0x358B JUMP JUMPDEST SWAP2 POP PUSH32 0xFFFFFFFFFFFFFFFFFFFFFFFFFFFFFFFFFFFFFFFFFFFFFFFFFFFFFFFFFFFFFFFF DUP3 EQ ISZERO PUSH2 0x3678 JUMPI PUSH2 0x3677 PUSH2 0x3683 JUMP JUMPDEST JUMPDEST PUSH1 0x1 DUP3 ADD SWAP1 POP SWAP2 SWAP1 POP JUMP JUMPDEST PUSH32 0x4E487B7100000000000000000000000000000000000000000000000000000000 PUSH1 0x0 MSTORE PUSH1 0x11 PUSH1 0x4 MSTORE PUSH1 0x24 PUSH1 0x0 REVERT JUMPDEST PUSH32 0x4E487B7100000000000000000000000000000000000000000000000000000000 PUSH1 0x0 MSTORE PUSH1 0x22 PUSH1 0x4 MSTORE PUSH1 0x24 PUSH1 0x0 REVERT JUMPDEST PUSH32 0x4E487B7100000000000000000000000000000000000000000000000000000000 PUSH1 0x0 MSTORE PUSH1 0x41 PUSH1 0x4 MSTORE PUSH1 0x24 PUSH1 0x0 REVERT JUMPDEST PUSH1 0x0 PUSH1 0x1F NOT PUSH1 0x1F DUP4 ADD AND SWAP1 POP SWAP2 SWAP1 POP JUMP JUMPDEST PUSH2 0x372A DUP2 PUSH2 0x358B JUMP JUMPDEST DUP2 EQ PUSH2 0x3735 JUMPI PUSH1 0x0 DUP1 REVERT JUMPDEST POP JUMP INVALID LOG2 PUSH5 0x6970667358 0x22 SLT KECCAK256 PUSH22 0x4DE4DF7B8941956506359E8D66290922818200BE6230 DUP14 EXTCODESIZE 0x5E 0xB5 SWAP13 DUP6 0xD6 0x4E EXTCODECOPY PUSH5 0x736F6C6343 STOP ADDMOD ADD STOP CALLER "},"methodIdentifiers":{"add_farmer(string,string,string,string)":"283bcdbb","add_trade(string,uint256,uint256,uint256,uint256,uint256,string)":"c27f3ea3","all_loans(uint256)":"f1d1a19b","all_order_volumes(string,uint256)":"628f4068","aqis(string,uint256)":"11d9bb42","avg_order_size(string,uint256)":"73a433f8","balances(string)":"2afd97a4","change_number(string)":"f562782c","farmer_loans(string,uint256)":"4f4f10ef","farmer_trades(string,uint256)":"f69cfc80","farmers(string)":"5cda3172","farmers_list(uint256)":"159af658","get_all_farmers()":"e10587c1","get_all_loans()":"1ff1df34","get_all_trades()":"81a063f3","get_balance(string)":"65a9b4a0","get_farmer_loans(string)":"544b4ac4","get_farmer_trades(string)":"65481cda","give_loan(string,uint256)":"33de5d52","mark_loan_as_paid(uint256)":"957dae9d","ratings(string,uint256)":"bbb59036","remove_trade(uint256)":"bf818c75","trades(uint256)":"1e6c598e"}}}}}