{
  "_format": "hh-sol-artifact-1",
  "contractName": "Box",
  "sourceName": "contracts/Box.sol",
  "abi": [
    {
      "inputs": [
        {
          "internalType": "string",
          "name": "name",
          "type": "string"
        },
        {
          "internalType": "string",
          "name": "id",
          "type": "string"
        },
        {
          "internalType": "string",
          "name": "number",
          "type": "string"
        },
        {
          "internalType": "string",
          "name": "region",
          "type": "string"
        }
      ],
      "name": "add_farmer",
      "outputs": [],
      "stateMutability": "nonpayable",
      "type": "function"
    },
    {
      "inputs": [
        {
          "internalType": "string",
          "name": "id",
          "type": "string"
        }
      ],
      "name": "change_number",
      "outputs": [],
      "stateMutability": "nonpayable",
      "type": "function"
    },
    {
      "inputs": [
        {
          "internalType": "string",
          "name": "",
          "type": "string"
        }
      ],
      "name": "farmers",
      "outputs": [
        {
          "internalType": "string",
          "name": "name",
          "type": "string"
        },
        {
          "internalType": "string",
          "name": "id",
          "type": "string"
        },
        {
          "internalType": "string",
          "name": "number",
          "type": "string"
        },
        {
          "internalType": "string",
          "name": "region",
          "type": "string"
        },
        {
          "internalType": "uint256",
          "name": "index",
          "type": "uint256"
        }
      ],
      "stateMutability": "view",
      "type": "function"
    },
    {
      "inputs": [
        {
          "internalType": "uint256",
          "name": "",
          "type": "uint256"
        }
      ],
      "name": "farmers_list",
      "outputs": [
        {
          "internalType": "string",
          "name": "name",
          "type": "string"
        },
        {
          "internalType": "string",
          "name": "id",
          "type": "string"
        },
        {
          "internalType": "string",
          "name": "number",
          "type": "string"
        },
        {
          "internalType": "string",
          "name": "region",
          "type": "string"
        },
        {
          "internalType": "uint256",
          "name": "index",
          "type": "uint256"
        }
      ],
      "stateMutability": "view",
      "type": "function"
    },
    {
      "inputs": [],
      "name": "get_farmers",
      "outputs": [
        {
          "components": [
            {
              "internalType": "string",
              "name": "name",
              "type": "string"
            },
            {
              "internalType": "string",
              "name": "id",
              "type": "string"
            },
            {
              "internalType": "string",
              "name": "number",
              "type": "string"
            },
            {
              "internalType": "string",
              "name": "region",
              "type": "string"
            },
            {
              "internalType": "uint256",
              "name": "index",
              "type": "uint256"
            }
          ],
          "internalType": "struct Box.Farmer[]",
          "name": "",
          "type": "tuple[]"
        }
      ],
      "stateMutability": "view",
      "type": "function"
    }
  ],
  "bytecode": "0x608060405234801561001057600080fd5b506112dc806100206000396000f3fe608060405234801561001057600080fd5b50600436106100575760003560e01c8063159af6581461005c5780631b91831814610090578063283bcdbb146100ae5780635cda3172146100ca578063f562782c146100fe575b600080fd5b61007660048036038101906100719190610d7f565b61011a565b604051610087959493929190610fb6565b60405180910390f35b610098610380565b6040516100a59190610f94565b60405180910390f35b6100c860048036038101906100c39190610cbc565b610631565b005b6100e460048036038101906100df9190610c7b565b6107cb565b6040516100f5959493929190610fb6565b60405180910390f35b61011860048036038101906101139190610c7b565b610a37565b005b6001818154811061012a57600080fd5b906000526020600020906005020160009150905080600001805461014d9061118e565b80601f01602080910402602001604051908101604052809291908181526020018280546101799061118e565b80156101c65780601f1061019b576101008083540402835291602001916101c6565b820191906000526020600020905b8154815290600101906020018083116101a957829003601f168201915b5050505050908060010180546101db9061118e565b80601f01602080910402602001604051908101604052809291908181526020018280546102079061118e565b80156102545780601f1061022957610100808354040283529160200191610254565b820191906000526020600020905b81548152906001019060200180831161023757829003601f168201915b5050505050908060020180546102699061118e565b80601f01602080910402602001604051908101604052809291908181526020018280546102959061118e565b80156102e25780601f106102b7576101008083540402835291602001916102e2565b820191906000526020600020905b8154815290600101906020018083116102c557829003601f168201915b5050505050908060030180546102f79061118e565b80601f01602080910402602001604051908101604052809291908181526020018280546103239061118e565b80156103705780601f1061034557610100808354040283529160200191610370565b820191906000526020600020905b81548152906001019060200180831161035357829003601f168201915b5050505050908060040154905085565b60606001805480602002602001604051908101604052809291908181526020016000905b8282101561062857838290600052602060002090600502016040518060a00160405290816000820180546103d79061118e565b80601f01602080910402602001604051908101604052809291908181526020018280546104039061118e565b80156104505780601f1061042557610100808354040283529160200191610450565b820191906000526020600020905b81548152906001019060200180831161043357829003601f168201915b505050505081526020016001820180546104699061118e565b80601f01602080910402602001604051908101604052809291908181526020018280546104959061118e565b80156104e25780601f106104b7576101008083540402835291602001916104e2565b820191906000526020600020905b8154815290600101906020018083116104c557829003601f168201915b505050505081526020016002820180546104fb9061118e565b80601f01602080910402602001604051908101604052809291908181526020018280546105279061118e565b80156105745780601f1061054957610100808354040283529160200191610574565b820191906000526020600020905b81548152906001019060200180831161055757829003601f168201915b5050505050815260200160038201805461058d9061118e565b80601f01602080910402602001604051908101604052809291908181526020018280546105b99061118e565b80156106065780601f106105db57610100808354040283529160200191610606565b820191906000526020600020905b8154815290600101906020018083116105e957829003601f168201915b50505050508152602001600482015481525050815260200190600101906103a4565b50505050905090565b60006040518060a0016040528086815260200185815260200184815260200183815260200160025481525090508060008560405161066f9190610f7d565b90815260200160405180910390206000820151816000019080519060200190610699929190610b5b565b5060208201518160010190805190602001906106b6929190610b5b565b5060408201518160020190805190602001906106d3929190610b5b565b5060608201518160030190805190602001906106f0929190610b5b565b506080820151816004015590505060018190806001815401808255809150506001900390600052602060002090600502016000909190919091506000820151816000019080519060200190610746929190610b5b565b506020820151816001019080519060200190610763929190610b5b565b506040820151816002019080519060200190610780929190610b5b565b50606082015181600301908051906020019061079d929190610b5b565b506080820151816004015550506001600260008282546107bd91906110ec565b925050819055505050505050565b6000818051602081018201805184825260208301602085012081835280955050505050506000915090508060000180546108049061118e565b80601f01602080910402602001604051908101604052809291908181526020018280546108309061118e565b801561087d5780601f106108525761010080835404028352916020019161087d565b820191906000526020600020905b81548152906001019060200180831161086057829003601f168201915b5050505050908060010180546108929061118e565b80601f01602080910402602001604051908101604052809291908181526020018280546108be9061118e565b801561090b5780601f106108e05761010080835404028352916020019161090b565b820191906000526020600020905b8154815290600101906020018083116108ee57829003601f168201915b5050505050908060020180546109209061118e565b80601f016020809104026020016040519081016040528092919081815260200182805461094c9061118e565b80156109995780601f1061096e57610100808354040283529160200191610999565b820191906000526020600020905b81548152906001019060200180831161097c57829003601f168201915b5050505050908060030180546109ae9061118e565b80601f01602080910402602001604051908101604052809291908181526020018280546109da9061118e565b8015610a275780601f106109fc57610100808354040283529160200191610a27565b820191906000526020600020905b815481529060010190602001808311610a0a57829003601f168201915b5050505050908060040154905085565b6040518060400160405280600581526020017f48656c6c6f000000000000000000000000000000000000000000000000000000815250600082604051610a7d9190610f7d565b90815260200160405180910390206002019080519060200190610aa1929190610b5b565b506040518060400160405280600581526020017f48656c6c6f0000000000000000000000000000000000000000000000000000008152506001600083604051610aea9190610f7d565b90815260200160405180910390206004015481548110610b33577f4e487b7100000000000000000000000000000000000000000000000000000000600052603260045260246000fd5b90600052602060002090600502016002019080519060200190610b57929190610b5b565b5050565b828054610b679061118e565b90600052602060002090601f016020900481019282610b895760008555610bd0565b82601f10610ba257805160ff1916838001178555610bd0565b82800160010185558215610bd0579182015b82811115610bcf578251825591602001919060010190610bb4565b5b509050610bdd9190610be1565b5090565b5b80821115610bfa576000816000905550600101610be2565b5090565b6000610c11610c0c8461104a565b611025565b905082815260208101848484011115610c2957600080fd5b610c3484828561114c565b509392505050565b600082601f830112610c4d57600080fd5b8135610c5d848260208601610bfe565b91505092915050565b600081359050610c758161128f565b92915050565b600060208284031215610c8d57600080fd5b600082013567ffffffffffffffff811115610ca757600080fd5b610cb384828501610c3c565b91505092915050565b60008060008060808587031215610cd257600080fd5b600085013567ffffffffffffffff811115610cec57600080fd5b610cf887828801610c3c565b945050602085013567ffffffffffffffff811115610d1557600080fd5b610d2187828801610c3c565b935050604085013567ffffffffffffffff811115610d3e57600080fd5b610d4a87828801610c3c565b925050606085013567ffffffffffffffff811115610d6757600080fd5b610d7387828801610c3c565b91505092959194509250565b600060208284031215610d9157600080fd5b6000610d9f84828501610c66565b91505092915050565b6000610db48383610ed4565b905092915050565b6000610dc78261108b565b610dd181856110ae565b935083602082028501610de38561107b565b8060005b85811015610e1f5784840389528151610e008582610da8565b9450610e0b836110a1565b925060208a01995050600181019050610de7565b50829750879550505050505092915050565b6000610e3c82611096565b610e4681856110bf565b9350610e5681856020860161115b565b610e5f8161127e565b840191505092915050565b6000610e7582611096565b610e7f81856110d0565b9350610e8f81856020860161115b565b610e988161127e565b840191505092915050565b6000610eae82611096565b610eb881856110e1565b9350610ec881856020860161115b565b80840191505092915050565b600060a0830160008301518482036000860152610ef18282610e31565b91505060208301518482036020860152610f0b8282610e31565b91505060408301518482036040860152610f258282610e31565b91505060608301518482036060860152610f3f8282610e31565b9150506080830151610f546080860182610f5f565b508091505092915050565b610f6881611142565b82525050565b610f7781611142565b82525050565b6000610f898284610ea3565b915081905092915050565b60006020820190508181036000830152610fae8184610dbc565b905092915050565b600060a0820190508181036000830152610fd08188610e6a565b90508181036020830152610fe48187610e6a565b90508181036040830152610ff88186610e6a565b9050818103606083015261100c8185610e6a565b905061101b6080830184610f6e565b9695505050505050565b600061102f611040565b905061103b82826111c0565b919050565b6000604051905090565b600067ffffffffffffffff8211156110655761106461124f565b5b61106e8261127e565b9050602081019050919050565b6000819050602082019050919050565b600081519050919050565b600081519050919050565b6000602082019050919050565b600082825260208201905092915050565b600082825260208201905092915050565b600082825260208201905092915050565b600081905092915050565b60006110f782611142565b915061110283611142565b9250827fffffffffffffffffffffffffffffffffffffffffffffffffffffffffffffffff03821115611137576111366111f1565b5b828201905092915050565b6000819050919050565b82818337600083830152505050565b60005b8381101561117957808201518184015260208101905061115e565b83811115611188576000848401525b50505050565b600060028204905060018216806111a657607f821691505b602082108114156111ba576111b9611220565b5b50919050565b6111c98261127e565b810181811067ffffffffffffffff821117156111e8576111e761124f565b5b80604052505050565b7f4e487b7100000000000000000000000000000000000000000000000000000000600052601160045260246000fd5b7f4e487b7100000000000000000000000000000000000000000000000000000000600052602260045260246000fd5b7f4e487b7100000000000000000000000000000000000000000000000000000000600052604160045260246000fd5b6000601f19601f8301169050919050565b61129881611142565b81146112a357600080fd5b5056fea26469706673582212208fa57970aafbc497f8e45de92bb4598cf83869694001bbb8f27662392dae978564736f6c63430008010033",
  "linkReferences": {},
  "deployedLinkReferences": {}
}