{
  "_format": "hh-sol-artifact-1",
  "contractName": "Box",
  "sourceName": "contracts/Box.sol",
  "abi": [
    {
      "inputs": [
        {
          "internalType": "string",
          "name": "name",
          "type": "string"
        },
        {
          "internalType": "string",
          "name": "farmer_id",
          "type": "string"
        },
        {
          "internalType": "string",
          "name": "number",
          "type": "string"
        },
        {
          "internalType": "string",
          "name": "region",
          "type": "string"
        }
      ],
      "name": "add_farmer",
      "outputs": [],
      "stateMutability": "nonpayable",
      "type": "function"
    },
    {
      "inputs": [
        {
          "internalType": "string",
          "name": "farmer_id",
          "type": "string"
        },
        {
          "internalType": "uint256",
          "name": "rating",
          "type": "uint256"
        }
      ],
      "name": "add_rating",
      "outputs": [],
      "stateMutability": "nonpayable",
      "type": "function"
    },
    {
      "inputs": [
        {
          "internalType": "string",
          "name": "farmer_id",
          "type": "string"
        },
        {
          "internalType": "uint256",
          "name": "weight",
          "type": "uint256"
        },
        {
          "internalType": "uint256",
          "name": "hardness",
          "type": "uint256"
        },
        {
          "internalType": "uint256",
          "name": "size",
          "type": "uint256"
        },
        {
          "internalType": "uint256",
          "name": "quantity",
          "type": "uint256"
        },
        {
          "internalType": "uint256",
          "name": "quality_index",
          "type": "uint256"
        },
        {
          "internalType": "string",
          "name": "produce",
          "type": "string"
        },
        {
          "internalType": "uint256",
          "name": "price",
          "type": "uint256"
        }
      ],
      "name": "add_trade",
      "outputs": [],
      "stateMutability": "nonpayable",
      "type": "function"
    },
    {
      "inputs": [
        {
          "internalType": "uint256",
          "name": "",
          "type": "uint256"
        }
      ],
      "name": "all_loans",
      "outputs": [
        {
          "internalType": "uint256",
          "name": "loan_index",
          "type": "uint256"
        },
        {
          "internalType": "string",
          "name": "farmer_id",
          "type": "string"
        },
        {
          "internalType": "uint256",
          "name": "amount",
          "type": "uint256"
        },
        {
          "internalType": "bool",
          "name": "paid",
          "type": "bool"
        },
        {
          "internalType": "string",
          "name": "giver",
          "type": "string"
        }
      ],
      "stateMutability": "view",
      "type": "function"
    },
    {
      "inputs": [
        {
          "internalType": "string",
          "name": "",
          "type": "string"
        },
        {
          "internalType": "uint256",
          "name": "",
          "type": "uint256"
        }
      ],
      "name": "all_order_volumes",
      "outputs": [
        {
          "internalType": "uint256",
          "name": "",
          "type": "uint256"
        }
      ],
      "stateMutability": "view",
      "type": "function"
    },
    {
      "inputs": [
        {
          "internalType": "string",
          "name": "farmer_id",
          "type": "string"
        },
        {
          "internalType": "uint256",
          "name": "amount",
          "type": "uint256"
        }
      ],
      "name": "apply_for_loan",
      "outputs": [],
      "stateMutability": "nonpayable",
      "type": "function"
    },
    {
      "inputs": [
        {
          "internalType": "string",
          "name": "",
          "type": "string"
        },
        {
          "internalType": "uint256",
          "name": "",
          "type": "uint256"
        }
      ],
      "name": "aqis",
      "outputs": [
        {
          "internalType": "uint256",
          "name": "",
          "type": "uint256"
        }
      ],
      "stateMutability": "view",
      "type": "function"
    },
    {
      "inputs": [
        {
          "internalType": "string",
          "name": "",
          "type": "string"
        }
      ],
      "name": "balances",
      "outputs": [
        {
          "internalType": "uint256",
          "name": "",
          "type": "uint256"
        }
      ],
      "stateMutability": "view",
      "type": "function"
    },
    {
      "inputs": [
        {
          "internalType": "uint256",
          "name": "request_id",
          "type": "uint256"
        }
      ],
      "name": "disapprove_loan",
      "outputs": [],
      "stateMutability": "nonpayable",
      "type": "function"
    },
    {
      "inputs": [
        {
          "internalType": "string",
          "name": "",
          "type": "string"
        },
        {
          "internalType": "uint256",
          "name": "",
          "type": "uint256"
        }
      ],
      "name": "farmer_loans",
      "outputs": [
        {
          "internalType": "uint256",
          "name": "loan_index",
          "type": "uint256"
        },
        {
          "internalType": "string",
          "name": "farmer_id",
          "type": "string"
        },
        {
          "internalType": "uint256",
          "name": "amount",
          "type": "uint256"
        },
        {
          "internalType": "bool",
          "name": "paid",
          "type": "bool"
        },
        {
          "internalType": "string",
          "name": "giver",
          "type": "string"
        }
      ],
      "stateMutability": "view",
      "type": "function"
    },
    {
      "inputs": [
        {
          "internalType": "string",
          "name": "",
          "type": "string"
        },
        {
          "internalType": "uint256",
          "name": "",
          "type": "uint256"
        }
      ],
      "name": "farmer_trades",
      "outputs": [
        {
          "internalType": "uint256",
          "name": "id",
          "type": "uint256"
        },
        {
          "internalType": "string",
          "name": "farmer_id",
          "type": "string"
        },
        {
          "internalType": "uint256",
          "name": "weight",
          "type": "uint256"
        },
        {
          "internalType": "uint256",
          "name": "hardness",
          "type": "uint256"
        },
        {
          "internalType": "uint256",
          "name": "size",
          "type": "uint256"
        },
        {
          "internalType": "bool",
          "name": "open",
          "type": "bool"
        },
        {
          "internalType": "uint256",
          "name": "quantity",
          "type": "uint256"
        },
        {
          "internalType": "uint256",
          "name": "quality_index",
          "type": "uint256"
        },
        {
          "internalType": "string",
          "name": "produce",
          "type": "string"
        },
        {
          "internalType": "uint256",
          "name": "price",
          "type": "uint256"
        }
      ],
      "stateMutability": "view",
      "type": "function"
    },
    {
      "inputs": [
        {
          "internalType": "string",
          "name": "",
          "type": "string"
        }
      ],
      "name": "farmers",
      "outputs": [
        {
          "internalType": "string",
          "name": "name",
          "type": "string"
        },
        {
          "internalType": "string",
          "name": "farmer_id",
          "type": "string"
        },
        {
          "internalType": "string",
          "name": "number",
          "type": "string"
        },
        {
          "internalType": "string",
          "name": "region",
          "type": "string"
        },
        {
          "internalType": "uint256",
          "name": "index",
          "type": "uint256"
        }
      ],
      "stateMutability": "view",
      "type": "function"
    },
    {
      "inputs": [
        {
          "internalType": "uint256",
          "name": "",
          "type": "uint256"
        }
      ],
      "name": "farmers_list",
      "outputs": [
        {
          "internalType": "string",
          "name": "name",
          "type": "string"
        },
        {
          "internalType": "string",
          "name": "farmer_id",
          "type": "string"
        },
        {
          "internalType": "string",
          "name": "number",
          "type": "string"
        },
        {
          "internalType": "string",
          "name": "region",
          "type": "string"
        },
        {
          "internalType": "uint256",
          "name": "index",
          "type": "uint256"
        }
      ],
      "stateMutability": "view",
      "type": "function"
    },
    {
      "inputs": [],
      "name": "get_all_farmers",
      "outputs": [
        {
          "components": [
            {
              "internalType": "string",
              "name": "name",
              "type": "string"
            },
            {
              "internalType": "string",
              "name": "farmer_id",
              "type": "string"
            },
            {
              "internalType": "string",
              "name": "number",
              "type": "string"
            },
            {
              "internalType": "string",
              "name": "region",
              "type": "string"
            },
            {
              "internalType": "uint256",
              "name": "index",
              "type": "uint256"
            }
          ],
          "internalType": "struct Box.Farmer[]",
          "name": "",
          "type": "tuple[]"
        }
      ],
      "stateMutability": "view",
      "type": "function"
    },
    {
      "inputs": [],
      "name": "get_all_trades",
      "outputs": [
        {
          "components": [
            {
              "internalType": "uint256",
              "name": "id",
              "type": "uint256"
            },
            {
              "internalType": "string",
              "name": "farmer_id",
              "type": "string"
            },
            {
              "internalType": "uint256",
              "name": "weight",
              "type": "uint256"
            },
            {
              "internalType": "uint256",
              "name": "hardness",
              "type": "uint256"
            },
            {
              "internalType": "uint256",
              "name": "size",
              "type": "uint256"
            },
            {
              "internalType": "bool",
              "name": "open",
              "type": "bool"
            },
            {
              "internalType": "uint256",
              "name": "quantity",
              "type": "uint256"
            },
            {
              "internalType": "uint256",
              "name": "quality_index",
              "type": "uint256"
            },
            {
              "internalType": "string",
              "name": "produce",
              "type": "string"
            },
            {
              "internalType": "uint256",
              "name": "price",
              "type": "uint256"
            }
          ],
          "internalType": "struct Box.Trade[]",
          "name": "",
          "type": "tuple[]"
        }
      ],
      "stateMutability": "view",
      "type": "function"
    },
    {
      "inputs": [
        {
          "internalType": "string",
          "name": "farmer_id",
          "type": "string"
        }
      ],
      "name": "get_balance",
      "outputs": [
        {
          "internalType": "uint256",
          "name": "",
          "type": "uint256"
        }
      ],
      "stateMutability": "view",
      "type": "function"
    },
    {
      "inputs": [
        {
          "internalType": "string",
          "name": "farmer_id",
          "type": "string"
        }
      ],
      "name": "get_farmer",
      "outputs": [
        {
          "components": [
            {
              "internalType": "string",
              "name": "name",
              "type": "string"
            },
            {
              "internalType": "string",
              "name": "farmer_id",
              "type": "string"
            },
            {
              "internalType": "string",
              "name": "number",
              "type": "string"
            },
            {
              "internalType": "string",
              "name": "region",
              "type": "string"
            },
            {
              "internalType": "uint256",
              "name": "index",
              "type": "uint256"
            },
            {
              "internalType": "uint256[]",
              "name": "aqis",
              "type": "uint256[]"
            },
            {
              "internalType": "uint256[]",
              "name": "order_sizes",
              "type": "uint256[]"
            },
            {
              "internalType": "uint256[]",
              "name": "order_volumes",
              "type": "uint256[]"
            },
            {
              "internalType": "uint256[]",
              "name": "ratings",
              "type": "uint256[]"
            },
            {
              "components": [
                {
                  "internalType": "uint256",
                  "name": "id",
                  "type": "uint256"
                },
                {
                  "internalType": "string",
                  "name": "farmer_id",
                  "type": "string"
                },
                {
                  "internalType": "uint256",
                  "name": "weight",
                  "type": "uint256"
                },
                {
                  "internalType": "uint256",
                  "name": "hardness",
                  "type": "uint256"
                },
                {
                  "internalType": "uint256",
                  "name": "size",
                  "type": "uint256"
                },
                {
                  "internalType": "bool",
                  "name": "open",
                  "type": "bool"
                },
                {
                  "internalType": "uint256",
                  "name": "quantity",
                  "type": "uint256"
                },
                {
                  "internalType": "uint256",
                  "name": "quality_index",
                  "type": "uint256"
                },
                {
                  "internalType": "string",
                  "name": "produce",
                  "type": "string"
                },
                {
                  "internalType": "uint256",
                  "name": "price",
                  "type": "uint256"
                }
              ],
              "internalType": "struct Box.Trade[]",
              "name": "trades",
              "type": "tuple[]"
            },
            {
              "components": [
                {
                  "internalType": "uint256",
                  "name": "loan_index",
                  "type": "uint256"
                },
                {
                  "internalType": "string",
                  "name": "farmer_id",
                  "type": "string"
                },
                {
                  "internalType": "uint256",
                  "name": "amount",
                  "type": "uint256"
                },
                {
                  "internalType": "bool",
                  "name": "paid",
                  "type": "bool"
                },
                {
                  "internalType": "string",
                  "name": "giver",
                  "type": "string"
                }
              ],
              "internalType": "struct Box.Loan[]",
              "name": "loans",
              "type": "tuple[]"
            }
          ],
          "internalType": "struct Box.Farmer_Stat",
          "name": "",
          "type": "tuple"
        }
      ],
      "stateMutability": "view",
      "type": "function"
    },
    {
      "inputs": [
        {
          "internalType": "string",
          "name": "farmer_id",
          "type": "string"
        }
      ],
      "name": "get_farmer_loans",
      "outputs": [
        {
          "components": [
            {
              "internalType": "uint256",
              "name": "loan_index",
              "type": "uint256"
            },
            {
              "internalType": "string",
              "name": "farmer_id",
              "type": "string"
            },
            {
              "internalType": "uint256",
              "name": "amount",
              "type": "uint256"
            },
            {
              "internalType": "bool",
              "name": "paid",
              "type": "bool"
            },
            {
              "internalType": "string",
              "name": "giver",
              "type": "string"
            }
          ],
          "internalType": "struct Box.Loan[]",
          "name": "",
          "type": "tuple[]"
        }
      ],
      "stateMutability": "view",
      "type": "function"
    },
    {
      "inputs": [
        {
          "internalType": "string",
          "name": "farmer_id",
          "type": "string"
        }
      ],
      "name": "get_farmer_trades",
      "outputs": [
        {
          "components": [
            {
              "internalType": "uint256",
              "name": "id",
              "type": "uint256"
            },
            {
              "internalType": "string",
              "name": "farmer_id",
              "type": "string"
            },
            {
              "internalType": "uint256",
              "name": "weight",
              "type": "uint256"
            },
            {
              "internalType": "uint256",
              "name": "hardness",
              "type": "uint256"
            },
            {
              "internalType": "uint256",
              "name": "size",
              "type": "uint256"
            },
            {
              "internalType": "bool",
              "name": "open",
              "type": "bool"
            },
            {
              "internalType": "uint256",
              "name": "quantity",
              "type": "uint256"
            },
            {
              "internalType": "uint256",
              "name": "quality_index",
              "type": "uint256"
            },
            {
              "internalType": "string",
              "name": "produce",
              "type": "string"
            },
            {
              "internalType": "uint256",
              "name": "price",
              "type": "uint256"
            }
          ],
          "internalType": "struct Box.Trade[]",
          "name": "",
          "type": "tuple[]"
        }
      ],
      "stateMutability": "view",
      "type": "function"
    },
    {
      "inputs": [
        {
          "internalType": "uint256",
          "name": "id",
          "type": "uint256"
        }
      ],
      "name": "get_loan",
      "outputs": [
        {
          "components": [
            {
              "internalType": "uint256",
              "name": "loan_index",
              "type": "uint256"
            },
            {
              "internalType": "string",
              "name": "farmer_id",
              "type": "string"
            },
            {
              "internalType": "uint256",
              "name": "amount",
              "type": "uint256"
            },
            {
              "internalType": "bool",
              "name": "paid",
              "type": "bool"
            },
            {
              "internalType": "string",
              "name": "giver",
              "type": "string"
            }
          ],
          "internalType": "struct Box.Loan",
          "name": "",
          "type": "tuple"
        }
      ],
      "stateMutability": "view",
      "type": "function"
    },
    {
      "inputs": [],
      "name": "get_loan_count",
      "outputs": [
        {
          "internalType": "uint256",
          "name": "",
          "type": "uint256"
        }
      ],
      "stateMutability": "view",
      "type": "function"
    },
    {
      "inputs": [
        {
          "internalType": "uint256",
          "name": "id",
          "type": "uint256"
        }
      ],
      "name": "get_loan_request",
      "outputs": [
        {
          "components": [
            {
              "internalType": "uint256",
              "name": "loan_index",
              "type": "uint256"
            },
            {
              "internalType": "string",
              "name": "farmer_id",
              "type": "string"
            },
            {
              "internalType": "uint256",
              "name": "amount",
              "type": "uint256"
            },
            {
              "internalType": "bool",
              "name": "disapproved",
              "type": "bool"
            },
            {
              "internalType": "bool",
              "name": "approved",
              "type": "bool"
            }
          ],
          "internalType": "struct Box.Loan_Request",
          "name": "",
          "type": "tuple"
        }
      ],
      "stateMutability": "view",
      "type": "function"
    },
    {
      "inputs": [
        {
          "internalType": "uint256",
          "name": "id",
          "type": "uint256"
        }
      ],
      "name": "get_trade",
      "outputs": [
        {
          "components": [
            {
              "internalType": "uint256",
              "name": "id",
              "type": "uint256"
            },
            {
              "internalType": "string",
              "name": "farmer_id",
              "type": "string"
            },
            {
              "internalType": "uint256",
              "name": "weight",
              "type": "uint256"
            },
            {
              "internalType": "uint256",
              "name": "hardness",
              "type": "uint256"
            },
            {
              "internalType": "uint256",
              "name": "size",
              "type": "uint256"
            },
            {
              "internalType": "bool",
              "name": "open",
              "type": "bool"
            },
            {
              "internalType": "uint256",
              "name": "quantity",
              "type": "uint256"
            },
            {
              "internalType": "uint256",
              "name": "quality_index",
              "type": "uint256"
            },
            {
              "internalType": "string",
              "name": "produce",
              "type": "string"
            },
            {
              "internalType": "uint256",
              "name": "price",
              "type": "uint256"
            }
          ],
          "internalType": "struct Box.Trade",
          "name": "",
          "type": "tuple"
        }
      ],
      "stateMutability": "view",
      "type": "function"
    },
    {
      "inputs": [
        {
          "internalType": "uint256",
          "name": "request_id",
          "type": "uint256"
        },
        {
          "internalType": "string",
          "name": "giver",
          "type": "string"
        }
      ],
      "name": "give_loan",
      "outputs": [],
      "stateMutability": "nonpayable",
      "type": "function"
    },
    {
      "inputs": [],
      "name": "give_loan_requests",
      "outputs": [
        {
          "components": [
            {
              "internalType": "uint256",
              "name": "loan_index",
              "type": "uint256"
            },
            {
              "internalType": "string",
              "name": "farmer_id",
              "type": "string"
            },
            {
              "internalType": "uint256",
              "name": "amount",
              "type": "uint256"
            },
            {
              "internalType": "bool",
              "name": "disapproved",
              "type": "bool"
            },
            {
              "internalType": "bool",
              "name": "approved",
              "type": "bool"
            }
          ],
          "internalType": "struct Box.Loan_Request[]",
          "name": "",
          "type": "tuple[]"
        }
      ],
      "stateMutability": "view",
      "type": "function"
    },
    {
      "inputs": [
        {
          "internalType": "uint256",
          "name": "",
          "type": "uint256"
        }
      ],
      "name": "loan_requests",
      "outputs": [
        {
          "internalType": "uint256",
          "name": "loan_index",
          "type": "uint256"
        },
        {
          "internalType": "string",
          "name": "farmer_id",
          "type": "string"
        },
        {
          "internalType": "uint256",
          "name": "amount",
          "type": "uint256"
        },
        {
          "internalType": "bool",
          "name": "disapproved",
          "type": "bool"
        },
        {
          "internalType": "bool",
          "name": "approved",
          "type": "bool"
        }
      ],
      "stateMutability": "view",
      "type": "function"
    },
    {
      "inputs": [
        {
          "internalType": "uint256",
          "name": "loan_index",
          "type": "uint256"
        }
      ],
      "name": "mark_loan_as_paid",
      "outputs": [],
      "stateMutability": "nonpayable",
      "type": "function"
    },
    {
      "inputs": [
        {
          "internalType": "string",
          "name": "",
          "type": "string"
        },
        {
          "internalType": "uint256",
          "name": "",
          "type": "uint256"
        }
      ],
      "name": "order_sizes",
      "outputs": [
        {
          "internalType": "uint256",
          "name": "",
          "type": "uint256"
        }
      ],
      "stateMutability": "view",
      "type": "function"
    },
    {
      "inputs": [
        {
          "internalType": "string",
          "name": "",
          "type": "string"
        },
        {
          "internalType": "uint256",
          "name": "",
          "type": "uint256"
        }
      ],
      "name": "ratings",
      "outputs": [
        {
          "internalType": "uint256",
          "name": "",
          "type": "uint256"
        }
      ],
      "stateMutability": "view",
      "type": "function"
    },
    {
      "inputs": [
        {
          "internalType": "uint256",
          "name": "trade_id",
          "type": "uint256"
        },
        {
          "internalType": "string",
          "name": "payer",
          "type": "string"
        }
      ],
      "name": "remove_trade",
      "outputs": [],
      "stateMutability": "nonpayable",
      "type": "function"
    },
    {
      "inputs": [
        {
          "internalType": "string",
          "name": "farmer_id",
          "type": "string"
        }
      ],
      "name": "set_balance",
      "outputs": [],
      "stateMutability": "nonpayable",
      "type": "function"
    },
    {
      "inputs": [
        {
          "internalType": "uint256",
          "name": "",
          "type": "uint256"
        }
      ],
      "name": "trades",
      "outputs": [
        {
          "internalType": "uint256",
          "name": "id",
          "type": "uint256"
        },
        {
          "internalType": "string",
          "name": "farmer_id",
          "type": "string"
        },
        {
          "internalType": "uint256",
          "name": "weight",
          "type": "uint256"
        },
        {
          "internalType": "uint256",
          "name": "hardness",
          "type": "uint256"
        },
        {
          "internalType": "uint256",
          "name": "size",
          "type": "uint256"
        },
        {
          "internalType": "bool",
          "name": "open",
          "type": "bool"
        },
        {
          "internalType": "uint256",
          "name": "quantity",
          "type": "uint256"
        },
        {
          "internalType": "uint256",
          "name": "quality_index",
          "type": "uint256"
        },
        {
          "internalType": "string",
          "name": "produce",
          "type": "string"
        },
        {
          "internalType": "uint256",
          "name": "price",
          "type": "uint256"
        }
      ],
      "stateMutability": "view",
      "type": "function"
    }
  ],
  "bytecode": "0x608060405234801561001057600080fd5b50615f1d80620000216000396000f3fe608060405234801561001057600080fd5b50600436106101f05760003560e01c806377bfdee31161010f578063bbb59036116100a2578063d6f4e4dc11610071578063d6f4e4dc14610676578063e10587c114610694578063f1d1a19b146106b2578063f69cfc80146106e6576101f0565b8063bbb59036146105de578063c2377cbf1461060e578063c2e4e1081461062a578063ceb6922014610646576101f0565b8063957dae9d116100de578063957dae9d146105465780639691297414610562578063a86b53d314610592578063bb62bd2e146105c2576101f0565b806377bfdee3146104ac5780637c8929e1146104dc57806381a063f3146104f85780638e483a9d14610516576101f0565b80633fa97bea116101875780635e4b5716116101565780635e4b5716146103e8578063628f40681461041c57806365481cda1461044c57806365a9b4a01461047c576101f0565b80633fa97bea146103345780634f4f10ef14610350578063544b4ac4146103845780635cda3172146103b4576101f0565b8063159af658116101c3578063159af6581461027b5780631e6c598e146102af578063283bcdbb146102e85780632afd97a414610304576101f0565b8063042c92d7146101f5578063047adf3f14610211578063111257271461022d57806311d9bb421461024b575b600080fd5b61020f600480360381019061020a9190614bea565b61071f565b005b61022b60048036038101906102269190614c13565b610819565b005b610235610c1c565b6040516102429190615857565b60405180910390f35b61026560048036038101906102609190614ab4565b610c26565b6040516102729190615857565b60405180910390f35b61029560048036038101906102909190614bea565b610c6d565b6040516102a6959493929190615760565b60405180910390f35b6102c960048036038101906102c49190614bea565b610ed3565b6040516102df9a9998979695949392919061592d565b60405180910390f35b61030260048036038101906102fd91906149f1565b611054565b005b61031e600480360381019061031991906149b0565b61123a565b60405161032b9190615857565b60405180910390f35b61034e60048036038101906103499190614ab4565b611268565b005b61036a60048036038101906103659190614ab4565b6112b1565b60405161037b9594939291906158cc565b60405180910390f35b61039e600480360381019061039991906149b0565b611437565b6040516103ab91906156fa565b60405180910390f35b6103ce60048036038101906103c991906149b0565b611607565b6040516103df959493929190615760565b60405180910390f35b61040260048036038101906103fd9190614bea565b611873565b604051610413959493929190615872565b60405180910390f35b61043660048036038101906104319190614ab4565b61195b565b6040516104439190615857565b60405180910390f35b610466600480360381019061046191906149b0565b6119a2565b604051610473919061573e565b60405180910390f35b610496600480360381019061049191906149b0565b611ba5565b6040516104a39190615857565b60405180910390f35b6104c660048036038101906104c19190614bea565b611bcd565b6040516104d39190615813565b60405180910390f35b6104f660048036038101906104f191906149b0565b611d0b565b005b610500611d69565b60405161050d919061573e565b60405180910390f35b610530600480360381019061052b9190614bea565b611f4e565b60405161053d91906157f1565b60405180910390f35b610560600480360381019061055b9190614bea565b612103565b005b61057c60048036038101906105779190614bea565b612895565b6040516105899190615835565b60405180910390f35b6105ac60048036038101906105a79190614ab4565b612a7d565b6040516105b99190615857565b60405180910390f35b6105dc60048036038101906105d79190614ab4565b612ac4565b005b6105f860048036038101906105f39190614ab4565b612bb7565b6040516106059190615857565b60405180910390f35b61062860048036038101906106239190614b08565b612bfe565b005b610644600480360381019061063f9190614c13565b612e73565b005b610660600480360381019061065b91906149b0565b6136c1565b60405161066d91906157cf565b60405180910390f35b61067e613f38565b60405161068b919061571c565b60405180910390f35b61069c614073565b6040516106a991906156d8565b60405180910390f35b6106cc60048036038101906106c79190614bea565b614324565b6040516106dd9594939291906158cc565b60405180910390f35b61070060048036038101906106fb9190614ab4565b614487565b6040516107169a9998979695949392919061592d565b60405180910390f35b6001600e828154811061075b577f4e487b7100000000000000000000000000000000000000000000000000000000600052603260045260246000fd5b906000526020600020906004020160030160006101000a81548160ff021916908315150217905550600e81815481106107bd577f4e487b7100000000000000000000000000000000000000000000000000000000600052603260045260246000fd5b90600052602060002090600402016000808201600090556001820160006107e4919061473d565b60028201600090556003820160006101000a81549060ff02191690556003820160016101000a81549060ff0219169055505050565b61082161477d565b600e838154811061085b577f4e487b7100000000000000000000000000000000000000000000000000000000600052603260045260246000fd5b90600052602060002090600402016040518060a00160405290816000820154815260200160018201805461088e90615d26565b80601f01602080910402602001604051908101604052809291908181526020018280546108ba90615d26565b80156109075780601f106108dc57610100808354040283529160200191610907565b820191906000526020600020905b8154815290600101906020018083116108ea57829003601f168201915b50505050508152602001600282015481526020016003820160009054906101000a900460ff161515151581526020016003820160019054906101000a900460ff1615151515815250509050600a8260405161096291906156aa565b90815260200160405180910390205481604001511115801561098c57506000151581606001511515145b15610c17576001600e84815481106109cd577f4e487b7100000000000000000000000000000000000000000000000000000000600052603260045260246000fd5b906000526020600020906004020160030160016101000a81548160ff0219169083151502179055508060400151600a8260200151604051610a0e91906156aa565b90815260200160405180910390206000828254610a2b9190615bb9565b925050819055508060400151600a83604051610a4791906156aa565b90815260200160405180910390206000828254610a649190615c9a565b9250508190555060006040518060a00160405280600d5481526020018360200151815260200183604001518152602001600015158152602001848152509050600b8260200151604051610ab791906156aa565b9081526020016040518091039020819080600181540180825580915050600190039060005260206000209060050201600090919091909150600082015181600001556020820151816001019080519060200190610b159291906147b0565b506040820151816002015560608201518160030160006101000a81548160ff0219169083151502179055506080820151816004019080519060200190610b5c9291906147b0565b505050600c819080600181540180825580915050600190039060005260206000209060050201600090919091909150600082015181600001556020820151816001019080519060200190610bb19291906147b0565b506040820151816002015560608201518160030160006101000a81548160ff0219169083151502179055506080820151816004019080519060200190610bf89291906147b0565b5050506001600d6000828254610c0e9190615bb9565b92505081905550505b505050565b6000600d54905090565b6006828051602081018201805184825260208301602085012081835280955050505050508181548110610c5857600080fd5b90600052602060002001600091509150505481565b60018181548110610c7d57600080fd5b9060005260206000209060050201600091509050806000018054610ca090615d26565b80601f0160208091040260200160405190810160405280929190818152602001828054610ccc90615d26565b8015610d195780601f10610cee57610100808354040283529160200191610d19565b820191906000526020600020905b815481529060010190602001808311610cfc57829003601f168201915b505050505090806001018054610d2e90615d26565b80601f0160208091040260200160405190810160405280929190818152602001828054610d5a90615d26565b8015610da75780601f10610d7c57610100808354040283529160200191610da7565b820191906000526020600020905b815481529060010190602001808311610d8a57829003601f168201915b505050505090806002018054610dbc90615d26565b80601f0160208091040260200160405190810160405280929190818152602001828054610de890615d26565b8015610e355780601f10610e0a57610100808354040283529160200191610e35565b820191906000526020600020905b815481529060010190602001808311610e1857829003601f168201915b505050505090806003018054610e4a90615d26565b80601f0160208091040260200160405190810160405280929190818152602001828054610e7690615d26565b8015610ec35780601f10610e9857610100808354040283529160200191610ec3565b820191906000526020600020905b815481529060010190602001808311610ea657829003601f168201915b5050505050908060040154905085565b60048181548110610ee357600080fd5b90600052602060002090600a0201600091509050806000015490806001018054610f0c90615d26565b80601f0160208091040260200160405190810160405280929190818152602001828054610f3890615d26565b8015610f855780601f10610f5a57610100808354040283529160200191610f85565b820191906000526020600020905b815481529060010190602001808311610f6857829003601f168201915b5050505050908060020154908060030154908060040154908060050160009054906101000a900460ff1690806006015490806007015490806008018054610fcb90615d26565b80601f0160208091040260200160405190810160405280929190818152602001828054610ff790615d26565b80156110445780601f1061101957610100808354040283529160200191611044565b820191906000526020600020905b81548152906001019060200180831161102757829003601f168201915b505050505090806009015490508a565b6000600a8460405161106691906156aa565b90815260200160405180910390205414156112345760006040518060a001604052808681526020018581526020018481526020018381526020016002548152509050806000856040516110b991906156aa565b908152602001604051809103902060008201518160000190805190602001906110e39291906147b0565b5060208201518160010190805190602001906111009291906147b0565b50604082015181600201908051906020019061111d9291906147b0565b50606082015181600301908051906020019061113a9291906147b0565b5060808201518160040155905050600181908060018154018082558091505060019003906000526020600020906005020160009091909190915060008201518160000190805190602001906111909291906147b0565b5060208201518160010190805190602001906111ad9291906147b0565b5060408201518160020190805190602001906111ca9291906147b0565b5060608201518160030190805190602001906111e79291906147b0565b506080820151816004015550506064600a8560405161120691906156aa565b90815260200160405180910390208190555060016002600082825461122b9190615bb9565b92505081905550505b50505050565b600a818051602081018201805184825260208301602085012081835280955050505050506000915090505481565b60098260405161127891906156aa565b90815260200160405180910390208190806001815401808255809150506001900390600052602060002001600090919091909150555050565b600b8280516020810182018051848252602083016020850120818352809550505050505081815481106112e357600080fd5b90600052602060002090600502016000915091505080600001549080600101805461130d90615d26565b80601f016020809104026020016040519081016040528092919081815260200182805461133990615d26565b80156113865780601f1061135b57610100808354040283529160200191611386565b820191906000526020600020905b81548152906001019060200180831161136957829003601f168201915b5050505050908060020154908060030160009054906101000a900460ff16908060040180546113b490615d26565b80601f01602080910402602001604051908101604052809291908181526020018280546113e090615d26565b801561142d5780601f106114025761010080835404028352916020019161142d565b820191906000526020600020905b81548152906001019060200180831161141057829003601f168201915b5050505050905085565b6060600b8260405161144991906156aa565b9081526020016040518091039020805480602002602001604051908101604052809291908181526020016000905b828210156115fc57838290600052602060002090600502016040518060a0016040529081600082015481526020016001820180546114b490615d26565b80601f01602080910402602001604051908101604052809291908181526020018280546114e090615d26565b801561152d5780601f106115025761010080835404028352916020019161152d565b820191906000526020600020905b81548152906001019060200180831161151057829003601f168201915b50505050508152602001600282015481526020016003820160009054906101000a900460ff1615151515815260200160048201805461156b90615d26565b80601f016020809104026020016040519081016040528092919081815260200182805461159790615d26565b80156115e45780601f106115b9576101008083540402835291602001916115e4565b820191906000526020600020905b8154815290600101906020018083116115c757829003601f168201915b50505050508152505081526020019060010190611477565b505050509050919050565b60008180516020810182018051848252602083016020850120818352809550505050505060009150905080600001805461164090615d26565b80601f016020809104026020016040519081016040528092919081815260200182805461166c90615d26565b80156116b95780601f1061168e576101008083540402835291602001916116b9565b820191906000526020600020905b81548152906001019060200180831161169c57829003601f168201915b5050505050908060010180546116ce90615d26565b80601f01602080910402602001604051908101604052809291908181526020018280546116fa90615d26565b80156117475780601f1061171c57610100808354040283529160200191611747565b820191906000526020600020905b81548152906001019060200180831161172a57829003601f168201915b50505050509080600201805461175c90615d26565b80601f016020809104026020016040519081016040528092919081815260200182805461178890615d26565b80156117d55780601f106117aa576101008083540402835291602001916117d5565b820191906000526020600020905b8154815290600101906020018083116117b857829003601f168201915b5050505050908060030180546117ea90615d26565b80601f016020809104026020016040519081016040528092919081815260200182805461181690615d26565b80156118635780601f1061183857610100808354040283529160200191611863565b820191906000526020600020905b81548152906001019060200180831161184657829003601f168201915b5050505050908060040154905085565b600e818154811061188357600080fd5b90600052602060002090600402016000915090508060000154908060010180546118ac90615d26565b80601f01602080910402602001604051908101604052809291908181526020018280546118d890615d26565b80156119255780601f106118fa57610100808354040283529160200191611925565b820191906000526020600020905b81548152906001019060200180831161190857829003601f168201915b5050505050908060020154908060030160009054906101000a900460ff16908060030160019054906101000a900460ff16905085565b600882805160208101820180518482526020830160208501208183528095505050505050818154811061198d57600080fd5b90600052602060002001600091509150505481565b60606003826040516119b491906156aa565b9081526020016040518091039020805480602002602001604051908101604052809291908181526020016000905b82821015611b9a57838290600052602060002090600a02016040518061014001604052908160008201548152602001600182018054611a2090615d26565b80601f0160208091040260200160405190810160405280929190818152602001828054611a4c90615d26565b8015611a995780601f10611a6e57610100808354040283529160200191611a99565b820191906000526020600020905b815481529060010190602001808311611a7c57829003601f168201915b505050505081526020016002820154815260200160038201548152602001600482015481526020016005820160009054906101000a900460ff161515151581526020016006820154815260200160078201548152602001600882018054611aff90615d26565b80601f0160208091040260200160405190810160405280929190818152602001828054611b2b90615d26565b8015611b785780601f10611b4d57610100808354040283529160200191611b78565b820191906000526020600020905b815481529060010190602001808311611b5b57829003601f168201915b50505050508152602001600982015481525050815260200190600101906119e2565b505050509050919050565b6000600a82604051611bb791906156aa565b9081526020016040518091039020549050919050565b611bd561477d565b600e8281548110611c0f577f4e487b7100000000000000000000000000000000000000000000000000000000600052603260045260246000fd5b90600052602060002090600402016040518060a001604052908160008201548152602001600182018054611c4290615d26565b80601f0160208091040260200160405190810160405280929190818152602001828054611c6e90615d26565b8015611cbb5780601f10611c9057610100808354040283529160200191611cbb565b820191906000526020600020905b815481529060010190602001808311611c9e57829003601f168201915b50505050508152602001600282015481526020016003820160009054906101000a900460ff161515151581526020016003820160019054906101000a900460ff1615151515815250509050919050565b6000600a82604051611d1d91906156aa565b9081526020016040518091039020819055506103e8600a82604051611d4291906156aa565b90815260200160405180910390206000828254611d5f9190615bb9565b9250508190555050565b60606004805480602002602001604051908101604052809291908181526020016000905b82821015611f4557838290600052602060002090600a02016040518061014001604052908160008201548152602001600182018054611dcb90615d26565b80601f0160208091040260200160405190810160405280929190818152602001828054611df790615d26565b8015611e445780601f10611e1957610100808354040283529160200191611e44565b820191906000526020600020905b815481529060010190602001808311611e2757829003601f168201915b505050505081526020016002820154815260200160038201548152602001600482015481526020016005820160009054906101000a900460ff161515151581526020016006820154815260200160078201548152602001600882018054611eaa90615d26565b80601f0160208091040260200160405190810160405280929190818152602001828054611ed690615d26565b8015611f235780601f10611ef857610100808354040283529160200191611f23565b820191906000526020600020905b815481529060010190602001808311611f0657829003601f168201915b5050505050815260200160098201548152505081526020019060010190611d8d565b50505050905090565b611f56614836565b600c8281548110611f90577f4e487b7100000000000000000000000000000000000000000000000000000000600052603260045260246000fd5b90600052602060002090600502016040518060a001604052908160008201548152602001600182018054611fc390615d26565b80601f0160208091040260200160405190810160405280929190818152602001828054611fef90615d26565b801561203c5780601f106120115761010080835404028352916020019161203c565b820191906000526020600020905b81548152906001019060200180831161201f57829003601f168201915b50505050508152602001600282015481526020016003820160009054906101000a900460ff1615151515815260200160048201805461207a90615d26565b80601f01602080910402602001604051908101604052809291908181526020018280546120a690615d26565b80156120f35780601f106120c8576101008083540402835291602001916120f3565b820191906000526020600020905b8154815290600101906020018083116120d657829003601f168201915b5050505050815250509050919050565b6000600c828154811061213f577f4e487b7100000000000000000000000000000000000000000000000000000000600052603260045260246000fd5b9060005260206000209060050201600101805461215b90615d26565b80601f016020809104026020016040519081016040528092919081815260200182805461218790615d26565b80156121d45780601f106121a9576101008083540402835291602001916121d4565b820191906000526020600020905b8154815290600101906020018083116121b757829003601f168201915b505050505090506000612552600b836040516121f091906156aa565b9081526020016040518091039020805480602002602001604051908101604052809291908181526020016000905b828210156123a357838290600052602060002090600502016040518060a00160405290816000820154815260200160018201805461225b90615d26565b80601f016020809104026020016040519081016040528092919081815260200182805461228790615d26565b80156122d45780601f106122a9576101008083540402835291602001916122d4565b820191906000526020600020905b8154815290600101906020018083116122b757829003601f168201915b50505050508152602001600282015481526020016003820160009054906101000a900460ff1615151515815260200160048201805461231290615d26565b80601f016020809104026020016040519081016040528092919081815260200182805461233e90615d26565b801561238b5780601f106123605761010080835404028352916020019161238b565b820191906000526020600020905b81548152906001019060200180831161236e57829003601f168201915b5050505050815250508152602001906001019061221e565b50505050600c85815481106123e1577f4e487b7100000000000000000000000000000000000000000000000000000000600052603260045260246000fd5b90600052602060002090600502016040518060a00160405290816000820154815260200160018201805461241490615d26565b80601f016020809104026020016040519081016040528092919081815260200182805461244090615d26565b801561248d5780601f106124625761010080835404028352916020019161248d565b820191906000526020600020905b81548152906001019060200180831161247057829003601f168201915b50505050508152602001600282015481526020016003820160009054906101000a900460ff161515151581526020016004820180546124cb90615d26565b80601f01602080910402602001604051908101604052809291908181526020018280546124f790615d26565b80156125445780601f1061251957610100808354040283529160200191612544565b820191906000526020600020905b81548152906001019060200180831161252757829003601f168201915b50505050508152505061462b565b9050600a600c8481548110612590577f4e487b7100000000000000000000000000000000000000000000000000000000600052603260045260246000fd5b9060005260206000209060050201600201546125ac9190615c0f565b600c84815481106125e6577f4e487b7100000000000000000000000000000000000000000000000000000000600052603260045260246000fd5b9060005260206000209060050201600201546126029190615bb9565b600a600c858154811061263e577f4e487b7100000000000000000000000000000000000000000000000000000000600052603260045260246000fd5b906000526020600020906005020160040160405161265c91906156c1565b908152602001604051809103902060008282546126799190615bb9565b92505081905550600a600c84815481106126bc577f4e487b7100000000000000000000000000000000000000000000000000000000600052603260045260246000fd5b9060005260206000209060050201600201546126d89190615c0f565b600c8481548110612712577f4e487b7100000000000000000000000000000000000000000000000000000000600052603260045260246000fd5b90600052602060002090600502016002015461272e9190615bb9565b600a600c858154811061276a577f4e487b7100000000000000000000000000000000000000000000000000000000600052603260045260246000fd5b906000526020600020906005020160010160405161278891906156c1565b908152602001604051809103902060008282546127a59190615c9a565b925050819055506001600b836040516127be91906156aa565b90815260200160405180910390208281548110612804577f4e487b7100000000000000000000000000000000000000000000000000000000600052603260045260246000fd5b906000526020600020906005020160030160006101000a81548160ff0219169083151502179055506001600c8481548110612868577f4e487b7100000000000000000000000000000000000000000000000000000000600052603260045260246000fd5b906000526020600020906005020160030160006101000a81548160ff021916908315150217905550505050565b61289d614867565b600482815481106128d7577f4e487b7100000000000000000000000000000000000000000000000000000000600052603260045260246000fd5b90600052602060002090600a0201604051806101400160405290816000820154815260200160018201805461290b90615d26565b80601f016020809104026020016040519081016040528092919081815260200182805461293790615d26565b80156129845780601f1061295957610100808354040283529160200191612984565b820191906000526020600020905b81548152906001019060200180831161296757829003601f168201915b505050505081526020016002820154815260200160038201548152602001600482015481526020016005820160009054906101000a900460ff1615151515815260200160068201548152602001600782015481526020016008820180546129ea90615d26565b80601f0160208091040260200160405190810160405280929190818152602001828054612a1690615d26565b8015612a635780601f10612a3857610100808354040283529160200191612a63565b820191906000526020600020905b815481529060010190602001808311612a4657829003601f168201915b505050505081526020016009820154815250509050919050565b6007828051602081018201805184825260208301602085012081835280955050505050508181548110612aaf57600080fd5b90600052602060002001600091509150505481565b6000600a82612ad39190615dd2565b148015612ae05750600081115b15612bb357600e6040518060a00160405280600f548152602001848152602001838152602001600015158152602001600015158152509080600181540180825580915050600190039060005260206000209060040201600090919091909150600082015181600001556020820151816001019080519060200190612b659291906147b0565b506040820151816002015560608201518160030160006101000a81548160ff02191690831515021790555060808201518160030160016101000a81548160ff02191690831515021790555050505b5050565b6009828051602081018201805184825260208301602085012081835280955050505050508181548110612be957600080fd5b90600052602060002001600091509150505481565b600060405180610140016040528060055481526020018a8152602001898152602001888152602001878152602001600115158152602001868152602001858152602001848152602001838152509050600389604051612c5d91906156aa565b90815260200160405180910390208190806001815401808255809150506001900390600052602060002090600a0201600090919091909150600082015181600001556020820151816001019080519060200190612cbb9291906147b0565b5060408201518160020155606082015181600301556080820151816004015560a08201518160050160006101000a81548160ff02191690831515021790555060c0820151816006015560e08201518160070155610100820151816008019080519060200190612d2b9291906147b0565b506101208201518160090155505060048190806001815401808255809150506001900390600052602060002090600a0201600090919091909150600082015181600001556020820151816001019080519060200190612d8b9291906147b0565b5060408201518160020155606082015181600301556080820151816004015560a08201518160050160006101000a81548160ff02191690831515021790555060c0820151816006015560e08201518160070155610100820151816008019080519060200190612dfb9291906147b0565b5061012082015181600901555050600160056000828254612e1c9190615bb9565b92505081905550600689604051612e3391906156aa565b9081526020016040518091039020849080600181540180825580915050600190039060005260206000200160009091909190915055505050505050505050565b600060048381548110612eaf577f4e487b7100000000000000000000000000000000000000000000000000000000600052603260045260246000fd5b90600052602060002090600a02016009015460048481548110612efb577f4e487b7100000000000000000000000000000000000000000000000000000000600052603260045260246000fd5b90600052602060002090600a020160060154612f179190615c40565b9050600a82604051612f2991906156aa565b90815260200160405180910390205481116136bc57600060048481548110612f7a577f4e487b7100000000000000000000000000000000000000000000000000000000600052603260045260246000fd5b90600052602060002090600a02016001018054612f9690615d26565b80601f0160208091040260200160405190810160405280929190818152602001828054612fc290615d26565b801561300f5780601f10612fe45761010080835404028352916020019161300f565b820191906000526020600020905b815481529060010190602001808311612ff257829003601f168201915b5050505050905060006133f360038360405161302b91906156aa565b9081526020016040518091039020805480602002602001604051908101604052809291908181526020016000905b8282101561321157838290600052602060002090600a0201604051806101400160405290816000820154815260200160018201805461309790615d26565b80601f01602080910402602001604051908101604052809291908181526020018280546130c390615d26565b80156131105780601f106130e557610100808354040283529160200191613110565b820191906000526020600020905b8154815290600101906020018083116130f357829003601f168201915b505050505081526020016002820154815260200160038201548152602001600482015481526020016005820160009054906101000a900460ff16151515158152602001600682015481526020016007820154815260200160088201805461317690615d26565b80601f01602080910402602001604051908101604052809291908181526020018280546131a290615d26565b80156131ef5780601f106131c4576101008083540402835291602001916131ef565b820191906000526020600020905b8154815290600101906020018083116131d257829003601f168201915b5050505050815260200160098201548152505081526020019060010190613059565b505050506004878154811061324f577f4e487b7100000000000000000000000000000000000000000000000000000000600052603260045260246000fd5b90600052602060002090600a0201604051806101400160405290816000820154815260200160018201805461328390615d26565b80601f01602080910402602001604051908101604052809291908181526020018280546132af90615d26565b80156132fc5780601f106132d1576101008083540402835291602001916132fc565b820191906000526020600020905b8154815290600101906020018083116132df57829003601f168201915b505050505081526020016002820154815260200160038201548152602001600482015481526020016005820160009054906101000a900460ff16151515158152602001600682015481526020016007820154815260200160088201805461336290615d26565b80601f016020809104026020016040519081016040528092919081815260200182805461338e90615d26565b80156133db5780601f106133b0576101008083540402835291602001916133db565b820191906000526020600020905b8154815290600101906020018083116133be57829003601f168201915b505050505081526020016009820154815250506146b4565b9050600060038360405161340791906156aa565b9081526020016040518091039020828154811061344d577f4e487b7100000000000000000000000000000000000000000000000000000000600052603260045260246000fd5b90600052602060002090600a020160050160006101000a81548160ff0219169083151502179055506000600486815481106134b1577f4e487b7100000000000000000000000000000000000000000000000000000000600052603260045260246000fd5b90600052602060002090600a020160050160006101000a81548160ff02191690831515021790555082600a856040516134ea91906156aa565b908152602001604051809103902060008282546135079190615c9a565b9250508190555082600a8360405161351f91906156aa565b9081526020016040518091039020600082825461353c9190615bb9565b9250508190555060078260405161355391906156aa565b90815260200160405180910390206004868154811061359b577f4e487b7100000000000000000000000000000000000000000000000000000000600052603260045260246000fd5b90600052602060002090600a02016006015490806001815401808255809150506001900390600052602060002001600090919091909150556008826040516135e391906156aa565b90815260200160405180910390206004868154811061362b577f4e487b7100000000000000000000000000000000000000000000000000000000600052603260045260246000fd5b90600052602060002090600a02016009015460048781548110613677577f4e487b7100000000000000000000000000000000000000000000000000000000600052603260045260246000fd5b90600052602060002090600a0201600601546136939190615c40565b908060018154018082558091505060019003906000526020600020016000909190919091505550505b505050565b6136c96148bc565b600080836040516136da91906156aa565b90815260200160405180910390206040518060a001604052908160008201805461370390615d26565b80601f016020809104026020016040519081016040528092919081815260200182805461372f90615d26565b801561377c5780601f106137515761010080835404028352916020019161377c565b820191906000526020600020905b81548152906001019060200180831161375f57829003601f168201915b5050505050815260200160018201805461379590615d26565b80601f01602080910402602001604051908101604052809291908181526020018280546137c190615d26565b801561380e5780601f106137e35761010080835404028352916020019161380e565b820191906000526020600020905b8154815290600101906020018083116137f157829003601f168201915b5050505050815260200160028201805461382790615d26565b80601f016020809104026020016040519081016040528092919081815260200182805461385390615d26565b80156138a05780601f10613875576101008083540402835291602001916138a0565b820191906000526020600020905b81548152906001019060200180831161388357829003601f168201915b505050505081526020016003820180546138b990615d26565b80601f01602080910402602001604051908101604052809291908181526020018280546138e590615d26565b80156139325780601f1061390757610100808354040283529160200191613932565b820191906000526020600020905b81548152906001019060200180831161391557829003601f168201915b505050505081526020016004820154815250509050600060405180610160016040528083600001518152602001836020015181526020018360400151815260200183606001518152602001836080015181526020016006846020015160405161399b91906156aa565b90815260200160405180910390208054806020026020016040519081016040528092919081815260200182805480156139f357602002820191906000526020600020905b8154815260200190600101908083116139df575b5050505050815260200160078460200151604051613a1191906156aa565b9081526020016040518091039020805480602002602001604051908101604052809291908181526020018280548015613a6957602002820191906000526020600020905b815481526020019060010190808311613a55575b5050505050815260200160088460200151604051613a8791906156aa565b9081526020016040518091039020805480602002602001604051908101604052809291908181526020018280548015613adf57602002820191906000526020600020905b815481526020019060010190808311613acb575b5050505050815260200160098460200151604051613afd91906156aa565b9081526020016040518091039020805480602002602001604051908101604052809291908181526020018280548015613b5557602002820191906000526020600020905b815481526020019060010190808311613b41575b5050505050815260200160038460200151604051613b7391906156aa565b9081526020016040518091039020805480602002602001604051908101604052809291908181526020016000905b82821015613d5957838290600052602060002090600a02016040518061014001604052908160008201548152602001600182018054613bdf90615d26565b80601f0160208091040260200160405190810160405280929190818152602001828054613c0b90615d26565b8015613c585780601f10613c2d57610100808354040283529160200191613c58565b820191906000526020600020905b815481529060010190602001808311613c3b57829003601f168201915b505050505081526020016002820154815260200160038201548152602001600482015481526020016005820160009054906101000a900460ff161515151581526020016006820154815260200160078201548152602001600882018054613cbe90615d26565b80601f0160208091040260200160405190810160405280929190818152602001828054613cea90615d26565b8015613d375780601f10613d0c57610100808354040283529160200191613d37565b820191906000526020600020905b815481529060010190602001808311613d1a57829003601f168201915b5050505050815260200160098201548152505081526020019060010190613ba1565b505050508152602001600b86604051613d7291906156aa565b9081526020016040518091039020805480602002602001604051908101604052809291908181526020016000905b82821015613f2557838290600052602060002090600502016040518060a001604052908160008201548152602001600182018054613ddd90615d26565b80601f0160208091040260200160405190810160405280929190818152602001828054613e0990615d26565b8015613e565780601f10613e2b57610100808354040283529160200191613e56565b820191906000526020600020905b815481529060010190602001808311613e3957829003601f168201915b50505050508152602001600282015481526020016003820160009054906101000a900460ff16151515158152602001600482018054613e9490615d26565b80601f0160208091040260200160405190810160405280929190818152602001828054613ec090615d26565b8015613f0d5780601f10613ee257610100808354040283529160200191613f0d565b820191906000526020600020905b815481529060010190602001808311613ef057829003601f168201915b50505050508152505081526020019060010190613da0565b5050505081525090508092505050919050565b6060600e805480602002602001604051908101604052809291908181526020016000905b8282101561406a57838290600052602060002090600402016040518060a001604052908160008201548152602001600182018054613f9990615d26565b80601f0160208091040260200160405190810160405280929190818152602001828054613fc590615d26565b80156140125780601f10613fe757610100808354040283529160200191614012565b820191906000526020600020905b815481529060010190602001808311613ff557829003601f168201915b50505050508152602001600282015481526020016003820160009054906101000a900460ff161515151581526020016003820160019054906101000a900460ff16151515158152505081526020019060010190613f5c565b50505050905090565b60606001805480602002602001604051908101604052809291908181526020016000905b8282101561431b57838290600052602060002090600502016040518060a00160405290816000820180546140ca90615d26565b80601f01602080910402602001604051908101604052809291908181526020018280546140f690615d26565b80156141435780601f1061411857610100808354040283529160200191614143565b820191906000526020600020905b81548152906001019060200180831161412657829003601f168201915b5050505050815260200160018201805461415c90615d26565b80601f016020809104026020016040519081016040528092919081815260200182805461418890615d26565b80156141d55780601f106141aa576101008083540402835291602001916141d5565b820191906000526020600020905b8154815290600101906020018083116141b857829003601f168201915b505050505081526020016002820180546141ee90615d26565b80601f016020809104026020016040519081016040528092919081815260200182805461421a90615d26565b80156142675780601f1061423c57610100808354040283529160200191614267565b820191906000526020600020905b81548152906001019060200180831161424a57829003601f168201915b5050505050815260200160038201805461428090615d26565b80601f01602080910402602001604051908101604052809291908181526020018280546142ac90615d26565b80156142f95780601f106142ce576101008083540402835291602001916142f9565b820191906000526020600020905b8154815290600101906020018083116142dc57829003601f168201915b5050505050815260200160048201548152505081526020019060010190614097565b50505050905090565b600c818154811061433457600080fd5b906000526020600020906005020160009150905080600001549080600101805461435d90615d26565b80601f016020809104026020016040519081016040528092919081815260200182805461438990615d26565b80156143d65780601f106143ab576101008083540402835291602001916143d6565b820191906000526020600020905b8154815290600101906020018083116143b957829003601f168201915b5050505050908060020154908060030160009054906101000a900460ff169080600401805461440490615d26565b80601f016020809104026020016040519081016040528092919081815260200182805461443090615d26565b801561447d5780601f106144525761010080835404028352916020019161447d565b820191906000526020600020905b81548152906001019060200180831161446057829003601f168201915b5050505050905085565b60038280516020810182018051848252602083016020850120818352809550505050505081815481106144b957600080fd5b90600052602060002090600a0201600091509150508060000154908060010180546144e390615d26565b80601f016020809104026020016040519081016040528092919081815260200182805461450f90615d26565b801561455c5780601f106145315761010080835404028352916020019161455c565b820191906000526020600020905b81548152906001019060200180831161453f57829003601f168201915b5050505050908060020154908060030154908060040154908060050160009054906101000a900460ff16908060060154908060070154908060080180546145a290615d26565b80601f01602080910402602001604051908101604052809291908181526020018280546145ce90615d26565b801561461b5780601f106145f05761010080835404028352916020019161461b565b820191906000526020600020905b8154815290600101906020018083116145fe57829003601f168201915b505050505090806009015490508a565b600080600090505b83518110156146a857826000015184828151811061467a577f4e487b7100000000000000000000000000000000000000000000000000000000600052603260045260246000fd5b602002602001015160000151141561469557809150506146ae565b80806146a090615d89565b915050614633565b50606390505b92915050565b600080600090505b8351811015614731578260000151848281518110614703577f4e487b7100000000000000000000000000000000000000000000000000000000600052603260045260246000fd5b602002602001015160000151141561471e5780915050614737565b808061472990615d89565b9150506146bc565b50606390505b92915050565b50805461474990615d26565b6000825580601f1061475b575061477a565b601f0160209004906000526020600020908101906147799190614916565b5b50565b6040518060a001604052806000815260200160608152602001600081526020016000151581526020016000151581525090565b8280546147bc90615d26565b90600052602060002090601f0160209004810192826147de5760008555614825565b82601f106147f757805160ff1916838001178555614825565b82800160010185558215614825579182015b82811115614824578251825591602001919060010190614809565b5b5090506148329190614916565b5090565b6040518060a00160405280600081526020016060815260200160008152602001600015158152602001606081525090565b6040518061014001604052806000815260200160608152602001600081526020016000815260200160008152602001600015158152602001600081526020016000815260200160608152602001600081525090565b60405180610160016040528060608152602001606081526020016060815260200160608152602001600081526020016060815260200160608152602001606081526020016060815260200160608152602001606081525090565b5b8082111561492f576000816000905550600101614917565b5090565b6000614946614941846159fc565b6159d7565b90508281526020810184848401111561495e57600080fd5b614969848285615ce4565b509392505050565b600082601f83011261498257600080fd5b8135614992848260208601614933565b91505092915050565b6000813590506149aa81615ed0565b92915050565b6000602082840312156149c257600080fd5b600082013567ffffffffffffffff8111156149dc57600080fd5b6149e884828501614971565b91505092915050565b60008060008060808587031215614a0757600080fd5b600085013567ffffffffffffffff811115614a2157600080fd5b614a2d87828801614971565b945050602085013567ffffffffffffffff811115614a4a57600080fd5b614a5687828801614971565b935050604085013567ffffffffffffffff811115614a7357600080fd5b614a7f87828801614971565b925050606085013567ffffffffffffffff811115614a9c57600080fd5b614aa887828801614971565b91505092959194509250565b60008060408385031215614ac757600080fd5b600083013567ffffffffffffffff811115614ae157600080fd5b614aed85828601614971565b9250506020614afe8582860161499b565b9150509250929050565b600080600080600080600080610100898b031215614b2557600080fd5b600089013567ffffffffffffffff811115614b3f57600080fd5b614b4b8b828c01614971565b9850506020614b5c8b828c0161499b565b9750506040614b6d8b828c0161499b565b9650506060614b7e8b828c0161499b565b9550506080614b8f8b828c0161499b565b94505060a0614ba08b828c0161499b565b93505060c089013567ffffffffffffffff811115614bbd57600080fd5b614bc98b828c01614971565b92505060e0614bda8b828c0161499b565b9150509295985092959890939650565b600060208284031215614bfc57600080fd5b6000614c0a8482850161499b565b91505092915050565b60008060408385031215614c2657600080fd5b6000614c348582860161499b565b925050602083013567ffffffffffffffff811115614c5157600080fd5b614c5d85828601614971565b9150509250929050565b6000614c73838361512b565b905092915050565b6000614c8783836152e4565b905092915050565b6000614c9b83836153de565b905092915050565b6000614caf83836154ca565b905092915050565b6000614cc3838361568c565b60208301905092915050565b6000614cda82615a92565b614ce48185615b15565b935083602082028501614cf685615a2d565b8060005b85811015614d325784840389528151614d138582614c67565b9450614d1e83615ad4565b925060208a01995050600181019050614cfa565b50829750879550505050505092915050565b6000614d4f82615a9d565b614d598185615b26565b935083602082028501614d6b85615a3d565b8060005b85811015614da75784840389528151614d888582614c7b565b9450614d9383615ae1565b925060208a01995050600181019050614d6f565b50829750879550505050505092915050565b6000614dc482615a9d565b614dce8185615b37565b935083602082028501614de085615a3d565b8060005b85811015614e1c5784840389528151614dfd8582614c7b565b9450614e0883615ae1565b925060208a01995050600181019050614de4565b50829750879550505050505092915050565b6000614e3982615aa8565b614e438185615b48565b935083602082028501614e5585615a4d565b8060005b85811015614e915784840389528151614e728582614c8f565b9450614e7d83615aee565b925060208a01995050600181019050614e59565b50829750879550505050505092915050565b6000614eae82615ab3565b614eb88185615b59565b935083602082028501614eca85615a5d565b8060005b85811015614f065784840389528151614ee78582614ca3565b9450614ef283615afb565b925060208a01995050600181019050614ece565b50829750879550505050505092915050565b6000614f2382615ab3565b614f2d8185615b6a565b935083602082028501614f3f85615a5d565b8060005b85811015614f7b5784840389528151614f5c8582614ca3565b9450614f6783615afb565b925060208a01995050600181019050614f43565b50829750879550505050505092915050565b6000614f9882615abe565b614fa28185615b7b565b9350614fad83615a6d565b8060005b83811015614fde578151614fc58882614cb7565b9750614fd083615b08565b925050600181019050614fb1565b5085935050505092915050565b614ff481615cce565b82525050565b61500381615cce565b82525050565b600061501482615ac9565b61501e8185615b8c565b935061502e818560208601615cf3565b61503781615ebf565b840191505092915050565b600061504d82615ac9565b6150578185615b9d565b9350615067818560208601615cf3565b61507081615ebf565b840191505092915050565b600061508682615ac9565b6150908185615bae565b93506150a0818560208601615cf3565b80840191505092915050565b600081546150b981615d26565b6150c38186615bae565b945060018216600081146150de57600181146150ef57615122565b60ff19831686528186019350615122565b6150f885615a7d565b60005b8381101561511a578154818901526001820191506020810190506150fb565b838801955050505b50505092915050565b600060a08301600083015184820360008601526151488282615009565b915050602083015184820360208601526151628282615009565b9150506040830151848203604086015261517c8282615009565b915050606083015184820360608601526151968282615009565b91505060808301516151ab608086018261568c565b508091505092915050565b60006101608301600083015184820360008601526151d48282615009565b915050602083015184820360208601526151ee8282615009565b915050604083015184820360408601526152088282615009565b915050606083015184820360608601526152228282615009565b9150506080830151615237608086018261568c565b5060a083015184820360a086015261524f8282614f8d565b91505060c083015184820360c08601526152698282614f8d565b91505060e083015184820360e08601526152838282614f8d565b91505061010083015184820361010086015261529f8282614f8d565b9150506101208301518482036101208601526152bb8282614ea3565b9150506101408301518482036101408601526152d78282614d44565b9150508091505092915050565b600060a0830160008301516152fc600086018261568c565b50602083015184820360208601526153148282615009565b9150506040830151615329604086018261568c565b50606083015161533c6060860182614feb565b50608083015184820360808601526153548282615009565b9150508091505092915050565b600060a083016000830151615379600086018261568c565b50602083015184820360208601526153918282615009565b91505060408301516153a6604086018261568c565b5060608301516153b96060860182614feb565b50608083015184820360808601526153d18282615009565b9150508091505092915050565b600060a0830160008301516153f6600086018261568c565b506020830151848203602086015261540e8282615009565b9150506040830151615423604086018261568c565b5060608301516154366060860182614feb565b5060808301516154496080860182614feb565b508091505092915050565b600060a08301600083015161546c600086018261568c565b50602083015184820360208601526154848282615009565b9150506040830151615499604086018261568c565b5060608301516154ac6060860182614feb565b5060808301516154bf6080860182614feb565b508091505092915050565b6000610140830160008301516154e3600086018261568c565b50602083015184820360208601526154fb8282615009565b9150506040830151615510604086018261568c565b506060830151615523606086018261568c565b506080830151615536608086018261568c565b5060a083015161554960a0860182614feb565b5060c083015161555c60c086018261568c565b5060e083015161556f60e086018261568c565b506101008301518482036101008601526155898282615009565b9150506101208301516155a061012086018261568c565b508091505092915050565b6000610140830160008301516155c4600086018261568c565b50602083015184820360208601526155dc8282615009565b91505060408301516155f1604086018261568c565b506060830151615604606086018261568c565b506080830151615617608086018261568c565b5060a083015161562a60a0860182614feb565b5060c083015161563d60c086018261568c565b5060e083015161565060e086018261568c565b5061010083015184820361010086015261566a8282615009565b91505061012083015161568161012086018261568c565b508091505092915050565b61569581615cda565b82525050565b6156a481615cda565b82525050565b60006156b6828461507b565b915081905092915050565b60006156cd82846150ac565b915081905092915050565b600060208201905081810360008301526156f28184614ccf565b905092915050565b600060208201905081810360008301526157148184614db9565b905092915050565b600060208201905081810360008301526157368184614e2e565b905092915050565b600060208201905081810360008301526157588184614f18565b905092915050565b600060a082019050818103600083015261577a8188615042565b9050818103602083015261578e8187615042565b905081810360408301526157a28186615042565b905081810360608301526157b68185615042565b90506157c5608083018461569b565b9695505050505050565b600060208201905081810360008301526157e981846151b6565b905092915050565b6000602082019050818103600083015261580b8184615361565b905092915050565b6000602082019050818103600083015261582d8184615454565b905092915050565b6000602082019050818103600083015261584f81846155ab565b905092915050565b600060208201905061586c600083018461569b565b92915050565b600060a082019050615887600083018861569b565b81810360208301526158998187615042565b90506158a8604083018661569b565b6158b56060830185614ffa565b6158c26080830184614ffa565b9695505050505050565b600060a0820190506158e1600083018861569b565b81810360208301526158f38187615042565b9050615902604083018661569b565b61590f6060830185614ffa565b81810360808301526159218184615042565b90509695505050505050565b600061014082019050615943600083018d61569b565b8181036020830152615955818c615042565b9050615964604083018b61569b565b615971606083018a61569b565b61597e608083018961569b565b61598b60a0830188614ffa565b61599860c083018761569b565b6159a560e083018661569b565b8181036101008301526159b88185615042565b90506159c861012083018461569b565b9b9a5050505050505050505050565b60006159e16159f2565b90506159ed8282615d58565b919050565b6000604051905090565b600067ffffffffffffffff821115615a1757615a16615e90565b5b615a2082615ebf565b9050602081019050919050565b6000819050602082019050919050565b6000819050602082019050919050565b6000819050602082019050919050565b6000819050602082019050919050565b6000819050602082019050919050565b60008190508160005260206000209050919050565b600081519050919050565b600081519050919050565b600081519050919050565b600081519050919050565b600081519050919050565b600081519050919050565b6000602082019050919050565b6000602082019050919050565b6000602082019050919050565b6000602082019050919050565b6000602082019050919050565b600082825260208201905092915050565b600082825260208201905092915050565b600082825260208201905092915050565b600082825260208201905092915050565b600082825260208201905092915050565b600082825260208201905092915050565b600082825260208201905092915050565b600082825260208201905092915050565b600082825260208201905092915050565b600081905092915050565b6000615bc482615cda565b9150615bcf83615cda565b9250827fffffffffffffffffffffffffffffffffffffffffffffffffffffffffffffffff03821115615c0457615c03615e03565b5b828201905092915050565b6000615c1a82615cda565b9150615c2583615cda565b925082615c3557615c34615e32565b5b828204905092915050565b6000615c4b82615cda565b9150615c5683615cda565b9250817fffffffffffffffffffffffffffffffffffffffffffffffffffffffffffffffff0483118215151615615c8f57615c8e615e03565b5b828202905092915050565b6000615ca582615cda565b9150615cb083615cda565b925082821015615cc357615cc2615e03565b5b828203905092915050565b60008115159050919050565b6000819050919050565b82818337600083830152505050565b60005b83811015615d11578082015181840152602081019050615cf6565b83811115615d20576000848401525b50505050565b60006002820490506001821680615d3e57607f821691505b60208210811415615d5257615d51615e61565b5b50919050565b615d6182615ebf565b810181811067ffffffffffffffff82111715615d8057615d7f615e90565b5b80604052505050565b6000615d9482615cda565b91507fffffffffffffffffffffffffffffffffffffffffffffffffffffffffffffffff821415615dc757615dc6615e03565b5b600182019050919050565b6000615ddd82615cda565b9150615de883615cda565b925082615df857615df7615e32565b5b828206905092915050565b7f4e487b7100000000000000000000000000000000000000000000000000000000600052601160045260246000fd5b7f4e487b7100000000000000000000000000000000000000000000000000000000600052601260045260246000fd5b7f4e487b7100000000000000000000000000000000000000000000000000000000600052602260045260246000fd5b7f4e487b7100000000000000000000000000000000000000000000000000000000600052604160045260246000fd5b6000601f19601f8301169050919050565b615ed981615cda565b8114615ee457600080fd5b5056fea26469706673582212201a3de819d9aee38e9cc44f08d563298e27aefccfa026f3c759247d86aecd1f0d64736f6c63430008010033",
  "linkReferences": {},
  "deployedLinkReferences": {}
}