{
  "_format": "hh-sol-artifact-1",
  "contractName": "Box",
  "sourceName": "contracts/Box.sol",
  "abi": [
    {
      "inputs": [
        {
          "internalType": "string",
          "name": "name",
          "type": "string"
        },
        {
          "internalType": "string",
          "name": "farmer_id",
          "type": "string"
        },
        {
          "internalType": "string",
          "name": "number",
          "type": "string"
        },
        {
          "internalType": "string",
          "name": "region",
          "type": "string"
        }
      ],
      "name": "add_farmer",
      "outputs": [],
      "stateMutability": "nonpayable",
      "type": "function"
    },
    {
      "inputs": [
        {
          "internalType": "string",
          "name": "farmer_id",
          "type": "string"
        },
        {
          "internalType": "uint256",
          "name": "rating",
          "type": "uint256"
        }
      ],
      "name": "add_rating",
      "outputs": [],
      "stateMutability": "nonpayable",
      "type": "function"
    },
    {
      "inputs": [
        {
          "internalType": "string",
          "name": "farmer_id",
          "type": "string"
        },
        {
          "internalType": "uint256",
          "name": "weight",
          "type": "uint256"
        },
        {
          "internalType": "uint256",
          "name": "hardness",
          "type": "uint256"
        },
        {
          "internalType": "uint256",
          "name": "size",
          "type": "uint256"
        },
        {
          "internalType": "uint256",
          "name": "quantity",
          "type": "uint256"
        },
        {
          "internalType": "uint256",
          "name": "quality_index",
          "type": "uint256"
        },
        {
          "internalType": "string",
          "name": "produce",
          "type": "string"
        },
        {
          "internalType": "uint256",
          "name": "price",
          "type": "uint256"
        }
      ],
      "name": "add_trade",
      "outputs": [],
      "stateMutability": "nonpayable",
      "type": "function"
    },
    {
      "inputs": [
        {
          "internalType": "uint256",
          "name": "",
          "type": "uint256"
        }
      ],
      "name": "all_loans",
      "outputs": [
        {
          "internalType": "uint256",
          "name": "loan_index",
          "type": "uint256"
        },
        {
          "internalType": "string",
          "name": "farmer_id",
          "type": "string"
        },
        {
          "internalType": "uint256",
          "name": "amount",
          "type": "uint256"
        },
        {
          "internalType": "bool",
          "name": "paid",
          "type": "bool"
        },
        {
          "internalType": "string",
          "name": "giver",
          "type": "string"
        }
      ],
      "stateMutability": "view",
      "type": "function"
    },
    {
      "inputs": [
        {
          "internalType": "string",
          "name": "",
          "type": "string"
        },
        {
          "internalType": "uint256",
          "name": "",
          "type": "uint256"
        }
      ],
      "name": "all_order_volumes",
      "outputs": [
        {
          "internalType": "uint256",
          "name": "",
          "type": "uint256"
        }
      ],
      "stateMutability": "view",
      "type": "function"
    },
    {
      "inputs": [
        {
          "internalType": "string",
          "name": "farmer_id",
          "type": "string"
        },
        {
          "internalType": "uint256",
          "name": "amount",
          "type": "uint256"
        }
      ],
      "name": "apply_for_loan",
      "outputs": [],
      "stateMutability": "nonpayable",
      "type": "function"
    },
    {
      "inputs": [
        {
          "internalType": "string",
          "name": "",
          "type": "string"
        },
        {
          "internalType": "uint256",
          "name": "",
          "type": "uint256"
        }
      ],
      "name": "aqis",
      "outputs": [
        {
          "internalType": "uint256",
          "name": "",
          "type": "uint256"
        }
      ],
      "stateMutability": "view",
      "type": "function"
    },
    {
      "inputs": [
        {
          "internalType": "string",
          "name": "",
          "type": "string"
        }
      ],
      "name": "balances",
      "outputs": [
        {
          "internalType": "uint256",
          "name": "",
          "type": "uint256"
        }
      ],
      "stateMutability": "view",
      "type": "function"
    },
    {
      "inputs": [
        {
          "internalType": "uint256",
          "name": "request_id",
          "type": "uint256"
        }
      ],
      "name": "disapprove_loan",
      "outputs": [],
      "stateMutability": "nonpayable",
      "type": "function"
    },
    {
      "inputs": [
        {
          "internalType": "string",
          "name": "",
          "type": "string"
        },
        {
          "internalType": "uint256",
          "name": "",
          "type": "uint256"
        }
      ],
      "name": "farmer_loans",
      "outputs": [
        {
          "internalType": "uint256",
          "name": "loan_index",
          "type": "uint256"
        },
        {
          "internalType": "string",
          "name": "farmer_id",
          "type": "string"
        },
        {
          "internalType": "uint256",
          "name": "amount",
          "type": "uint256"
        },
        {
          "internalType": "bool",
          "name": "paid",
          "type": "bool"
        },
        {
          "internalType": "string",
          "name": "giver",
          "type": "string"
        }
      ],
      "stateMutability": "view",
      "type": "function"
    },
    {
      "inputs": [
        {
          "internalType": "string",
          "name": "",
          "type": "string"
        },
        {
          "internalType": "uint256",
          "name": "",
          "type": "uint256"
        }
      ],
      "name": "farmer_trades",
      "outputs": [
        {
          "internalType": "uint256",
          "name": "id",
          "type": "uint256"
        },
        {
          "internalType": "string",
          "name": "farmer_id",
          "type": "string"
        },
        {
          "internalType": "uint256",
          "name": "weight",
          "type": "uint256"
        },
        {
          "internalType": "uint256",
          "name": "hardness",
          "type": "uint256"
        },
        {
          "internalType": "uint256",
          "name": "size",
          "type": "uint256"
        },
        {
          "internalType": "bool",
          "name": "open",
          "type": "bool"
        },
        {
          "internalType": "uint256",
          "name": "quantity",
          "type": "uint256"
        },
        {
          "internalType": "uint256",
          "name": "quality_index",
          "type": "uint256"
        },
        {
          "internalType": "string",
          "name": "produce",
          "type": "string"
        },
        {
          "internalType": "uint256",
          "name": "price",
          "type": "uint256"
        }
      ],
      "stateMutability": "view",
      "type": "function"
    },
    {
      "inputs": [
        {
          "internalType": "string",
          "name": "",
          "type": "string"
        }
      ],
      "name": "farmers",
      "outputs": [
        {
          "internalType": "string",
          "name": "name",
          "type": "string"
        },
        {
          "internalType": "string",
          "name": "farmer_id",
          "type": "string"
        },
        {
          "internalType": "string",
          "name": "number",
          "type": "string"
        },
        {
          "internalType": "string",
          "name": "region",
          "type": "string"
        },
        {
          "internalType": "uint256",
          "name": "index",
          "type": "uint256"
        }
      ],
      "stateMutability": "view",
      "type": "function"
    },
    {
      "inputs": [
        {
          "internalType": "uint256",
          "name": "",
          "type": "uint256"
        }
      ],
      "name": "farmers_list",
      "outputs": [
        {
          "internalType": "string",
          "name": "name",
          "type": "string"
        },
        {
          "internalType": "string",
          "name": "farmer_id",
          "type": "string"
        },
        {
          "internalType": "string",
          "name": "number",
          "type": "string"
        },
        {
          "internalType": "string",
          "name": "region",
          "type": "string"
        },
        {
          "internalType": "uint256",
          "name": "index",
          "type": "uint256"
        }
      ],
      "stateMutability": "view",
      "type": "function"
    },
    {
      "inputs": [],
      "name": "get_all_farmers",
      "outputs": [
        {
          "components": [
            {
              "internalType": "string",
              "name": "name",
              "type": "string"
            },
            {
              "internalType": "string",
              "name": "farmer_id",
              "type": "string"
            },
            {
              "internalType": "string",
              "name": "number",
              "type": "string"
            },
            {
              "internalType": "string",
              "name": "region",
              "type": "string"
            },
            {
              "internalType": "uint256",
              "name": "index",
              "type": "uint256"
            }
          ],
          "internalType": "struct Box.Farmer[]",
          "name": "",
          "type": "tuple[]"
        }
      ],
      "stateMutability": "view",
      "type": "function"
    },
    {
      "inputs": [],
      "name": "get_all_loans",
      "outputs": [
        {
          "components": [
            {
              "internalType": "uint256",
              "name": "loan_index",
              "type": "uint256"
            },
            {
              "internalType": "string",
              "name": "farmer_id",
              "type": "string"
            },
            {
              "internalType": "uint256",
              "name": "amount",
              "type": "uint256"
            },
            {
              "internalType": "bool",
              "name": "paid",
              "type": "bool"
            },
            {
              "internalType": "string",
              "name": "giver",
              "type": "string"
            }
          ],
          "internalType": "struct Box.Loan[]",
          "name": "",
          "type": "tuple[]"
        }
      ],
      "stateMutability": "view",
      "type": "function"
    },
    {
      "inputs": [],
      "name": "get_all_trades",
      "outputs": [
        {
          "components": [
            {
              "internalType": "uint256",
              "name": "id",
              "type": "uint256"
            },
            {
              "internalType": "string",
              "name": "farmer_id",
              "type": "string"
            },
            {
              "internalType": "uint256",
              "name": "weight",
              "type": "uint256"
            },
            {
              "internalType": "uint256",
              "name": "hardness",
              "type": "uint256"
            },
            {
              "internalType": "uint256",
              "name": "size",
              "type": "uint256"
            },
            {
              "internalType": "bool",
              "name": "open",
              "type": "bool"
            },
            {
              "internalType": "uint256",
              "name": "quantity",
              "type": "uint256"
            },
            {
              "internalType": "uint256",
              "name": "quality_index",
              "type": "uint256"
            },
            {
              "internalType": "string",
              "name": "produce",
              "type": "string"
            },
            {
              "internalType": "uint256",
              "name": "price",
              "type": "uint256"
            }
          ],
          "internalType": "struct Box.Trade[]",
          "name": "",
          "type": "tuple[]"
        }
      ],
      "stateMutability": "view",
      "type": "function"
    },
    {
      "inputs": [
        {
          "internalType": "string",
          "name": "farmer_id",
          "type": "string"
        }
      ],
      "name": "get_balance",
      "outputs": [
        {
          "internalType": "uint256",
          "name": "",
          "type": "uint256"
        }
      ],
      "stateMutability": "view",
      "type": "function"
    },
    {
      "inputs": [
        {
          "internalType": "string",
          "name": "farmer_id",
          "type": "string"
        }
      ],
      "name": "get_farmer",
      "outputs": [
        {
          "components": [
            {
              "internalType": "string",
              "name": "name",
              "type": "string"
            },
            {
              "internalType": "string",
              "name": "farmer_id",
              "type": "string"
            },
            {
              "internalType": "string",
              "name": "number",
              "type": "string"
            },
            {
              "internalType": "string",
              "name": "region",
              "type": "string"
            },
            {
              "internalType": "uint256",
              "name": "index",
              "type": "uint256"
            },
            {
              "internalType": "uint256[]",
              "name": "aqis",
              "type": "uint256[]"
            },
            {
              "internalType": "uint256[]",
              "name": "order_sizes",
              "type": "uint256[]"
            },
            {
              "internalType": "uint256[]",
              "name": "order_volumes",
              "type": "uint256[]"
            },
            {
              "internalType": "uint256[]",
              "name": "ratings",
              "type": "uint256[]"
            },
            {
              "components": [
                {
                  "internalType": "uint256",
                  "name": "id",
                  "type": "uint256"
                },
                {
                  "internalType": "string",
                  "name": "farmer_id",
                  "type": "string"
                },
                {
                  "internalType": "uint256",
                  "name": "weight",
                  "type": "uint256"
                },
                {
                  "internalType": "uint256",
                  "name": "hardness",
                  "type": "uint256"
                },
                {
                  "internalType": "uint256",
                  "name": "size",
                  "type": "uint256"
                },
                {
                  "internalType": "bool",
                  "name": "open",
                  "type": "bool"
                },
                {
                  "internalType": "uint256",
                  "name": "quantity",
                  "type": "uint256"
                },
                {
                  "internalType": "uint256",
                  "name": "quality_index",
                  "type": "uint256"
                },
                {
                  "internalType": "string",
                  "name": "produce",
                  "type": "string"
                },
                {
                  "internalType": "uint256",
                  "name": "price",
                  "type": "uint256"
                }
              ],
              "internalType": "struct Box.Trade[]",
              "name": "trades",
              "type": "tuple[]"
            },
            {
              "components": [
                {
                  "internalType": "uint256",
                  "name": "loan_index",
                  "type": "uint256"
                },
                {
                  "internalType": "string",
                  "name": "farmer_id",
                  "type": "string"
                },
                {
                  "internalType": "uint256",
                  "name": "amount",
                  "type": "uint256"
                },
                {
                  "internalType": "bool",
                  "name": "paid",
                  "type": "bool"
                },
                {
                  "internalType": "string",
                  "name": "giver",
                  "type": "string"
                }
              ],
              "internalType": "struct Box.Loan[]",
              "name": "loans",
              "type": "tuple[]"
            }
          ],
          "internalType": "struct Box.Farmer_Stat",
          "name": "",
          "type": "tuple"
        }
      ],
      "stateMutability": "view",
      "type": "function"
    },
    {
      "inputs": [
        {
          "internalType": "string",
          "name": "farmer_id",
          "type": "string"
        }
      ],
      "name": "get_farmer_loans",
      "outputs": [
        {
          "components": [
            {
              "internalType": "uint256",
              "name": "loan_index",
              "type": "uint256"
            },
            {
              "internalType": "string",
              "name": "farmer_id",
              "type": "string"
            },
            {
              "internalType": "uint256",
              "name": "amount",
              "type": "uint256"
            },
            {
              "internalType": "bool",
              "name": "paid",
              "type": "bool"
            },
            {
              "internalType": "string",
              "name": "giver",
              "type": "string"
            }
          ],
          "internalType": "struct Box.Loan[]",
          "name": "",
          "type": "tuple[]"
        }
      ],
      "stateMutability": "view",
      "type": "function"
    },
    {
      "inputs": [
        {
          "internalType": "uint256",
          "name": "id",
          "type": "uint256"
        }
      ],
      "name": "get_loan",
      "outputs": [
        {
          "components": [
            {
              "internalType": "uint256",
              "name": "loan_index",
              "type": "uint256"
            },
            {
              "internalType": "string",
              "name": "farmer_id",
              "type": "string"
            },
            {
              "internalType": "uint256",
              "name": "amount",
              "type": "uint256"
            },
            {
              "internalType": "bool",
              "name": "paid",
              "type": "bool"
            },
            {
              "internalType": "string",
              "name": "giver",
              "type": "string"
            }
          ],
          "internalType": "struct Box.Loan",
          "name": "",
          "type": "tuple"
        }
      ],
      "stateMutability": "view",
      "type": "function"
    },
    {
      "inputs": [],
      "name": "get_loan_count",
      "outputs": [
        {
          "internalType": "uint256",
          "name": "",
          "type": "uint256"
        }
      ],
      "stateMutability": "view",
      "type": "function"
    },
    {
      "inputs": [
        {
          "internalType": "uint256",
          "name": "id",
          "type": "uint256"
        }
      ],
      "name": "get_loan_request",
      "outputs": [
        {
          "components": [
            {
              "internalType": "uint256",
              "name": "loan_index",
              "type": "uint256"
            },
            {
              "internalType": "string",
              "name": "farmer_id",
              "type": "string"
            },
            {
              "internalType": "uint256",
              "name": "amount",
              "type": "uint256"
            },
            {
              "internalType": "bool",
              "name": "disapproved",
              "type": "bool"
            },
            {
              "internalType": "bool",
              "name": "approved",
              "type": "bool"
            }
          ],
          "internalType": "struct Box.Loan_Request",
          "name": "",
          "type": "tuple"
        }
      ],
      "stateMutability": "view",
      "type": "function"
    },
    {
      "inputs": [
        {
          "internalType": "uint256",
          "name": "id",
          "type": "uint256"
        }
      ],
      "name": "get_trade",
      "outputs": [
        {
          "components": [
            {
              "internalType": "uint256",
              "name": "id",
              "type": "uint256"
            },
            {
              "internalType": "string",
              "name": "farmer_id",
              "type": "string"
            },
            {
              "internalType": "uint256",
              "name": "weight",
              "type": "uint256"
            },
            {
              "internalType": "uint256",
              "name": "hardness",
              "type": "uint256"
            },
            {
              "internalType": "uint256",
              "name": "size",
              "type": "uint256"
            },
            {
              "internalType": "bool",
              "name": "open",
              "type": "bool"
            },
            {
              "internalType": "uint256",
              "name": "quantity",
              "type": "uint256"
            },
            {
              "internalType": "uint256",
              "name": "quality_index",
              "type": "uint256"
            },
            {
              "internalType": "string",
              "name": "produce",
              "type": "string"
            },
            {
              "internalType": "uint256",
              "name": "price",
              "type": "uint256"
            }
          ],
          "internalType": "struct Box.Trade",
          "name": "",
          "type": "tuple"
        }
      ],
      "stateMutability": "view",
      "type": "function"
    },
    {
      "inputs": [
        {
          "internalType": "uint256",
          "name": "request_id",
          "type": "uint256"
        },
        {
          "internalType": "string",
          "name": "giver",
          "type": "string"
        }
      ],
      "name": "give_loan",
      "outputs": [],
      "stateMutability": "nonpayable",
      "type": "function"
    },
    {
      "inputs": [],
      "name": "give_loan_requests",
      "outputs": [
        {
          "components": [
            {
              "internalType": "uint256",
              "name": "loan_index",
              "type": "uint256"
            },
            {
              "internalType": "string",
              "name": "farmer_id",
              "type": "string"
            },
            {
              "internalType": "uint256",
              "name": "amount",
              "type": "uint256"
            },
            {
              "internalType": "bool",
              "name": "disapproved",
              "type": "bool"
            },
            {
              "internalType": "bool",
              "name": "approved",
              "type": "bool"
            }
          ],
          "internalType": "struct Box.Loan_Request[]",
          "name": "",
          "type": "tuple[]"
        }
      ],
      "stateMutability": "view",
      "type": "function"
    },
    {
      "inputs": [
        {
          "internalType": "uint256",
          "name": "",
          "type": "uint256"
        }
      ],
      "name": "loan_requests",
      "outputs": [
        {
          "internalType": "uint256",
          "name": "loan_index",
          "type": "uint256"
        },
        {
          "internalType": "string",
          "name": "farmer_id",
          "type": "string"
        },
        {
          "internalType": "uint256",
          "name": "amount",
          "type": "uint256"
        },
        {
          "internalType": "bool",
          "name": "disapproved",
          "type": "bool"
        },
        {
          "internalType": "bool",
          "name": "approved",
          "type": "bool"
        }
      ],
      "stateMutability": "view",
      "type": "function"
    },
    {
      "inputs": [
        {
          "internalType": "uint256",
          "name": "loan_index",
          "type": "uint256"
        }
      ],
      "name": "mark_loan_as_paid",
      "outputs": [],
      "stateMutability": "nonpayable",
      "type": "function"
    },
    {
      "inputs": [
        {
          "internalType": "string",
          "name": "",
          "type": "string"
        },
        {
          "internalType": "uint256",
          "name": "",
          "type": "uint256"
        }
      ],
      "name": "order_sizes",
      "outputs": [
        {
          "internalType": "uint256",
          "name": "",
          "type": "uint256"
        }
      ],
      "stateMutability": "view",
      "type": "function"
    },
    {
      "inputs": [
        {
          "internalType": "string",
          "name": "",
          "type": "string"
        },
        {
          "internalType": "uint256",
          "name": "",
          "type": "uint256"
        }
      ],
      "name": "ratings",
      "outputs": [
        {
          "internalType": "uint256",
          "name": "",
          "type": "uint256"
        }
      ],
      "stateMutability": "view",
      "type": "function"
    },
    {
      "inputs": [
        {
          "internalType": "uint256",
          "name": "trade_id",
          "type": "uint256"
        },
        {
          "internalType": "string",
          "name": "payer",
          "type": "string"
        }
      ],
      "name": "remove_trade",
      "outputs": [],
      "stateMutability": "nonpayable",
      "type": "function"
    },
    {
      "inputs": [
        {
          "internalType": "string",
          "name": "farmer_id",
          "type": "string"
        }
      ],
      "name": "set_balance",
      "outputs": [],
      "stateMutability": "nonpayable",
      "type": "function"
    },
    {
      "inputs": [
        {
          "internalType": "uint256",
          "name": "",
          "type": "uint256"
        }
      ],
      "name": "trades",
      "outputs": [
        {
          "internalType": "uint256",
          "name": "id",
          "type": "uint256"
        },
        {
          "internalType": "string",
          "name": "farmer_id",
          "type": "string"
        },
        {
          "internalType": "uint256",
          "name": "weight",
          "type": "uint256"
        },
        {
          "internalType": "uint256",
          "name": "hardness",
          "type": "uint256"
        },
        {
          "internalType": "uint256",
          "name": "size",
          "type": "uint256"
        },
        {
          "internalType": "bool",
          "name": "open",
          "type": "bool"
        },
        {
          "internalType": "uint256",
          "name": "quantity",
          "type": "uint256"
        },
        {
          "internalType": "uint256",
          "name": "quality_index",
          "type": "uint256"
        },
        {
          "internalType": "string",
          "name": "produce",
          "type": "string"
        },
        {
          "internalType": "uint256",
          "name": "price",
          "type": "uint256"
        }
      ],
      "stateMutability": "view",
      "type": "function"
    }
  ],
  "bytecode": "0x608060405234801561001057600080fd5b50615ed480620000216000396000f3fe608060405234801561001057600080fd5b50600436106101f05760003560e01c806377bfdee31161010f578063bbb59036116100a2578063d6f4e4dc11610071578063d6f4e4dc14610664578063e10587c114610682578063f1d1a19b146106a0578063f69cfc80146106d4576101f0565b8063bbb59036146105cc578063c2377cbf146105fc578063c2e4e10814610618578063ceb6922014610634576101f0565b8063957dae9d116100de578063957dae9d146105345780639691297414610550578063a86b53d314610580578063bb62bd2e146105b0576101f0565b806377bfdee31461049a5780637c8929e1146104ca57806381a063f3146104e65780638e483a9d14610504576101f0565b80632afd97a4116101875780635cda3172116101565780635cda3172146103d25780635e4b571614610406578063628f40681461043a57806365a9b4a01461046a576101f0565b80632afd97a4146103225780633fa97bea146103525780634f4f10ef1461036e578063544b4ac4146103a2576101f0565b8063159af658116101c3578063159af6581461027b5780631e6c598e146102af5780631ff1df34146102e8578063283bcdbb14610306576101f0565b8063042c92d7146101f5578063047adf3f14610211578063111257271461022d57806311d9bb421461024b575b600080fd5b61020f600480360381019061020a9190614ba1565b61070d565b005b61022b60048036038101906102269190614bca565b610807565b005b610235610c0a565b604051610242919061580e565b60405180910390f35b61026560048036038101906102609190614a6b565b610c14565b604051610272919061580e565b60405180910390f35b61029560048036038101906102909190614ba1565b610c5b565b6040516102a6959493929190615717565b60405180910390f35b6102c960048036038101906102c49190614ba1565b610ec1565b6040516102df9a999897969594939291906158e4565b60405180910390f35b6102f0611042565b6040516102fd91906156b1565b60405180910390f35b610320600480360381019061031b91906149a8565b6111f4565b005b61033c60048036038101906103379190614967565b6113da565b604051610349919061580e565b60405180910390f35b61036c60048036038101906103679190614a6b565b611408565b005b61038860048036038101906103839190614a6b565b611451565b604051610399959493929190615883565b60405180910390f35b6103bc60048036038101906103b79190614967565b6115d7565b6040516103c991906156b1565b60405180910390f35b6103ec60048036038101906103e79190614967565b6117a7565b6040516103fd959493929190615717565b60405180910390f35b610420600480360381019061041b9190614ba1565b611a13565b604051610431959493929190615829565b60405180910390f35b610454600480360381019061044f9190614a6b565b611afb565b604051610461919061580e565b60405180910390f35b610484600480360381019061047f9190614967565b611b42565b604051610491919061580e565b60405180910390f35b6104b460048036038101906104af9190614ba1565b611b6a565b6040516104c191906157ca565b60405180910390f35b6104e460048036038101906104df9190614967565b611ca8565b005b6104ee611d06565b6040516104fb91906156f5565b60405180910390f35b61051e60048036038101906105199190614ba1565b611eeb565b60405161052b91906157a8565b60405180910390f35b61054e60048036038101906105499190614ba1565b6120a0565b005b61056a60048036038101906105659190614ba1565b612832565b60405161057791906157ec565b60405180910390f35b61059a60048036038101906105959190614a6b565b612a1a565b6040516105a7919061580e565b60405180910390f35b6105ca60048036038101906105c59190614a6b565b612a61565b005b6105e660048036038101906105e19190614a6b565b612b6e565b6040516105f3919061580e565b60405180910390f35b61061660048036038101906106119190614abf565b612bb5565b005b610632600480360381019061062d9190614bca565b612e2a565b005b61064e60048036038101906106499190614967565b613678565b60405161065b9190615786565b60405180910390f35b61066c613eef565b60405161067991906156d3565b60405180910390f35b61068a61402a565b604051610697919061568f565b60405180910390f35b6106ba60048036038101906106b59190614ba1565b6142db565b6040516106cb959493929190615883565b60405180910390f35b6106ee60048036038101906106e99190614a6b565b61443e565b6040516107049a999897969594939291906158e4565b60405180910390f35b6001600e8281548110610749577f4e487b7100000000000000000000000000000000000000000000000000000000600052603260045260246000fd5b906000526020600020906004020160030160006101000a81548160ff021916908315150217905550600e81815481106107ab577f4e487b7100000000000000000000000000000000000000000000000000000000600052603260045260246000fd5b90600052602060002090600402016000808201600090556001820160006107d291906146f4565b60028201600090556003820160006101000a81549060ff02191690556003820160016101000a81549060ff0219169055505050565b61080f614734565b600e8381548110610849577f4e487b7100000000000000000000000000000000000000000000000000000000600052603260045260246000fd5b90600052602060002090600402016040518060a00160405290816000820154815260200160018201805461087c90615cdd565b80601f01602080910402602001604051908101604052809291908181526020018280546108a890615cdd565b80156108f55780601f106108ca576101008083540402835291602001916108f5565b820191906000526020600020905b8154815290600101906020018083116108d857829003601f168201915b50505050508152602001600282015481526020016003820160009054906101000a900460ff161515151581526020016003820160019054906101000a900460ff1615151515815250509050600a826040516109509190615661565b90815260200160405180910390205481604001511115801561097a57506000151581606001511515145b15610c05576001600e84815481106109bb577f4e487b7100000000000000000000000000000000000000000000000000000000600052603260045260246000fd5b906000526020600020906004020160030160016101000a81548160ff0219169083151502179055508060400151600a82602001516040516109fc9190615661565b90815260200160405180910390206000828254610a199190615b70565b925050819055508060400151600a83604051610a359190615661565b90815260200160405180910390206000828254610a529190615c51565b9250508190555060006040518060a00160405280600d5481526020018360200151815260200183604001518152602001600015158152602001848152509050600b8260200151604051610aa59190615661565b9081526020016040518091039020819080600181540180825580915050600190039060005260206000209060050201600090919091909150600082015181600001556020820151816001019080519060200190610b03929190614767565b506040820151816002015560608201518160030160006101000a81548160ff0219169083151502179055506080820151816004019080519060200190610b4a929190614767565b505050600c819080600181540180825580915050600190039060005260206000209060050201600090919091909150600082015181600001556020820151816001019080519060200190610b9f929190614767565b506040820151816002015560608201518160030160006101000a81548160ff0219169083151502179055506080820151816004019080519060200190610be6929190614767565b5050506001600d6000828254610bfc9190615b70565b92505081905550505b505050565b6000600d54905090565b6006828051602081018201805184825260208301602085012081835280955050505050508181548110610c4657600080fd5b90600052602060002001600091509150505481565b60018181548110610c6b57600080fd5b9060005260206000209060050201600091509050806000018054610c8e90615cdd565b80601f0160208091040260200160405190810160405280929190818152602001828054610cba90615cdd565b8015610d075780601f10610cdc57610100808354040283529160200191610d07565b820191906000526020600020905b815481529060010190602001808311610cea57829003601f168201915b505050505090806001018054610d1c90615cdd565b80601f0160208091040260200160405190810160405280929190818152602001828054610d4890615cdd565b8015610d955780601f10610d6a57610100808354040283529160200191610d95565b820191906000526020600020905b815481529060010190602001808311610d7857829003601f168201915b505050505090806002018054610daa90615cdd565b80601f0160208091040260200160405190810160405280929190818152602001828054610dd690615cdd565b8015610e235780601f10610df857610100808354040283529160200191610e23565b820191906000526020600020905b815481529060010190602001808311610e0657829003601f168201915b505050505090806003018054610e3890615cdd565b80601f0160208091040260200160405190810160405280929190818152602001828054610e6490615cdd565b8015610eb15780601f10610e8657610100808354040283529160200191610eb1565b820191906000526020600020905b815481529060010190602001808311610e9457829003601f168201915b5050505050908060040154905085565b60048181548110610ed157600080fd5b90600052602060002090600a0201600091509050806000015490806001018054610efa90615cdd565b80601f0160208091040260200160405190810160405280929190818152602001828054610f2690615cdd565b8015610f735780601f10610f4857610100808354040283529160200191610f73565b820191906000526020600020905b815481529060010190602001808311610f5657829003601f168201915b5050505050908060020154908060030154908060040154908060050160009054906101000a900460ff1690806006015490806007015490806008018054610fb990615cdd565b80601f0160208091040260200160405190810160405280929190818152602001828054610fe590615cdd565b80156110325780601f1061100757610100808354040283529160200191611032565b820191906000526020600020905b81548152906001019060200180831161101557829003601f168201915b505050505090806009015490508a565b6060600c805480602002602001604051908101604052809291908181526020016000905b828210156111eb57838290600052602060002090600502016040518060a0016040529081600082015481526020016001820180546110a390615cdd565b80601f01602080910402602001604051908101604052809291908181526020018280546110cf90615cdd565b801561111c5780601f106110f15761010080835404028352916020019161111c565b820191906000526020600020905b8154815290600101906020018083116110ff57829003601f168201915b50505050508152602001600282015481526020016003820160009054906101000a900460ff1615151515815260200160048201805461115a90615cdd565b80601f016020809104026020016040519081016040528092919081815260200182805461118690615cdd565b80156111d35780601f106111a8576101008083540402835291602001916111d3565b820191906000526020600020905b8154815290600101906020018083116111b657829003601f168201915b50505050508152505081526020019060010190611066565b50505050905090565b6000600a846040516112069190615661565b90815260200160405180910390205414156113d45760006040518060a001604052808681526020018581526020018481526020018381526020016002548152509050806000856040516112599190615661565b90815260200160405180910390206000820151816000019080519060200190611283929190614767565b5060208201518160010190805190602001906112a0929190614767565b5060408201518160020190805190602001906112bd929190614767565b5060608201518160030190805190602001906112da929190614767565b506080820151816004015590505060018190806001815401808255809150506001900390600052602060002090600502016000909190919091506000820151816000019080519060200190611330929190614767565b50602082015181600101908051906020019061134d929190614767565b50604082015181600201908051906020019061136a929190614767565b506060820151816003019080519060200190611387929190614767565b506080820151816004015550506064600a856040516113a69190615661565b9081526020016040518091039020819055506001600260008282546113cb9190615b70565b92505081905550505b50505050565b600a818051602081018201805184825260208301602085012081835280955050505050506000915090505481565b6009826040516114189190615661565b90815260200160405180910390208190806001815401808255809150506001900390600052602060002001600090919091909150555050565b600b82805160208101820180518482526020830160208501208183528095505050505050818154811061148357600080fd5b9060005260206000209060050201600091509150508060000154908060010180546114ad90615cdd565b80601f01602080910402602001604051908101604052809291908181526020018280546114d990615cdd565b80156115265780601f106114fb57610100808354040283529160200191611526565b820191906000526020600020905b81548152906001019060200180831161150957829003601f168201915b5050505050908060020154908060030160009054906101000a900460ff169080600401805461155490615cdd565b80601f016020809104026020016040519081016040528092919081815260200182805461158090615cdd565b80156115cd5780601f106115a2576101008083540402835291602001916115cd565b820191906000526020600020905b8154815290600101906020018083116115b057829003601f168201915b5050505050905085565b6060600b826040516115e99190615661565b9081526020016040518091039020805480602002602001604051908101604052809291908181526020016000905b8282101561179c57838290600052602060002090600502016040518060a00160405290816000820154815260200160018201805461165490615cdd565b80601f016020809104026020016040519081016040528092919081815260200182805461168090615cdd565b80156116cd5780601f106116a2576101008083540402835291602001916116cd565b820191906000526020600020905b8154815290600101906020018083116116b057829003601f168201915b50505050508152602001600282015481526020016003820160009054906101000a900460ff1615151515815260200160048201805461170b90615cdd565b80601f016020809104026020016040519081016040528092919081815260200182805461173790615cdd565b80156117845780601f1061175957610100808354040283529160200191611784565b820191906000526020600020905b81548152906001019060200180831161176757829003601f168201915b50505050508152505081526020019060010190611617565b505050509050919050565b6000818051602081018201805184825260208301602085012081835280955050505050506000915090508060000180546117e090615cdd565b80601f016020809104026020016040519081016040528092919081815260200182805461180c90615cdd565b80156118595780601f1061182e57610100808354040283529160200191611859565b820191906000526020600020905b81548152906001019060200180831161183c57829003601f168201915b50505050509080600101805461186e90615cdd565b80601f016020809104026020016040519081016040528092919081815260200182805461189a90615cdd565b80156118e75780601f106118bc576101008083540402835291602001916118e7565b820191906000526020600020905b8154815290600101906020018083116118ca57829003601f168201915b5050505050908060020180546118fc90615cdd565b80601f016020809104026020016040519081016040528092919081815260200182805461192890615cdd565b80156119755780601f1061194a57610100808354040283529160200191611975565b820191906000526020600020905b81548152906001019060200180831161195857829003601f168201915b50505050509080600301805461198a90615cdd565b80601f01602080910402602001604051908101604052809291908181526020018280546119b690615cdd565b8015611a035780601f106119d857610100808354040283529160200191611a03565b820191906000526020600020905b8154815290600101906020018083116119e657829003601f168201915b5050505050908060040154905085565b600e8181548110611a2357600080fd5b9060005260206000209060040201600091509050806000015490806001018054611a4c90615cdd565b80601f0160208091040260200160405190810160405280929190818152602001828054611a7890615cdd565b8015611ac55780601f10611a9a57610100808354040283529160200191611ac5565b820191906000526020600020905b815481529060010190602001808311611aa857829003601f168201915b5050505050908060020154908060030160009054906101000a900460ff16908060030160019054906101000a900460ff16905085565b6008828051602081018201805184825260208301602085012081835280955050505050508181548110611b2d57600080fd5b90600052602060002001600091509150505481565b6000600a82604051611b549190615661565b9081526020016040518091039020549050919050565b611b72614734565b600e8281548110611bac577f4e487b7100000000000000000000000000000000000000000000000000000000600052603260045260246000fd5b90600052602060002090600402016040518060a001604052908160008201548152602001600182018054611bdf90615cdd565b80601f0160208091040260200160405190810160405280929190818152602001828054611c0b90615cdd565b8015611c585780601f10611c2d57610100808354040283529160200191611c58565b820191906000526020600020905b815481529060010190602001808311611c3b57829003601f168201915b50505050508152602001600282015481526020016003820160009054906101000a900460ff161515151581526020016003820160019054906101000a900460ff1615151515815250509050919050565b6000600a82604051611cba9190615661565b9081526020016040518091039020819055506103e8600a82604051611cdf9190615661565b90815260200160405180910390206000828254611cfc9190615b70565b9250508190555050565b60606004805480602002602001604051908101604052809291908181526020016000905b82821015611ee257838290600052602060002090600a02016040518061014001604052908160008201548152602001600182018054611d6890615cdd565b80601f0160208091040260200160405190810160405280929190818152602001828054611d9490615cdd565b8015611de15780601f10611db657610100808354040283529160200191611de1565b820191906000526020600020905b815481529060010190602001808311611dc457829003601f168201915b505050505081526020016002820154815260200160038201548152602001600482015481526020016005820160009054906101000a900460ff161515151581526020016006820154815260200160078201548152602001600882018054611e4790615cdd565b80601f0160208091040260200160405190810160405280929190818152602001828054611e7390615cdd565b8015611ec05780601f10611e9557610100808354040283529160200191611ec0565b820191906000526020600020905b815481529060010190602001808311611ea357829003601f168201915b5050505050815260200160098201548152505081526020019060010190611d2a565b50505050905090565b611ef36147ed565b600c8281548110611f2d577f4e487b7100000000000000000000000000000000000000000000000000000000600052603260045260246000fd5b90600052602060002090600502016040518060a001604052908160008201548152602001600182018054611f6090615cdd565b80601f0160208091040260200160405190810160405280929190818152602001828054611f8c90615cdd565b8015611fd95780601f10611fae57610100808354040283529160200191611fd9565b820191906000526020600020905b815481529060010190602001808311611fbc57829003601f168201915b50505050508152602001600282015481526020016003820160009054906101000a900460ff1615151515815260200160048201805461201790615cdd565b80601f016020809104026020016040519081016040528092919081815260200182805461204390615cdd565b80156120905780601f1061206557610100808354040283529160200191612090565b820191906000526020600020905b81548152906001019060200180831161207357829003601f168201915b5050505050815250509050919050565b6000600c82815481106120dc577f4e487b7100000000000000000000000000000000000000000000000000000000600052603260045260246000fd5b906000526020600020906005020160010180546120f890615cdd565b80601f016020809104026020016040519081016040528092919081815260200182805461212490615cdd565b80156121715780601f1061214657610100808354040283529160200191612171565b820191906000526020600020905b81548152906001019060200180831161215457829003601f168201915b5050505050905060006124ef600b8360405161218d9190615661565b9081526020016040518091039020805480602002602001604051908101604052809291908181526020016000905b8282101561234057838290600052602060002090600502016040518060a0016040529081600082015481526020016001820180546121f890615cdd565b80601f016020809104026020016040519081016040528092919081815260200182805461222490615cdd565b80156122715780601f1061224657610100808354040283529160200191612271565b820191906000526020600020905b81548152906001019060200180831161225457829003601f168201915b50505050508152602001600282015481526020016003820160009054906101000a900460ff161515151581526020016004820180546122af90615cdd565b80601f01602080910402602001604051908101604052809291908181526020018280546122db90615cdd565b80156123285780601f106122fd57610100808354040283529160200191612328565b820191906000526020600020905b81548152906001019060200180831161230b57829003601f168201915b505050505081525050815260200190600101906121bb565b50505050600c858154811061237e577f4e487b7100000000000000000000000000000000000000000000000000000000600052603260045260246000fd5b90600052602060002090600502016040518060a0016040529081600082015481526020016001820180546123b190615cdd565b80601f01602080910402602001604051908101604052809291908181526020018280546123dd90615cdd565b801561242a5780601f106123ff5761010080835404028352916020019161242a565b820191906000526020600020905b81548152906001019060200180831161240d57829003601f168201915b50505050508152602001600282015481526020016003820160009054906101000a900460ff1615151515815260200160048201805461246890615cdd565b80601f016020809104026020016040519081016040528092919081815260200182805461249490615cdd565b80156124e15780601f106124b6576101008083540402835291602001916124e1565b820191906000526020600020905b8154815290600101906020018083116124c457829003601f168201915b5050505050815250506145e2565b9050600a600c848154811061252d577f4e487b7100000000000000000000000000000000000000000000000000000000600052603260045260246000fd5b9060005260206000209060050201600201546125499190615bc6565b600c8481548110612583577f4e487b7100000000000000000000000000000000000000000000000000000000600052603260045260246000fd5b90600052602060002090600502016002015461259f9190615b70565b600a600c85815481106125db577f4e487b7100000000000000000000000000000000000000000000000000000000600052603260045260246000fd5b90600052602060002090600502016004016040516125f99190615678565b908152602001604051809103902060008282546126169190615b70565b92505081905550600a600c8481548110612659577f4e487b7100000000000000000000000000000000000000000000000000000000600052603260045260246000fd5b9060005260206000209060050201600201546126759190615bc6565b600c84815481106126af577f4e487b7100000000000000000000000000000000000000000000000000000000600052603260045260246000fd5b9060005260206000209060050201600201546126cb9190615b70565b600a600c8581548110612707577f4e487b7100000000000000000000000000000000000000000000000000000000600052603260045260246000fd5b90600052602060002090600502016001016040516127259190615678565b908152602001604051809103902060008282546127429190615c51565b925050819055506001600b8360405161275b9190615661565b908152602001604051809103902082815481106127a1577f4e487b7100000000000000000000000000000000000000000000000000000000600052603260045260246000fd5b906000526020600020906005020160030160006101000a81548160ff0219169083151502179055506001600c8481548110612805577f4e487b7100000000000000000000000000000000000000000000000000000000600052603260045260246000fd5b906000526020600020906005020160030160006101000a81548160ff021916908315150217905550505050565b61283a61481e565b60048281548110612874577f4e487b7100000000000000000000000000000000000000000000000000000000600052603260045260246000fd5b90600052602060002090600a020160405180610140016040529081600082015481526020016001820180546128a890615cdd565b80601f01602080910402602001604051908101604052809291908181526020018280546128d490615cdd565b80156129215780601f106128f657610100808354040283529160200191612921565b820191906000526020600020905b81548152906001019060200180831161290457829003601f168201915b505050505081526020016002820154815260200160038201548152602001600482015481526020016005820160009054906101000a900460ff16151515158152602001600682015481526020016007820154815260200160088201805461298790615cdd565b80601f01602080910402602001604051908101604052809291908181526020018280546129b390615cdd565b8015612a005780601f106129d557610100808354040283529160200191612a00565b820191906000526020600020905b8154815290600101906020018083116129e357829003601f168201915b505050505081526020016009820154815250509050919050565b6007828051602081018201805184825260208301602085012081835280955050505050508181548110612a4c57600080fd5b90600052602060002001600091509150505481565b6000600a82612a709190615d89565b148015612a7d5750600081115b15612b6a57600e6040518060a00160405280600f548152602001848152602001838152602001600015158152602001600015158152509080600181540180825580915050600190039060005260206000209060040201600090919091909150600082015181600001556020820151816001019080519060200190612b02929190614767565b506040820151816002015560608201518160030160006101000a81548160ff02191690831515021790555060808201518160030160016101000a81548160ff02191690831515021790555050506001600f6000828254612b629190615b70565b925050819055505b5050565b6009828051602081018201805184825260208301602085012081835280955050505050508181548110612ba057600080fd5b90600052602060002001600091509150505481565b600060405180610140016040528060055481526020018a8152602001898152602001888152602001878152602001600115158152602001868152602001858152602001848152602001838152509050600389604051612c149190615661565b90815260200160405180910390208190806001815401808255809150506001900390600052602060002090600a0201600090919091909150600082015181600001556020820151816001019080519060200190612c72929190614767565b5060408201518160020155606082015181600301556080820151816004015560a08201518160050160006101000a81548160ff02191690831515021790555060c0820151816006015560e08201518160070155610100820151816008019080519060200190612ce2929190614767565b506101208201518160090155505060048190806001815401808255809150506001900390600052602060002090600a0201600090919091909150600082015181600001556020820151816001019080519060200190612d42929190614767565b5060408201518160020155606082015181600301556080820151816004015560a08201518160050160006101000a81548160ff02191690831515021790555060c0820151816006015560e08201518160070155610100820151816008019080519060200190612db2929190614767565b5061012082015181600901555050600160056000828254612dd39190615b70565b92505081905550600689604051612dea9190615661565b9081526020016040518091039020849080600181540180825580915050600190039060005260206000200160009091909190915055505050505050505050565b600060048381548110612e66577f4e487b7100000000000000000000000000000000000000000000000000000000600052603260045260246000fd5b90600052602060002090600a02016009015460048481548110612eb2577f4e487b7100000000000000000000000000000000000000000000000000000000600052603260045260246000fd5b90600052602060002090600a020160060154612ece9190615bf7565b9050600a82604051612ee09190615661565b908152602001604051809103902054811161367357600060048481548110612f31577f4e487b7100000000000000000000000000000000000000000000000000000000600052603260045260246000fd5b90600052602060002090600a02016001018054612f4d90615cdd565b80601f0160208091040260200160405190810160405280929190818152602001828054612f7990615cdd565b8015612fc65780601f10612f9b57610100808354040283529160200191612fc6565b820191906000526020600020905b815481529060010190602001808311612fa957829003601f168201915b5050505050905060006133aa600383604051612fe29190615661565b9081526020016040518091039020805480602002602001604051908101604052809291908181526020016000905b828210156131c857838290600052602060002090600a0201604051806101400160405290816000820154815260200160018201805461304e90615cdd565b80601f016020809104026020016040519081016040528092919081815260200182805461307a90615cdd565b80156130c75780601f1061309c576101008083540402835291602001916130c7565b820191906000526020600020905b8154815290600101906020018083116130aa57829003601f168201915b505050505081526020016002820154815260200160038201548152602001600482015481526020016005820160009054906101000a900460ff16151515158152602001600682015481526020016007820154815260200160088201805461312d90615cdd565b80601f016020809104026020016040519081016040528092919081815260200182805461315990615cdd565b80156131a65780601f1061317b576101008083540402835291602001916131a6565b820191906000526020600020905b81548152906001019060200180831161318957829003601f168201915b5050505050815260200160098201548152505081526020019060010190613010565b5050505060048781548110613206577f4e487b7100000000000000000000000000000000000000000000000000000000600052603260045260246000fd5b90600052602060002090600a0201604051806101400160405290816000820154815260200160018201805461323a90615cdd565b80601f016020809104026020016040519081016040528092919081815260200182805461326690615cdd565b80156132b35780601f10613288576101008083540402835291602001916132b3565b820191906000526020600020905b81548152906001019060200180831161329657829003601f168201915b505050505081526020016002820154815260200160038201548152602001600482015481526020016005820160009054906101000a900460ff16151515158152602001600682015481526020016007820154815260200160088201805461331990615cdd565b80601f016020809104026020016040519081016040528092919081815260200182805461334590615cdd565b80156133925780601f1061336757610100808354040283529160200191613392565b820191906000526020600020905b81548152906001019060200180831161337557829003601f168201915b5050505050815260200160098201548152505061466b565b905060006003836040516133be9190615661565b90815260200160405180910390208281548110613404577f4e487b7100000000000000000000000000000000000000000000000000000000600052603260045260246000fd5b90600052602060002090600a020160050160006101000a81548160ff021916908315150217905550600060048681548110613468577f4e487b7100000000000000000000000000000000000000000000000000000000600052603260045260246000fd5b90600052602060002090600a020160050160006101000a81548160ff02191690831515021790555082600a856040516134a19190615661565b908152602001604051809103902060008282546134be9190615c51565b9250508190555082600a836040516134d69190615661565b908152602001604051809103902060008282546134f39190615b70565b9250508190555060078260405161350a9190615661565b908152602001604051809103902060048681548110613552577f4e487b7100000000000000000000000000000000000000000000000000000000600052603260045260246000fd5b90600052602060002090600a020160060154908060018154018082558091505060019003906000526020600020016000909190919091505560088260405161359a9190615661565b9081526020016040518091039020600486815481106135e2577f4e487b7100000000000000000000000000000000000000000000000000000000600052603260045260246000fd5b90600052602060002090600a0201600901546004878154811061362e577f4e487b7100000000000000000000000000000000000000000000000000000000600052603260045260246000fd5b90600052602060002090600a02016006015461364a9190615bf7565b908060018154018082558091505060019003906000526020600020016000909190919091505550505b505050565b613680614873565b600080836040516136919190615661565b90815260200160405180910390206040518060a00160405290816000820180546136ba90615cdd565b80601f01602080910402602001604051908101604052809291908181526020018280546136e690615cdd565b80156137335780601f1061370857610100808354040283529160200191613733565b820191906000526020600020905b81548152906001019060200180831161371657829003601f168201915b5050505050815260200160018201805461374c90615cdd565b80601f016020809104026020016040519081016040528092919081815260200182805461377890615cdd565b80156137c55780601f1061379a576101008083540402835291602001916137c5565b820191906000526020600020905b8154815290600101906020018083116137a857829003601f168201915b505050505081526020016002820180546137de90615cdd565b80601f016020809104026020016040519081016040528092919081815260200182805461380a90615cdd565b80156138575780601f1061382c57610100808354040283529160200191613857565b820191906000526020600020905b81548152906001019060200180831161383a57829003601f168201915b5050505050815260200160038201805461387090615cdd565b80601f016020809104026020016040519081016040528092919081815260200182805461389c90615cdd565b80156138e95780601f106138be576101008083540402835291602001916138e9565b820191906000526020600020905b8154815290600101906020018083116138cc57829003601f168201915b50505050508152602001600482015481525050905060006040518061016001604052808360000151815260200183602001518152602001836040015181526020018360600151815260200183608001518152602001600684602001516040516139529190615661565b90815260200160405180910390208054806020026020016040519081016040528092919081815260200182805480156139aa57602002820191906000526020600020905b815481526020019060010190808311613996575b50505050508152602001600784602001516040516139c89190615661565b9081526020016040518091039020805480602002602001604051908101604052809291908181526020018280548015613a2057602002820191906000526020600020905b815481526020019060010190808311613a0c575b5050505050815260200160088460200151604051613a3e9190615661565b9081526020016040518091039020805480602002602001604051908101604052809291908181526020018280548015613a9657602002820191906000526020600020905b815481526020019060010190808311613a82575b5050505050815260200160098460200151604051613ab49190615661565b9081526020016040518091039020805480602002602001604051908101604052809291908181526020018280548015613b0c57602002820191906000526020600020905b815481526020019060010190808311613af8575b5050505050815260200160038460200151604051613b2a9190615661565b9081526020016040518091039020805480602002602001604051908101604052809291908181526020016000905b82821015613d1057838290600052602060002090600a02016040518061014001604052908160008201548152602001600182018054613b9690615cdd565b80601f0160208091040260200160405190810160405280929190818152602001828054613bc290615cdd565b8015613c0f5780601f10613be457610100808354040283529160200191613c0f565b820191906000526020600020905b815481529060010190602001808311613bf257829003601f168201915b505050505081526020016002820154815260200160038201548152602001600482015481526020016005820160009054906101000a900460ff161515151581526020016006820154815260200160078201548152602001600882018054613c7590615cdd565b80601f0160208091040260200160405190810160405280929190818152602001828054613ca190615cdd565b8015613cee5780601f10613cc357610100808354040283529160200191613cee565b820191906000526020600020905b815481529060010190602001808311613cd157829003601f168201915b5050505050815260200160098201548152505081526020019060010190613b58565b505050508152602001600b86604051613d299190615661565b9081526020016040518091039020805480602002602001604051908101604052809291908181526020016000905b82821015613edc57838290600052602060002090600502016040518060a001604052908160008201548152602001600182018054613d9490615cdd565b80601f0160208091040260200160405190810160405280929190818152602001828054613dc090615cdd565b8015613e0d5780601f10613de257610100808354040283529160200191613e0d565b820191906000526020600020905b815481529060010190602001808311613df057829003601f168201915b50505050508152602001600282015481526020016003820160009054906101000a900460ff16151515158152602001600482018054613e4b90615cdd565b80601f0160208091040260200160405190810160405280929190818152602001828054613e7790615cdd565b8015613ec45780601f10613e9957610100808354040283529160200191613ec4565b820191906000526020600020905b815481529060010190602001808311613ea757829003601f168201915b50505050508152505081526020019060010190613d57565b5050505081525090508092505050919050565b6060600e805480602002602001604051908101604052809291908181526020016000905b8282101561402157838290600052602060002090600402016040518060a001604052908160008201548152602001600182018054613f5090615cdd565b80601f0160208091040260200160405190810160405280929190818152602001828054613f7c90615cdd565b8015613fc95780601f10613f9e57610100808354040283529160200191613fc9565b820191906000526020600020905b815481529060010190602001808311613fac57829003601f168201915b50505050508152602001600282015481526020016003820160009054906101000a900460ff161515151581526020016003820160019054906101000a900460ff16151515158152505081526020019060010190613f13565b50505050905090565b60606001805480602002602001604051908101604052809291908181526020016000905b828210156142d257838290600052602060002090600502016040518060a001604052908160008201805461408190615cdd565b80601f01602080910402602001604051908101604052809291908181526020018280546140ad90615cdd565b80156140fa5780601f106140cf576101008083540402835291602001916140fa565b820191906000526020600020905b8154815290600101906020018083116140dd57829003601f168201915b5050505050815260200160018201805461411390615cdd565b80601f016020809104026020016040519081016040528092919081815260200182805461413f90615cdd565b801561418c5780601f106141615761010080835404028352916020019161418c565b820191906000526020600020905b81548152906001019060200180831161416f57829003601f168201915b505050505081526020016002820180546141a590615cdd565b80601f01602080910402602001604051908101604052809291908181526020018280546141d190615cdd565b801561421e5780601f106141f35761010080835404028352916020019161421e565b820191906000526020600020905b81548152906001019060200180831161420157829003601f168201915b5050505050815260200160038201805461423790615cdd565b80601f016020809104026020016040519081016040528092919081815260200182805461426390615cdd565b80156142b05780601f10614285576101008083540402835291602001916142b0565b820191906000526020600020905b81548152906001019060200180831161429357829003601f168201915b505050505081526020016004820154815250508152602001906001019061404e565b50505050905090565b600c81815481106142eb57600080fd5b906000526020600020906005020160009150905080600001549080600101805461431490615cdd565b80601f016020809104026020016040519081016040528092919081815260200182805461434090615cdd565b801561438d5780601f106143625761010080835404028352916020019161438d565b820191906000526020600020905b81548152906001019060200180831161437057829003601f168201915b5050505050908060020154908060030160009054906101000a900460ff16908060040180546143bb90615cdd565b80601f01602080910402602001604051908101604052809291908181526020018280546143e790615cdd565b80156144345780601f1061440957610100808354040283529160200191614434565b820191906000526020600020905b81548152906001019060200180831161441757829003601f168201915b5050505050905085565b600382805160208101820180518482526020830160208501208183528095505050505050818154811061447057600080fd5b90600052602060002090600a02016000915091505080600001549080600101805461449a90615cdd565b80601f01602080910402602001604051908101604052809291908181526020018280546144c690615cdd565b80156145135780601f106144e857610100808354040283529160200191614513565b820191906000526020600020905b8154815290600101906020018083116144f657829003601f168201915b5050505050908060020154908060030154908060040154908060050160009054906101000a900460ff169080600601549080600701549080600801805461455990615cdd565b80601f016020809104026020016040519081016040528092919081815260200182805461458590615cdd565b80156145d25780601f106145a7576101008083540402835291602001916145d2565b820191906000526020600020905b8154815290600101906020018083116145b557829003601f168201915b505050505090806009015490508a565b600080600090505b835181101561465f578260000151848281518110614631577f4e487b7100000000000000000000000000000000000000000000000000000000600052603260045260246000fd5b602002602001015160000151141561464c5780915050614665565b808061465790615d40565b9150506145ea565b50606390505b92915050565b600080600090505b83518110156146e85782600001518482815181106146ba577f4e487b7100000000000000000000000000000000000000000000000000000000600052603260045260246000fd5b60200260200101516000015114156146d557809150506146ee565b80806146e090615d40565b915050614673565b50606390505b92915050565b50805461470090615cdd565b6000825580601f106147125750614731565b601f01602090049060005260206000209081019061473091906148cd565b5b50565b6040518060a001604052806000815260200160608152602001600081526020016000151581526020016000151581525090565b82805461477390615cdd565b90600052602060002090601f01602090048101928261479557600085556147dc565b82601f106147ae57805160ff19168380011785556147dc565b828001600101855582156147dc579182015b828111156147db5782518255916020019190600101906147c0565b5b5090506147e991906148cd565b5090565b6040518060a00160405280600081526020016060815260200160008152602001600015158152602001606081525090565b6040518061014001604052806000815260200160608152602001600081526020016000815260200160008152602001600015158152602001600081526020016000815260200160608152602001600081525090565b60405180610160016040528060608152602001606081526020016060815260200160608152602001600081526020016060815260200160608152602001606081526020016060815260200160608152602001606081525090565b5b808211156148e65760008160009055506001016148ce565b5090565b60006148fd6148f8846159b3565b61598e565b90508281526020810184848401111561491557600080fd5b614920848285615c9b565b509392505050565b600082601f83011261493957600080fd5b81356149498482602086016148ea565b91505092915050565b60008135905061496181615e87565b92915050565b60006020828403121561497957600080fd5b600082013567ffffffffffffffff81111561499357600080fd5b61499f84828501614928565b91505092915050565b600080600080608085870312156149be57600080fd5b600085013567ffffffffffffffff8111156149d857600080fd5b6149e487828801614928565b945050602085013567ffffffffffffffff811115614a0157600080fd5b614a0d87828801614928565b935050604085013567ffffffffffffffff811115614a2a57600080fd5b614a3687828801614928565b925050606085013567ffffffffffffffff811115614a5357600080fd5b614a5f87828801614928565b91505092959194509250565b60008060408385031215614a7e57600080fd5b600083013567ffffffffffffffff811115614a9857600080fd5b614aa485828601614928565b9250506020614ab585828601614952565b9150509250929050565b600080600080600080600080610100898b031215614adc57600080fd5b600089013567ffffffffffffffff811115614af657600080fd5b614b028b828c01614928565b9850506020614b138b828c01614952565b9750506040614b248b828c01614952565b9650506060614b358b828c01614952565b9550506080614b468b828c01614952565b94505060a0614b578b828c01614952565b93505060c089013567ffffffffffffffff811115614b7457600080fd5b614b808b828c01614928565b92505060e0614b918b828c01614952565b9150509295985092959890939650565b600060208284031215614bb357600080fd5b6000614bc184828501614952565b91505092915050565b60008060408385031215614bdd57600080fd5b6000614beb85828601614952565b925050602083013567ffffffffffffffff811115614c0857600080fd5b614c1485828601614928565b9150509250929050565b6000614c2a83836150e2565b905092915050565b6000614c3e838361529b565b905092915050565b6000614c528383615395565b905092915050565b6000614c668383615481565b905092915050565b6000614c7a8383615643565b60208301905092915050565b6000614c9182615a49565b614c9b8185615acc565b935083602082028501614cad856159e4565b8060005b85811015614ce95784840389528151614cca8582614c1e565b9450614cd583615a8b565b925060208a01995050600181019050614cb1565b50829750879550505050505092915050565b6000614d0682615a54565b614d108185615add565b935083602082028501614d22856159f4565b8060005b85811015614d5e5784840389528151614d3f8582614c32565b9450614d4a83615a98565b925060208a01995050600181019050614d26565b50829750879550505050505092915050565b6000614d7b82615a54565b614d858185615aee565b935083602082028501614d97856159f4565b8060005b85811015614dd35784840389528151614db48582614c32565b9450614dbf83615a98565b925060208a01995050600181019050614d9b565b50829750879550505050505092915050565b6000614df082615a5f565b614dfa8185615aff565b935083602082028501614e0c85615a04565b8060005b85811015614e485784840389528151614e298582614c46565b9450614e3483615aa5565b925060208a01995050600181019050614e10565b50829750879550505050505092915050565b6000614e6582615a6a565b614e6f8185615b10565b935083602082028501614e8185615a14565b8060005b85811015614ebd5784840389528151614e9e8582614c5a565b9450614ea983615ab2565b925060208a01995050600181019050614e85565b50829750879550505050505092915050565b6000614eda82615a6a565b614ee48185615b21565b935083602082028501614ef685615a14565b8060005b85811015614f325784840389528151614f138582614c5a565b9450614f1e83615ab2565b925060208a01995050600181019050614efa565b50829750879550505050505092915050565b6000614f4f82615a75565b614f598185615b32565b9350614f6483615a24565b8060005b83811015614f95578151614f7c8882614c6e565b9750614f8783615abf565b925050600181019050614f68565b5085935050505092915050565b614fab81615c85565b82525050565b614fba81615c85565b82525050565b6000614fcb82615a80565b614fd58185615b43565b9350614fe5818560208601615caa565b614fee81615e76565b840191505092915050565b600061500482615a80565b61500e8185615b54565b935061501e818560208601615caa565b61502781615e76565b840191505092915050565b600061503d82615a80565b6150478185615b65565b9350615057818560208601615caa565b80840191505092915050565b6000815461507081615cdd565b61507a8186615b65565b9450600182166000811461509557600181146150a6576150d9565b60ff198316865281860193506150d9565b6150af85615a34565b60005b838110156150d1578154818901526001820191506020810190506150b2565b838801955050505b50505092915050565b600060a08301600083015184820360008601526150ff8282614fc0565b915050602083015184820360208601526151198282614fc0565b915050604083015184820360408601526151338282614fc0565b9150506060830151848203606086015261514d8282614fc0565b91505060808301516151626080860182615643565b508091505092915050565b600061016083016000830151848203600086015261518b8282614fc0565b915050602083015184820360208601526151a58282614fc0565b915050604083015184820360408601526151bf8282614fc0565b915050606083015184820360608601526151d98282614fc0565b91505060808301516151ee6080860182615643565b5060a083015184820360a08601526152068282614f44565b91505060c083015184820360c08601526152208282614f44565b91505060e083015184820360e086015261523a8282614f44565b9150506101008301518482036101008601526152568282614f44565b9150506101208301518482036101208601526152728282614e5a565b91505061014083015184820361014086015261528e8282614cfb565b9150508091505092915050565b600060a0830160008301516152b36000860182615643565b50602083015184820360208601526152cb8282614fc0565b91505060408301516152e06040860182615643565b5060608301516152f36060860182614fa2565b506080830151848203608086015261530b8282614fc0565b9150508091505092915050565b600060a0830160008301516153306000860182615643565b50602083015184820360208601526153488282614fc0565b915050604083015161535d6040860182615643565b5060608301516153706060860182614fa2565b50608083015184820360808601526153888282614fc0565b9150508091505092915050565b600060a0830160008301516153ad6000860182615643565b50602083015184820360208601526153c58282614fc0565b91505060408301516153da6040860182615643565b5060608301516153ed6060860182614fa2565b5060808301516154006080860182614fa2565b508091505092915050565b600060a0830160008301516154236000860182615643565b506020830151848203602086015261543b8282614fc0565b91505060408301516154506040860182615643565b5060608301516154636060860182614fa2565b5060808301516154766080860182614fa2565b508091505092915050565b60006101408301600083015161549a6000860182615643565b50602083015184820360208601526154b28282614fc0565b91505060408301516154c76040860182615643565b5060608301516154da6060860182615643565b5060808301516154ed6080860182615643565b5060a083015161550060a0860182614fa2565b5060c083015161551360c0860182615643565b5060e083015161552660e0860182615643565b506101008301518482036101008601526155408282614fc0565b915050610120830151615557610120860182615643565b508091505092915050565b60006101408301600083015161557b6000860182615643565b50602083015184820360208601526155938282614fc0565b91505060408301516155a86040860182615643565b5060608301516155bb6060860182615643565b5060808301516155ce6080860182615643565b5060a08301516155e160a0860182614fa2565b5060c08301516155f460c0860182615643565b5060e083015161560760e0860182615643565b506101008301518482036101008601526156218282614fc0565b915050610120830151615638610120860182615643565b508091505092915050565b61564c81615c91565b82525050565b61565b81615c91565b82525050565b600061566d8284615032565b915081905092915050565b60006156848284615063565b915081905092915050565b600060208201905081810360008301526156a98184614c86565b905092915050565b600060208201905081810360008301526156cb8184614d70565b905092915050565b600060208201905081810360008301526156ed8184614de5565b905092915050565b6000602082019050818103600083015261570f8184614ecf565b905092915050565b600060a08201905081810360008301526157318188614ff9565b905081810360208301526157458187614ff9565b905081810360408301526157598186614ff9565b9050818103606083015261576d8185614ff9565b905061577c6080830184615652565b9695505050505050565b600060208201905081810360008301526157a0818461516d565b905092915050565b600060208201905081810360008301526157c28184615318565b905092915050565b600060208201905081810360008301526157e4818461540b565b905092915050565b600060208201905081810360008301526158068184615562565b905092915050565b60006020820190506158236000830184615652565b92915050565b600060a08201905061583e6000830188615652565b81810360208301526158508187614ff9565b905061585f6040830186615652565b61586c6060830185614fb1565b6158796080830184614fb1565b9695505050505050565b600060a0820190506158986000830188615652565b81810360208301526158aa8187614ff9565b90506158b96040830186615652565b6158c66060830185614fb1565b81810360808301526158d88184614ff9565b90509695505050505050565b6000610140820190506158fa600083018d615652565b818103602083015261590c818c614ff9565b905061591b604083018b615652565b615928606083018a615652565b6159356080830189615652565b61594260a0830188614fb1565b61594f60c0830187615652565b61595c60e0830186615652565b81810361010083015261596f8185614ff9565b905061597f610120830184615652565b9b9a5050505050505050505050565b60006159986159a9565b90506159a48282615d0f565b919050565b6000604051905090565b600067ffffffffffffffff8211156159ce576159cd615e47565b5b6159d782615e76565b9050602081019050919050565b6000819050602082019050919050565b6000819050602082019050919050565b6000819050602082019050919050565b6000819050602082019050919050565b6000819050602082019050919050565b60008190508160005260206000209050919050565b600081519050919050565b600081519050919050565b600081519050919050565b600081519050919050565b600081519050919050565b600081519050919050565b6000602082019050919050565b6000602082019050919050565b6000602082019050919050565b6000602082019050919050565b6000602082019050919050565b600082825260208201905092915050565b600082825260208201905092915050565b600082825260208201905092915050565b600082825260208201905092915050565b600082825260208201905092915050565b600082825260208201905092915050565b600082825260208201905092915050565b600082825260208201905092915050565b600082825260208201905092915050565b600081905092915050565b6000615b7b82615c91565b9150615b8683615c91565b9250827fffffffffffffffffffffffffffffffffffffffffffffffffffffffffffffffff03821115615bbb57615bba615dba565b5b828201905092915050565b6000615bd182615c91565b9150615bdc83615c91565b925082615bec57615beb615de9565b5b828204905092915050565b6000615c0282615c91565b9150615c0d83615c91565b9250817fffffffffffffffffffffffffffffffffffffffffffffffffffffffffffffffff0483118215151615615c4657615c45615dba565b5b828202905092915050565b6000615c5c82615c91565b9150615c6783615c91565b925082821015615c7a57615c79615dba565b5b828203905092915050565b60008115159050919050565b6000819050919050565b82818337600083830152505050565b60005b83811015615cc8578082015181840152602081019050615cad565b83811115615cd7576000848401525b50505050565b60006002820490506001821680615cf557607f821691505b60208210811415615d0957615d08615e18565b5b50919050565b615d1882615e76565b810181811067ffffffffffffffff82111715615d3757615d36615e47565b5b80604052505050565b6000615d4b82615c91565b91507fffffffffffffffffffffffffffffffffffffffffffffffffffffffffffffffff821415615d7e57615d7d615dba565b5b600182019050919050565b6000615d9482615c91565b9150615d9f83615c91565b925082615daf57615dae615de9565b5b828206905092915050565b7f4e487b7100000000000000000000000000000000000000000000000000000000600052601160045260246000fd5b7f4e487b7100000000000000000000000000000000000000000000000000000000600052601260045260246000fd5b7f4e487b7100000000000000000000000000000000000000000000000000000000600052602260045260246000fd5b7f4e487b7100000000000000000000000000000000000000000000000000000000600052604160045260246000fd5b6000601f19601f8301169050919050565b615e9081615c91565b8114615e9b57600080fd5b5056fea26469706673582212207a2950e67ec4470744010036d6ce5e5d6e982f0afca2bbbe5f364c458926d4a364736f6c63430008010033",
  "linkReferences": {},
  "deployedLinkReferences": {}
}