{
  "_format": "hh-sol-artifact-1",
  "contractName": "Box",
  "sourceName": "contracts/Box.sol",
  "abi": [
    {
      "inputs": [
        {
          "internalType": "string",
          "name": "name",
          "type": "string"
        },
        {
          "internalType": "string",
          "name": "farmer_id",
          "type": "string"
        },
        {
          "internalType": "string",
          "name": "number",
          "type": "string"
        },
        {
          "internalType": "string",
          "name": "region",
          "type": "string"
        }
      ],
      "name": "add_farmer",
      "outputs": [],
      "stateMutability": "nonpayable",
      "type": "function"
    },
    {
      "inputs": [
        {
          "internalType": "string",
          "name": "farmer_id",
          "type": "string"
        },
        {
          "internalType": "uint256",
          "name": "rating",
          "type": "uint256"
        }
      ],
      "name": "add_rating",
      "outputs": [],
      "stateMutability": "nonpayable",
      "type": "function"
    },
    {
      "inputs": [
        {
          "internalType": "string",
          "name": "farmer_id",
          "type": "string"
        },
        {
          "internalType": "uint256",
          "name": "weight",
          "type": "uint256"
        },
        {
          "internalType": "uint256",
          "name": "hardness",
          "type": "uint256"
        },
        {
          "internalType": "uint256",
          "name": "size",
          "type": "uint256"
        },
        {
          "internalType": "uint256",
          "name": "quantity",
          "type": "uint256"
        },
        {
          "internalType": "uint256",
          "name": "quality_index",
          "type": "uint256"
        },
        {
          "internalType": "string",
          "name": "produce",
          "type": "string"
        },
        {
          "internalType": "uint256",
          "name": "price",
          "type": "uint256"
        }
      ],
      "name": "add_trade",
      "outputs": [],
      "stateMutability": "nonpayable",
      "type": "function"
    },
    {
      "inputs": [
        {
          "internalType": "uint256",
          "name": "",
          "type": "uint256"
        }
      ],
      "name": "all_loans",
      "outputs": [
        {
          "internalType": "uint256",
          "name": "loan_index",
          "type": "uint256"
        },
        {
          "internalType": "string",
          "name": "farmer_id",
          "type": "string"
        },
        {
          "internalType": "uint256",
          "name": "amount",
          "type": "uint256"
        },
        {
          "internalType": "bool",
          "name": "paid",
          "type": "bool"
        },
        {
          "internalType": "string",
          "name": "giver",
          "type": "string"
        }
      ],
      "stateMutability": "view",
      "type": "function"
    },
    {
      "inputs": [
        {
          "internalType": "string",
          "name": "",
          "type": "string"
        },
        {
          "internalType": "uint256",
          "name": "",
          "type": "uint256"
        }
      ],
      "name": "all_order_volumes",
      "outputs": [
        {
          "internalType": "uint256",
          "name": "",
          "type": "uint256"
        }
      ],
      "stateMutability": "view",
      "type": "function"
    },
    {
      "inputs": [
        {
          "internalType": "string",
          "name": "farmer_id",
          "type": "string"
        },
        {
          "internalType": "uint256",
          "name": "amount",
          "type": "uint256"
        }
      ],
      "name": "apply_for_loan",
      "outputs": [],
      "stateMutability": "nonpayable",
      "type": "function"
    },
    {
      "inputs": [
        {
          "internalType": "string",
          "name": "",
          "type": "string"
        },
        {
          "internalType": "uint256",
          "name": "",
          "type": "uint256"
        }
      ],
      "name": "aqis",
      "outputs": [
        {
          "internalType": "uint256",
          "name": "",
          "type": "uint256"
        }
      ],
      "stateMutability": "view",
      "type": "function"
    },
    {
      "inputs": [
        {
          "internalType": "string",
          "name": "",
          "type": "string"
        }
      ],
      "name": "balances",
      "outputs": [
        {
          "internalType": "uint256",
          "name": "",
          "type": "uint256"
        }
      ],
      "stateMutability": "view",
      "type": "function"
    },
    {
      "inputs": [
        {
          "internalType": "uint256",
          "name": "request_id",
          "type": "uint256"
        }
      ],
      "name": "disapprove_loan",
      "outputs": [],
      "stateMutability": "nonpayable",
      "type": "function"
    },
    {
      "inputs": [
        {
          "internalType": "string",
          "name": "",
          "type": "string"
        },
        {
          "internalType": "uint256",
          "name": "",
          "type": "uint256"
        }
      ],
      "name": "farmer_loans",
      "outputs": [
        {
          "internalType": "uint256",
          "name": "loan_index",
          "type": "uint256"
        },
        {
          "internalType": "string",
          "name": "farmer_id",
          "type": "string"
        },
        {
          "internalType": "uint256",
          "name": "amount",
          "type": "uint256"
        },
        {
          "internalType": "bool",
          "name": "paid",
          "type": "bool"
        },
        {
          "internalType": "string",
          "name": "giver",
          "type": "string"
        }
      ],
      "stateMutability": "view",
      "type": "function"
    },
    {
      "inputs": [
        {
          "internalType": "string",
          "name": "",
          "type": "string"
        },
        {
          "internalType": "uint256",
          "name": "",
          "type": "uint256"
        }
      ],
      "name": "farmer_trades",
      "outputs": [
        {
          "internalType": "uint256",
          "name": "id",
          "type": "uint256"
        },
        {
          "internalType": "string",
          "name": "farmer_id",
          "type": "string"
        },
        {
          "internalType": "uint256",
          "name": "weight",
          "type": "uint256"
        },
        {
          "internalType": "uint256",
          "name": "hardness",
          "type": "uint256"
        },
        {
          "internalType": "uint256",
          "name": "size",
          "type": "uint256"
        },
        {
          "internalType": "bool",
          "name": "open",
          "type": "bool"
        },
        {
          "internalType": "uint256",
          "name": "quantity",
          "type": "uint256"
        },
        {
          "internalType": "uint256",
          "name": "quality_index",
          "type": "uint256"
        },
        {
          "internalType": "string",
          "name": "produce",
          "type": "string"
        },
        {
          "internalType": "uint256",
          "name": "price",
          "type": "uint256"
        }
      ],
      "stateMutability": "view",
      "type": "function"
    },
    {
      "inputs": [
        {
          "internalType": "string",
          "name": "",
          "type": "string"
        }
      ],
      "name": "farmers",
      "outputs": [
        {
          "internalType": "string",
          "name": "name",
          "type": "string"
        },
        {
          "internalType": "string",
          "name": "farmer_id",
          "type": "string"
        },
        {
          "internalType": "string",
          "name": "number",
          "type": "string"
        },
        {
          "internalType": "string",
          "name": "region",
          "type": "string"
        },
        {
          "internalType": "uint256",
          "name": "index",
          "type": "uint256"
        }
      ],
      "stateMutability": "view",
      "type": "function"
    },
    {
      "inputs": [
        {
          "internalType": "uint256",
          "name": "",
          "type": "uint256"
        }
      ],
      "name": "farmers_list",
      "outputs": [
        {
          "internalType": "string",
          "name": "name",
          "type": "string"
        },
        {
          "internalType": "string",
          "name": "farmer_id",
          "type": "string"
        },
        {
          "internalType": "string",
          "name": "number",
          "type": "string"
        },
        {
          "internalType": "string",
          "name": "region",
          "type": "string"
        },
        {
          "internalType": "uint256",
          "name": "index",
          "type": "uint256"
        }
      ],
      "stateMutability": "view",
      "type": "function"
    },
    {
      "inputs": [],
      "name": "get_all_farmers",
      "outputs": [
        {
          "components": [
            {
              "internalType": "string",
              "name": "name",
              "type": "string"
            },
            {
              "internalType": "string",
              "name": "farmer_id",
              "type": "string"
            },
            {
              "internalType": "string",
              "name": "number",
              "type": "string"
            },
            {
              "internalType": "string",
              "name": "region",
              "type": "string"
            },
            {
              "internalType": "uint256",
              "name": "index",
              "type": "uint256"
            }
          ],
          "internalType": "struct Box.Farmer[]",
          "name": "",
          "type": "tuple[]"
        }
      ],
      "stateMutability": "view",
      "type": "function"
    },
    {
      "inputs": [],
      "name": "get_all_trades",
      "outputs": [
        {
          "components": [
            {
              "internalType": "uint256",
              "name": "id",
              "type": "uint256"
            },
            {
              "internalType": "string",
              "name": "farmer_id",
              "type": "string"
            },
            {
              "internalType": "uint256",
              "name": "weight",
              "type": "uint256"
            },
            {
              "internalType": "uint256",
              "name": "hardness",
              "type": "uint256"
            },
            {
              "internalType": "uint256",
              "name": "size",
              "type": "uint256"
            },
            {
              "internalType": "bool",
              "name": "open",
              "type": "bool"
            },
            {
              "internalType": "uint256",
              "name": "quantity",
              "type": "uint256"
            },
            {
              "internalType": "uint256",
              "name": "quality_index",
              "type": "uint256"
            },
            {
              "internalType": "string",
              "name": "produce",
              "type": "string"
            },
            {
              "internalType": "uint256",
              "name": "price",
              "type": "uint256"
            }
          ],
          "internalType": "struct Box.Trade[]",
          "name": "",
          "type": "tuple[]"
        }
      ],
      "stateMutability": "view",
      "type": "function"
    },
    {
      "inputs": [
        {
          "internalType": "string",
          "name": "farmer_id",
          "type": "string"
        }
      ],
      "name": "get_balance",
      "outputs": [
        {
          "internalType": "uint256",
          "name": "",
          "type": "uint256"
        }
      ],
      "stateMutability": "view",
      "type": "function"
    },
    {
      "inputs": [
        {
          "internalType": "string",
          "name": "farmer_id",
          "type": "string"
        }
      ],
      "name": "get_farmer",
      "outputs": [
        {
          "components": [
            {
              "internalType": "string",
              "name": "name",
              "type": "string"
            },
            {
              "internalType": "string",
              "name": "farmer_id",
              "type": "string"
            },
            {
              "internalType": "string",
              "name": "number",
              "type": "string"
            },
            {
              "internalType": "string",
              "name": "region",
              "type": "string"
            },
            {
              "internalType": "uint256",
              "name": "index",
              "type": "uint256"
            },
            {
              "internalType": "uint256[]",
              "name": "aqis",
              "type": "uint256[]"
            },
            {
              "internalType": "uint256[]",
              "name": "order_sizes",
              "type": "uint256[]"
            },
            {
              "internalType": "uint256[]",
              "name": "order_volumes",
              "type": "uint256[]"
            },
            {
              "internalType": "uint256[]",
              "name": "ratings",
              "type": "uint256[]"
            },
            {
              "components": [
                {
                  "internalType": "uint256",
                  "name": "id",
                  "type": "uint256"
                },
                {
                  "internalType": "string",
                  "name": "farmer_id",
                  "type": "string"
                },
                {
                  "internalType": "uint256",
                  "name": "weight",
                  "type": "uint256"
                },
                {
                  "internalType": "uint256",
                  "name": "hardness",
                  "type": "uint256"
                },
                {
                  "internalType": "uint256",
                  "name": "size",
                  "type": "uint256"
                },
                {
                  "internalType": "bool",
                  "name": "open",
                  "type": "bool"
                },
                {
                  "internalType": "uint256",
                  "name": "quantity",
                  "type": "uint256"
                },
                {
                  "internalType": "uint256",
                  "name": "quality_index",
                  "type": "uint256"
                },
                {
                  "internalType": "string",
                  "name": "produce",
                  "type": "string"
                },
                {
                  "internalType": "uint256",
                  "name": "price",
                  "type": "uint256"
                }
              ],
              "internalType": "struct Box.Trade[]",
              "name": "trades",
              "type": "tuple[]"
            },
            {
              "components": [
                {
                  "internalType": "uint256",
                  "name": "loan_index",
                  "type": "uint256"
                },
                {
                  "internalType": "string",
                  "name": "farmer_id",
                  "type": "string"
                },
                {
                  "internalType": "uint256",
                  "name": "amount",
                  "type": "uint256"
                },
                {
                  "internalType": "bool",
                  "name": "paid",
                  "type": "bool"
                },
                {
                  "internalType": "string",
                  "name": "giver",
                  "type": "string"
                }
              ],
              "internalType": "struct Box.Loan[]",
              "name": "loans",
              "type": "tuple[]"
            }
          ],
          "internalType": "struct Box.Farmer_Stat",
          "name": "",
          "type": "tuple"
        }
      ],
      "stateMutability": "view",
      "type": "function"
    },
    {
      "inputs": [
        {
          "internalType": "string",
          "name": "farmer_id",
          "type": "string"
        }
      ],
      "name": "get_farmer_loans",
      "outputs": [
        {
          "components": [
            {
              "internalType": "uint256",
              "name": "loan_index",
              "type": "uint256"
            },
            {
              "internalType": "string",
              "name": "farmer_id",
              "type": "string"
            },
            {
              "internalType": "uint256",
              "name": "amount",
              "type": "uint256"
            },
            {
              "internalType": "bool",
              "name": "paid",
              "type": "bool"
            },
            {
              "internalType": "string",
              "name": "giver",
              "type": "string"
            }
          ],
          "internalType": "struct Box.Loan[]",
          "name": "",
          "type": "tuple[]"
        }
      ],
      "stateMutability": "view",
      "type": "function"
    },
    {
      "inputs": [
        {
          "internalType": "string",
          "name": "farmer_id",
          "type": "string"
        }
      ],
      "name": "get_farmer_trades",
      "outputs": [
        {
          "components": [
            {
              "internalType": "uint256",
              "name": "id",
              "type": "uint256"
            },
            {
              "internalType": "string",
              "name": "farmer_id",
              "type": "string"
            },
            {
              "internalType": "uint256",
              "name": "weight",
              "type": "uint256"
            },
            {
              "internalType": "uint256",
              "name": "hardness",
              "type": "uint256"
            },
            {
              "internalType": "uint256",
              "name": "size",
              "type": "uint256"
            },
            {
              "internalType": "bool",
              "name": "open",
              "type": "bool"
            },
            {
              "internalType": "uint256",
              "name": "quantity",
              "type": "uint256"
            },
            {
              "internalType": "uint256",
              "name": "quality_index",
              "type": "uint256"
            },
            {
              "internalType": "string",
              "name": "produce",
              "type": "string"
            },
            {
              "internalType": "uint256",
              "name": "price",
              "type": "uint256"
            }
          ],
          "internalType": "struct Box.Trade[]",
          "name": "",
          "type": "tuple[]"
        }
      ],
      "stateMutability": "view",
      "type": "function"
    },
    {
      "inputs": [
        {
          "internalType": "uint256",
          "name": "id",
          "type": "uint256"
        }
      ],
      "name": "get_loan",
      "outputs": [
        {
          "components": [
            {
              "internalType": "uint256",
              "name": "loan_index",
              "type": "uint256"
            },
            {
              "internalType": "string",
              "name": "farmer_id",
              "type": "string"
            },
            {
              "internalType": "uint256",
              "name": "amount",
              "type": "uint256"
            },
            {
              "internalType": "bool",
              "name": "paid",
              "type": "bool"
            },
            {
              "internalType": "string",
              "name": "giver",
              "type": "string"
            }
          ],
          "internalType": "struct Box.Loan",
          "name": "",
          "type": "tuple"
        }
      ],
      "stateMutability": "view",
      "type": "function"
    },
    {
      "inputs": [],
      "name": "get_loan_count",
      "outputs": [
        {
          "internalType": "uint256",
          "name": "",
          "type": "uint256"
        }
      ],
      "stateMutability": "view",
      "type": "function"
    },
    {
      "inputs": [
        {
          "internalType": "uint256",
          "name": "id",
          "type": "uint256"
        }
      ],
      "name": "get_loan_request",
      "outputs": [
        {
          "components": [
            {
              "internalType": "uint256",
              "name": "loan_index",
              "type": "uint256"
            },
            {
              "internalType": "string",
              "name": "farmer_id",
              "type": "string"
            },
            {
              "internalType": "uint256",
              "name": "amount",
              "type": "uint256"
            },
            {
              "internalType": "bool",
              "name": "disapproved",
              "type": "bool"
            },
            {
              "internalType": "bool",
              "name": "approved",
              "type": "bool"
            }
          ],
          "internalType": "struct Box.Loan_Request",
          "name": "",
          "type": "tuple"
        }
      ],
      "stateMutability": "view",
      "type": "function"
    },
    {
      "inputs": [
        {
          "internalType": "uint256",
          "name": "id",
          "type": "uint256"
        }
      ],
      "name": "get_trade",
      "outputs": [
        {
          "components": [
            {
              "internalType": "uint256",
              "name": "id",
              "type": "uint256"
            },
            {
              "internalType": "string",
              "name": "farmer_id",
              "type": "string"
            },
            {
              "internalType": "uint256",
              "name": "weight",
              "type": "uint256"
            },
            {
              "internalType": "uint256",
              "name": "hardness",
              "type": "uint256"
            },
            {
              "internalType": "uint256",
              "name": "size",
              "type": "uint256"
            },
            {
              "internalType": "bool",
              "name": "open",
              "type": "bool"
            },
            {
              "internalType": "uint256",
              "name": "quantity",
              "type": "uint256"
            },
            {
              "internalType": "uint256",
              "name": "quality_index",
              "type": "uint256"
            },
            {
              "internalType": "string",
              "name": "produce",
              "type": "string"
            },
            {
              "internalType": "uint256",
              "name": "price",
              "type": "uint256"
            }
          ],
          "internalType": "struct Box.Trade",
          "name": "",
          "type": "tuple"
        }
      ],
      "stateMutability": "view",
      "type": "function"
    },
    {
      "inputs": [
        {
          "internalType": "uint256",
          "name": "request_id",
          "type": "uint256"
        },
        {
          "internalType": "string",
          "name": "giver",
          "type": "string"
        }
      ],
      "name": "give_loan",
      "outputs": [],
      "stateMutability": "nonpayable",
      "type": "function"
    },
    {
      "inputs": [],
      "name": "give_loan_requests",
      "outputs": [
        {
          "components": [
            {
              "internalType": "uint256",
              "name": "loan_index",
              "type": "uint256"
            },
            {
              "internalType": "string",
              "name": "farmer_id",
              "type": "string"
            },
            {
              "internalType": "uint256",
              "name": "amount",
              "type": "uint256"
            },
            {
              "internalType": "bool",
              "name": "disapproved",
              "type": "bool"
            },
            {
              "internalType": "bool",
              "name": "approved",
              "type": "bool"
            }
          ],
          "internalType": "struct Box.Loan_Request[]",
          "name": "",
          "type": "tuple[]"
        }
      ],
      "stateMutability": "view",
      "type": "function"
    },
    {
      "inputs": [
        {
          "internalType": "uint256",
          "name": "",
          "type": "uint256"
        }
      ],
      "name": "loan_requests",
      "outputs": [
        {
          "internalType": "uint256",
          "name": "loan_index",
          "type": "uint256"
        },
        {
          "internalType": "string",
          "name": "farmer_id",
          "type": "string"
        },
        {
          "internalType": "uint256",
          "name": "amount",
          "type": "uint256"
        },
        {
          "internalType": "bool",
          "name": "disapproved",
          "type": "bool"
        },
        {
          "internalType": "bool",
          "name": "approved",
          "type": "bool"
        }
      ],
      "stateMutability": "view",
      "type": "function"
    },
    {
      "inputs": [
        {
          "internalType": "uint256",
          "name": "loan_index",
          "type": "uint256"
        }
      ],
      "name": "mark_loan_as_paid",
      "outputs": [],
      "stateMutability": "nonpayable",
      "type": "function"
    },
    {
      "inputs": [
        {
          "internalType": "string",
          "name": "",
          "type": "string"
        },
        {
          "internalType": "uint256",
          "name": "",
          "type": "uint256"
        }
      ],
      "name": "order_sizes",
      "outputs": [
        {
          "internalType": "uint256",
          "name": "",
          "type": "uint256"
        }
      ],
      "stateMutability": "view",
      "type": "function"
    },
    {
      "inputs": [
        {
          "internalType": "string",
          "name": "",
          "type": "string"
        },
        {
          "internalType": "uint256",
          "name": "",
          "type": "uint256"
        }
      ],
      "name": "ratings",
      "outputs": [
        {
          "internalType": "uint256",
          "name": "",
          "type": "uint256"
        }
      ],
      "stateMutability": "view",
      "type": "function"
    },
    {
      "inputs": [
        {
          "internalType": "uint256",
          "name": "trade_id",
          "type": "uint256"
        },
        {
          "internalType": "string",
          "name": "payer",
          "type": "string"
        }
      ],
      "name": "remove_trade",
      "outputs": [],
      "stateMutability": "nonpayable",
      "type": "function"
    },
    {
      "inputs": [
        {
          "internalType": "string",
          "name": "farmer_id",
          "type": "string"
        }
      ],
      "name": "set_balance",
      "outputs": [],
      "stateMutability": "nonpayable",
      "type": "function"
    },
    {
      "inputs": [
        {
          "internalType": "uint256",
          "name": "",
          "type": "uint256"
        }
      ],
      "name": "trades",
      "outputs": [
        {
          "internalType": "uint256",
          "name": "id",
          "type": "uint256"
        },
        {
          "internalType": "string",
          "name": "farmer_id",
          "type": "string"
        },
        {
          "internalType": "uint256",
          "name": "weight",
          "type": "uint256"
        },
        {
          "internalType": "uint256",
          "name": "hardness",
          "type": "uint256"
        },
        {
          "internalType": "uint256",
          "name": "size",
          "type": "uint256"
        },
        {
          "internalType": "bool",
          "name": "open",
          "type": "bool"
        },
        {
          "internalType": "uint256",
          "name": "quantity",
          "type": "uint256"
        },
        {
          "internalType": "uint256",
          "name": "quality_index",
          "type": "uint256"
        },
        {
          "internalType": "string",
          "name": "produce",
          "type": "string"
        },
        {
          "internalType": "uint256",
          "name": "price",
          "type": "uint256"
        }
      ],
      "stateMutability": "view",
      "type": "function"
    }
  ],
  "bytecode": "0x608060405234801561001057600080fd5b50615f3780620000216000396000f3fe608060405234801561001057600080fd5b50600436106101f05760003560e01c806377bfdee31161010f578063bbb59036116100a2578063d6f4e4dc11610071578063d6f4e4dc14610676578063e10587c114610694578063f1d1a19b146106b2578063f69cfc80146106e6576101f0565b8063bbb59036146105de578063c2377cbf1461060e578063c2e4e1081461062a578063ceb6922014610646576101f0565b8063957dae9d116100de578063957dae9d146105465780639691297414610562578063a86b53d314610592578063bb62bd2e146105c2576101f0565b806377bfdee3146104ac5780637c8929e1146104dc57806381a063f3146104f85780638e483a9d14610516576101f0565b80633fa97bea116101875780635e4b5716116101565780635e4b5716146103e8578063628f40681461041c57806365481cda1461044c57806365a9b4a01461047c576101f0565b80633fa97bea146103345780634f4f10ef14610350578063544b4ac4146103845780635cda3172146103b4576101f0565b8063159af658116101c3578063159af6581461027b5780631e6c598e146102af578063283bcdbb146102e85780632afd97a414610304576101f0565b8063042c92d7146101f5578063047adf3f14610211578063111257271461022d57806311d9bb421461024b575b600080fd5b61020f600480360381019061020a9190614c04565b61071f565b005b61022b60048036038101906102269190614c2d565b610819565b005b610235610c1c565b6040516102429190615871565b60405180910390f35b61026560048036038101906102609190614ace565b610c26565b6040516102729190615871565b60405180910390f35b61029560048036038101906102909190614c04565b610c6d565b6040516102a695949392919061577a565b60405180910390f35b6102c960048036038101906102c49190614c04565b610ed3565b6040516102df9a99989796959493929190615947565b60405180910390f35b61030260048036038101906102fd9190614a0b565b611054565b005b61031e600480360381019061031991906149ca565b61123a565b60405161032b9190615871565b60405180910390f35b61034e60048036038101906103499190614ace565b611268565b005b61036a60048036038101906103659190614ace565b6112b1565b60405161037b9594939291906158e6565b60405180910390f35b61039e600480360381019061039991906149ca565b611437565b6040516103ab9190615714565b60405180910390f35b6103ce60048036038101906103c991906149ca565b611607565b6040516103df95949392919061577a565b60405180910390f35b61040260048036038101906103fd9190614c04565b611873565b60405161041395949392919061588c565b60405180910390f35b61043660048036038101906104319190614ace565b61195b565b6040516104439190615871565b60405180910390f35b610466600480360381019061046191906149ca565b6119a2565b6040516104739190615758565b60405180910390f35b610496600480360381019061049191906149ca565b611ba5565b6040516104a39190615871565b60405180910390f35b6104c660048036038101906104c19190614c04565b611bcd565b6040516104d3919061582d565b60405180910390f35b6104f660048036038101906104f191906149ca565b611d0b565b005b610500611d69565b60405161050d9190615758565b60405180910390f35b610530600480360381019061052b9190614c04565b611f4e565b60405161053d919061580b565b60405180910390f35b610560600480360381019061055b9190614c04565b612103565b005b61057c60048036038101906105779190614c04565b612895565b604051610589919061584f565b60405180910390f35b6105ac60048036038101906105a79190614ace565b612a7d565b6040516105b99190615871565b60405180910390f35b6105dc60048036038101906105d79190614ace565b612ac4565b005b6105f860048036038101906105f39190614ace565b612bd1565b6040516106059190615871565b60405180910390f35b61062860048036038101906106239190614b22565b612c18565b005b610644600480360381019061063f9190614c2d565b612e8d565b005b610660600480360381019061065b91906149ca565b6136db565b60405161066d91906157e9565b60405180910390f35b61067e613f52565b60405161068b9190615736565b60405180910390f35b61069c61408d565b6040516106a991906156f2565b60405180910390f35b6106cc60048036038101906106c79190614c04565b61433e565b6040516106dd9594939291906158e6565b60405180910390f35b61070060048036038101906106fb9190614ace565b6144a1565b6040516107169a99989796959493929190615947565b60405180910390f35b6001600e828154811061075b577f4e487b7100000000000000000000000000000000000000000000000000000000600052603260045260246000fd5b906000526020600020906004020160030160006101000a81548160ff021916908315150217905550600e81815481106107bd577f4e487b7100000000000000000000000000000000000000000000000000000000600052603260045260246000fd5b90600052602060002090600402016000808201600090556001820160006107e49190614757565b60028201600090556003820160006101000a81549060ff02191690556003820160016101000a81549060ff0219169055505050565b610821614797565b600e838154811061085b577f4e487b7100000000000000000000000000000000000000000000000000000000600052603260045260246000fd5b90600052602060002090600402016040518060a00160405290816000820154815260200160018201805461088e90615d40565b80601f01602080910402602001604051908101604052809291908181526020018280546108ba90615d40565b80156109075780601f106108dc57610100808354040283529160200191610907565b820191906000526020600020905b8154815290600101906020018083116108ea57829003601f168201915b50505050508152602001600282015481526020016003820160009054906101000a900460ff161515151581526020016003820160019054906101000a900460ff1615151515815250509050600a8260405161096291906156c4565b90815260200160405180910390205481604001511115801561098c57506000151581606001511515145b15610c17576001600e84815481106109cd577f4e487b7100000000000000000000000000000000000000000000000000000000600052603260045260246000fd5b906000526020600020906004020160030160016101000a81548160ff0219169083151502179055508060400151600a8260200151604051610a0e91906156c4565b90815260200160405180910390206000828254610a2b9190615bd3565b925050819055508060400151600a83604051610a4791906156c4565b90815260200160405180910390206000828254610a649190615cb4565b9250508190555060006040518060a00160405280600d5481526020018360200151815260200183604001518152602001600015158152602001848152509050600b8260200151604051610ab791906156c4565b9081526020016040518091039020819080600181540180825580915050600190039060005260206000209060050201600090919091909150600082015181600001556020820151816001019080519060200190610b159291906147ca565b506040820151816002015560608201518160030160006101000a81548160ff0219169083151502179055506080820151816004019080519060200190610b5c9291906147ca565b505050600c819080600181540180825580915050600190039060005260206000209060050201600090919091909150600082015181600001556020820151816001019080519060200190610bb19291906147ca565b506040820151816002015560608201518160030160006101000a81548160ff0219169083151502179055506080820151816004019080519060200190610bf89291906147ca565b5050506001600d6000828254610c0e9190615bd3565b92505081905550505b505050565b6000600d54905090565b6006828051602081018201805184825260208301602085012081835280955050505050508181548110610c5857600080fd5b90600052602060002001600091509150505481565b60018181548110610c7d57600080fd5b9060005260206000209060050201600091509050806000018054610ca090615d40565b80601f0160208091040260200160405190810160405280929190818152602001828054610ccc90615d40565b8015610d195780601f10610cee57610100808354040283529160200191610d19565b820191906000526020600020905b815481529060010190602001808311610cfc57829003601f168201915b505050505090806001018054610d2e90615d40565b80601f0160208091040260200160405190810160405280929190818152602001828054610d5a90615d40565b8015610da75780601f10610d7c57610100808354040283529160200191610da7565b820191906000526020600020905b815481529060010190602001808311610d8a57829003601f168201915b505050505090806002018054610dbc90615d40565b80601f0160208091040260200160405190810160405280929190818152602001828054610de890615d40565b8015610e355780601f10610e0a57610100808354040283529160200191610e35565b820191906000526020600020905b815481529060010190602001808311610e1857829003601f168201915b505050505090806003018054610e4a90615d40565b80601f0160208091040260200160405190810160405280929190818152602001828054610e7690615d40565b8015610ec35780601f10610e9857610100808354040283529160200191610ec3565b820191906000526020600020905b815481529060010190602001808311610ea657829003601f168201915b5050505050908060040154905085565b60048181548110610ee357600080fd5b90600052602060002090600a0201600091509050806000015490806001018054610f0c90615d40565b80601f0160208091040260200160405190810160405280929190818152602001828054610f3890615d40565b8015610f855780601f10610f5a57610100808354040283529160200191610f85565b820191906000526020600020905b815481529060010190602001808311610f6857829003601f168201915b5050505050908060020154908060030154908060040154908060050160009054906101000a900460ff1690806006015490806007015490806008018054610fcb90615d40565b80601f0160208091040260200160405190810160405280929190818152602001828054610ff790615d40565b80156110445780601f1061101957610100808354040283529160200191611044565b820191906000526020600020905b81548152906001019060200180831161102757829003601f168201915b505050505090806009015490508a565b6000600a8460405161106691906156c4565b90815260200160405180910390205414156112345760006040518060a001604052808681526020018581526020018481526020018381526020016002548152509050806000856040516110b991906156c4565b908152602001604051809103902060008201518160000190805190602001906110e39291906147ca565b5060208201518160010190805190602001906111009291906147ca565b50604082015181600201908051906020019061111d9291906147ca565b50606082015181600301908051906020019061113a9291906147ca565b5060808201518160040155905050600181908060018154018082558091505060019003906000526020600020906005020160009091909190915060008201518160000190805190602001906111909291906147ca565b5060208201518160010190805190602001906111ad9291906147ca565b5060408201518160020190805190602001906111ca9291906147ca565b5060608201518160030190805190602001906111e79291906147ca565b506080820151816004015550506064600a8560405161120691906156c4565b90815260200160405180910390208190555060016002600082825461122b9190615bd3565b92505081905550505b50505050565b600a818051602081018201805184825260208301602085012081835280955050505050506000915090505481565b60098260405161127891906156c4565b90815260200160405180910390208190806001815401808255809150506001900390600052602060002001600090919091909150555050565b600b8280516020810182018051848252602083016020850120818352809550505050505081815481106112e357600080fd5b90600052602060002090600502016000915091505080600001549080600101805461130d90615d40565b80601f016020809104026020016040519081016040528092919081815260200182805461133990615d40565b80156113865780601f1061135b57610100808354040283529160200191611386565b820191906000526020600020905b81548152906001019060200180831161136957829003601f168201915b5050505050908060020154908060030160009054906101000a900460ff16908060040180546113b490615d40565b80601f01602080910402602001604051908101604052809291908181526020018280546113e090615d40565b801561142d5780601f106114025761010080835404028352916020019161142d565b820191906000526020600020905b81548152906001019060200180831161141057829003601f168201915b5050505050905085565b6060600b8260405161144991906156c4565b9081526020016040518091039020805480602002602001604051908101604052809291908181526020016000905b828210156115fc57838290600052602060002090600502016040518060a0016040529081600082015481526020016001820180546114b490615d40565b80601f01602080910402602001604051908101604052809291908181526020018280546114e090615d40565b801561152d5780601f106115025761010080835404028352916020019161152d565b820191906000526020600020905b81548152906001019060200180831161151057829003601f168201915b50505050508152602001600282015481526020016003820160009054906101000a900460ff1615151515815260200160048201805461156b90615d40565b80601f016020809104026020016040519081016040528092919081815260200182805461159790615d40565b80156115e45780601f106115b9576101008083540402835291602001916115e4565b820191906000526020600020905b8154815290600101906020018083116115c757829003601f168201915b50505050508152505081526020019060010190611477565b505050509050919050565b60008180516020810182018051848252602083016020850120818352809550505050505060009150905080600001805461164090615d40565b80601f016020809104026020016040519081016040528092919081815260200182805461166c90615d40565b80156116b95780601f1061168e576101008083540402835291602001916116b9565b820191906000526020600020905b81548152906001019060200180831161169c57829003601f168201915b5050505050908060010180546116ce90615d40565b80601f01602080910402602001604051908101604052809291908181526020018280546116fa90615d40565b80156117475780601f1061171c57610100808354040283529160200191611747565b820191906000526020600020905b81548152906001019060200180831161172a57829003601f168201915b50505050509080600201805461175c90615d40565b80601f016020809104026020016040519081016040528092919081815260200182805461178890615d40565b80156117d55780601f106117aa576101008083540402835291602001916117d5565b820191906000526020600020905b8154815290600101906020018083116117b857829003601f168201915b5050505050908060030180546117ea90615d40565b80601f016020809104026020016040519081016040528092919081815260200182805461181690615d40565b80156118635780601f1061183857610100808354040283529160200191611863565b820191906000526020600020905b81548152906001019060200180831161184657829003601f168201915b5050505050908060040154905085565b600e818154811061188357600080fd5b90600052602060002090600402016000915090508060000154908060010180546118ac90615d40565b80601f01602080910402602001604051908101604052809291908181526020018280546118d890615d40565b80156119255780601f106118fa57610100808354040283529160200191611925565b820191906000526020600020905b81548152906001019060200180831161190857829003601f168201915b5050505050908060020154908060030160009054906101000a900460ff16908060030160019054906101000a900460ff16905085565b600882805160208101820180518482526020830160208501208183528095505050505050818154811061198d57600080fd5b90600052602060002001600091509150505481565b60606003826040516119b491906156c4565b9081526020016040518091039020805480602002602001604051908101604052809291908181526020016000905b82821015611b9a57838290600052602060002090600a02016040518061014001604052908160008201548152602001600182018054611a2090615d40565b80601f0160208091040260200160405190810160405280929190818152602001828054611a4c90615d40565b8015611a995780601f10611a6e57610100808354040283529160200191611a99565b820191906000526020600020905b815481529060010190602001808311611a7c57829003601f168201915b505050505081526020016002820154815260200160038201548152602001600482015481526020016005820160009054906101000a900460ff161515151581526020016006820154815260200160078201548152602001600882018054611aff90615d40565b80601f0160208091040260200160405190810160405280929190818152602001828054611b2b90615d40565b8015611b785780601f10611b4d57610100808354040283529160200191611b78565b820191906000526020600020905b815481529060010190602001808311611b5b57829003601f168201915b50505050508152602001600982015481525050815260200190600101906119e2565b505050509050919050565b6000600a82604051611bb791906156c4565b9081526020016040518091039020549050919050565b611bd5614797565b600e8281548110611c0f577f4e487b7100000000000000000000000000000000000000000000000000000000600052603260045260246000fd5b90600052602060002090600402016040518060a001604052908160008201548152602001600182018054611c4290615d40565b80601f0160208091040260200160405190810160405280929190818152602001828054611c6e90615d40565b8015611cbb5780601f10611c9057610100808354040283529160200191611cbb565b820191906000526020600020905b815481529060010190602001808311611c9e57829003601f168201915b50505050508152602001600282015481526020016003820160009054906101000a900460ff161515151581526020016003820160019054906101000a900460ff1615151515815250509050919050565b6000600a82604051611d1d91906156c4565b9081526020016040518091039020819055506103e8600a82604051611d4291906156c4565b90815260200160405180910390206000828254611d5f9190615bd3565b9250508190555050565b60606004805480602002602001604051908101604052809291908181526020016000905b82821015611f4557838290600052602060002090600a02016040518061014001604052908160008201548152602001600182018054611dcb90615d40565b80601f0160208091040260200160405190810160405280929190818152602001828054611df790615d40565b8015611e445780601f10611e1957610100808354040283529160200191611e44565b820191906000526020600020905b815481529060010190602001808311611e2757829003601f168201915b505050505081526020016002820154815260200160038201548152602001600482015481526020016005820160009054906101000a900460ff161515151581526020016006820154815260200160078201548152602001600882018054611eaa90615d40565b80601f0160208091040260200160405190810160405280929190818152602001828054611ed690615d40565b8015611f235780601f10611ef857610100808354040283529160200191611f23565b820191906000526020600020905b815481529060010190602001808311611f0657829003601f168201915b5050505050815260200160098201548152505081526020019060010190611d8d565b50505050905090565b611f56614850565b600c8281548110611f90577f4e487b7100000000000000000000000000000000000000000000000000000000600052603260045260246000fd5b90600052602060002090600502016040518060a001604052908160008201548152602001600182018054611fc390615d40565b80601f0160208091040260200160405190810160405280929190818152602001828054611fef90615d40565b801561203c5780601f106120115761010080835404028352916020019161203c565b820191906000526020600020905b81548152906001019060200180831161201f57829003601f168201915b50505050508152602001600282015481526020016003820160009054906101000a900460ff1615151515815260200160048201805461207a90615d40565b80601f01602080910402602001604051908101604052809291908181526020018280546120a690615d40565b80156120f35780601f106120c8576101008083540402835291602001916120f3565b820191906000526020600020905b8154815290600101906020018083116120d657829003601f168201915b5050505050815250509050919050565b6000600c828154811061213f577f4e487b7100000000000000000000000000000000000000000000000000000000600052603260045260246000fd5b9060005260206000209060050201600101805461215b90615d40565b80601f016020809104026020016040519081016040528092919081815260200182805461218790615d40565b80156121d45780601f106121a9576101008083540402835291602001916121d4565b820191906000526020600020905b8154815290600101906020018083116121b757829003601f168201915b505050505090506000612552600b836040516121f091906156c4565b9081526020016040518091039020805480602002602001604051908101604052809291908181526020016000905b828210156123a357838290600052602060002090600502016040518060a00160405290816000820154815260200160018201805461225b90615d40565b80601f016020809104026020016040519081016040528092919081815260200182805461228790615d40565b80156122d45780601f106122a9576101008083540402835291602001916122d4565b820191906000526020600020905b8154815290600101906020018083116122b757829003601f168201915b50505050508152602001600282015481526020016003820160009054906101000a900460ff1615151515815260200160048201805461231290615d40565b80601f016020809104026020016040519081016040528092919081815260200182805461233e90615d40565b801561238b5780601f106123605761010080835404028352916020019161238b565b820191906000526020600020905b81548152906001019060200180831161236e57829003601f168201915b5050505050815250508152602001906001019061221e565b50505050600c85815481106123e1577f4e487b7100000000000000000000000000000000000000000000000000000000600052603260045260246000fd5b90600052602060002090600502016040518060a00160405290816000820154815260200160018201805461241490615d40565b80601f016020809104026020016040519081016040528092919081815260200182805461244090615d40565b801561248d5780601f106124625761010080835404028352916020019161248d565b820191906000526020600020905b81548152906001019060200180831161247057829003601f168201915b50505050508152602001600282015481526020016003820160009054906101000a900460ff161515151581526020016004820180546124cb90615d40565b80601f01602080910402602001604051908101604052809291908181526020018280546124f790615d40565b80156125445780601f1061251957610100808354040283529160200191612544565b820191906000526020600020905b81548152906001019060200180831161252757829003601f168201915b505050505081525050614645565b9050600a600c8481548110612590577f4e487b7100000000000000000000000000000000000000000000000000000000600052603260045260246000fd5b9060005260206000209060050201600201546125ac9190615c29565b600c84815481106125e6577f4e487b7100000000000000000000000000000000000000000000000000000000600052603260045260246000fd5b9060005260206000209060050201600201546126029190615bd3565b600a600c858154811061263e577f4e487b7100000000000000000000000000000000000000000000000000000000600052603260045260246000fd5b906000526020600020906005020160040160405161265c91906156db565b908152602001604051809103902060008282546126799190615bd3565b92505081905550600a600c84815481106126bc577f4e487b7100000000000000000000000000000000000000000000000000000000600052603260045260246000fd5b9060005260206000209060050201600201546126d89190615c29565b600c8481548110612712577f4e487b7100000000000000000000000000000000000000000000000000000000600052603260045260246000fd5b90600052602060002090600502016002015461272e9190615bd3565b600a600c858154811061276a577f4e487b7100000000000000000000000000000000000000000000000000000000600052603260045260246000fd5b906000526020600020906005020160010160405161278891906156db565b908152602001604051809103902060008282546127a59190615cb4565b925050819055506001600b836040516127be91906156c4565b90815260200160405180910390208281548110612804577f4e487b7100000000000000000000000000000000000000000000000000000000600052603260045260246000fd5b906000526020600020906005020160030160006101000a81548160ff0219169083151502179055506001600c8481548110612868577f4e487b7100000000000000000000000000000000000000000000000000000000600052603260045260246000fd5b906000526020600020906005020160030160006101000a81548160ff021916908315150217905550505050565b61289d614881565b600482815481106128d7577f4e487b7100000000000000000000000000000000000000000000000000000000600052603260045260246000fd5b90600052602060002090600a0201604051806101400160405290816000820154815260200160018201805461290b90615d40565b80601f016020809104026020016040519081016040528092919081815260200182805461293790615d40565b80156129845780601f1061295957610100808354040283529160200191612984565b820191906000526020600020905b81548152906001019060200180831161296757829003601f168201915b505050505081526020016002820154815260200160038201548152602001600482015481526020016005820160009054906101000a900460ff1615151515815260200160068201548152602001600782015481526020016008820180546129ea90615d40565b80601f0160208091040260200160405190810160405280929190818152602001828054612a1690615d40565b8015612a635780601f10612a3857610100808354040283529160200191612a63565b820191906000526020600020905b815481529060010190602001808311612a4657829003601f168201915b505050505081526020016009820154815250509050919050565b6007828051602081018201805184825260208301602085012081835280955050505050508181548110612aaf57600080fd5b90600052602060002001600091509150505481565b6000600a82612ad39190615dec565b148015612ae05750600081115b15612bcd57600e6040518060a00160405280600f548152602001848152602001838152602001600015158152602001600015158152509080600181540180825580915050600190039060005260206000209060040201600090919091909150600082015181600001556020820151816001019080519060200190612b659291906147ca565b506040820151816002015560608201518160030160006101000a81548160ff02191690831515021790555060808201518160030160016101000a81548160ff02191690831515021790555050506001600f6000828254612bc59190615bd3565b925050819055505b5050565b6009828051602081018201805184825260208301602085012081835280955050505050508181548110612c0357600080fd5b90600052602060002001600091509150505481565b600060405180610140016040528060055481526020018a8152602001898152602001888152602001878152602001600115158152602001868152602001858152602001848152602001838152509050600389604051612c7791906156c4565b90815260200160405180910390208190806001815401808255809150506001900390600052602060002090600a0201600090919091909150600082015181600001556020820151816001019080519060200190612cd59291906147ca565b5060408201518160020155606082015181600301556080820151816004015560a08201518160050160006101000a81548160ff02191690831515021790555060c0820151816006015560e08201518160070155610100820151816008019080519060200190612d459291906147ca565b506101208201518160090155505060048190806001815401808255809150506001900390600052602060002090600a0201600090919091909150600082015181600001556020820151816001019080519060200190612da59291906147ca565b5060408201518160020155606082015181600301556080820151816004015560a08201518160050160006101000a81548160ff02191690831515021790555060c0820151816006015560e08201518160070155610100820151816008019080519060200190612e159291906147ca565b5061012082015181600901555050600160056000828254612e369190615bd3565b92505081905550600689604051612e4d91906156c4565b9081526020016040518091039020849080600181540180825580915050600190039060005260206000200160009091909190915055505050505050505050565b600060048381548110612ec9577f4e487b7100000000000000000000000000000000000000000000000000000000600052603260045260246000fd5b90600052602060002090600a02016009015460048481548110612f15577f4e487b7100000000000000000000000000000000000000000000000000000000600052603260045260246000fd5b90600052602060002090600a020160060154612f319190615c5a565b9050600a82604051612f4391906156c4565b90815260200160405180910390205481116136d657600060048481548110612f94577f4e487b7100000000000000000000000000000000000000000000000000000000600052603260045260246000fd5b90600052602060002090600a02016001018054612fb090615d40565b80601f0160208091040260200160405190810160405280929190818152602001828054612fdc90615d40565b80156130295780601f10612ffe57610100808354040283529160200191613029565b820191906000526020600020905b81548152906001019060200180831161300c57829003601f168201915b50505050509050600061340d60038360405161304591906156c4565b9081526020016040518091039020805480602002602001604051908101604052809291908181526020016000905b8282101561322b57838290600052602060002090600a020160405180610140016040529081600082015481526020016001820180546130b190615d40565b80601f01602080910402602001604051908101604052809291908181526020018280546130dd90615d40565b801561312a5780601f106130ff5761010080835404028352916020019161312a565b820191906000526020600020905b81548152906001019060200180831161310d57829003601f168201915b505050505081526020016002820154815260200160038201548152602001600482015481526020016005820160009054906101000a900460ff16151515158152602001600682015481526020016007820154815260200160088201805461319090615d40565b80601f01602080910402602001604051908101604052809291908181526020018280546131bc90615d40565b80156132095780601f106131de57610100808354040283529160200191613209565b820191906000526020600020905b8154815290600101906020018083116131ec57829003601f168201915b5050505050815260200160098201548152505081526020019060010190613073565b5050505060048781548110613269577f4e487b7100000000000000000000000000000000000000000000000000000000600052603260045260246000fd5b90600052602060002090600a0201604051806101400160405290816000820154815260200160018201805461329d90615d40565b80601f01602080910402602001604051908101604052809291908181526020018280546132c990615d40565b80156133165780601f106132eb57610100808354040283529160200191613316565b820191906000526020600020905b8154815290600101906020018083116132f957829003601f168201915b505050505081526020016002820154815260200160038201548152602001600482015481526020016005820160009054906101000a900460ff16151515158152602001600682015481526020016007820154815260200160088201805461337c90615d40565b80601f01602080910402602001604051908101604052809291908181526020018280546133a890615d40565b80156133f55780601f106133ca576101008083540402835291602001916133f5565b820191906000526020600020905b8154815290600101906020018083116133d857829003601f168201915b505050505081526020016009820154815250506146ce565b9050600060038360405161342191906156c4565b90815260200160405180910390208281548110613467577f4e487b7100000000000000000000000000000000000000000000000000000000600052603260045260246000fd5b90600052602060002090600a020160050160006101000a81548160ff0219169083151502179055506000600486815481106134cb577f4e487b7100000000000000000000000000000000000000000000000000000000600052603260045260246000fd5b90600052602060002090600a020160050160006101000a81548160ff02191690831515021790555082600a8560405161350491906156c4565b908152602001604051809103902060008282546135219190615cb4565b9250508190555082600a8360405161353991906156c4565b908152602001604051809103902060008282546135569190615bd3565b9250508190555060078260405161356d91906156c4565b9081526020016040518091039020600486815481106135b5577f4e487b7100000000000000000000000000000000000000000000000000000000600052603260045260246000fd5b90600052602060002090600a02016006015490806001815401808255809150506001900390600052602060002001600090919091909150556008826040516135fd91906156c4565b908152602001604051809103902060048681548110613645577f4e487b7100000000000000000000000000000000000000000000000000000000600052603260045260246000fd5b90600052602060002090600a02016009015460048781548110613691577f4e487b7100000000000000000000000000000000000000000000000000000000600052603260045260246000fd5b90600052602060002090600a0201600601546136ad9190615c5a565b908060018154018082558091505060019003906000526020600020016000909190919091505550505b505050565b6136e36148d6565b600080836040516136f491906156c4565b90815260200160405180910390206040518060a001604052908160008201805461371d90615d40565b80601f016020809104026020016040519081016040528092919081815260200182805461374990615d40565b80156137965780601f1061376b57610100808354040283529160200191613796565b820191906000526020600020905b81548152906001019060200180831161377957829003601f168201915b505050505081526020016001820180546137af90615d40565b80601f01602080910402602001604051908101604052809291908181526020018280546137db90615d40565b80156138285780601f106137fd57610100808354040283529160200191613828565b820191906000526020600020905b81548152906001019060200180831161380b57829003601f168201915b5050505050815260200160028201805461384190615d40565b80601f016020809104026020016040519081016040528092919081815260200182805461386d90615d40565b80156138ba5780601f1061388f576101008083540402835291602001916138ba565b820191906000526020600020905b81548152906001019060200180831161389d57829003601f168201915b505050505081526020016003820180546138d390615d40565b80601f01602080910402602001604051908101604052809291908181526020018280546138ff90615d40565b801561394c5780601f106139215761010080835404028352916020019161394c565b820191906000526020600020905b81548152906001019060200180831161392f57829003601f168201915b50505050508152602001600482015481525050905060006040518061016001604052808360000151815260200183602001518152602001836040015181526020018360600151815260200183608001518152602001600684602001516040516139b591906156c4565b9081526020016040518091039020805480602002602001604051908101604052809291908181526020018280548015613a0d57602002820191906000526020600020905b8154815260200190600101908083116139f9575b5050505050815260200160078460200151604051613a2b91906156c4565b9081526020016040518091039020805480602002602001604051908101604052809291908181526020018280548015613a8357602002820191906000526020600020905b815481526020019060010190808311613a6f575b5050505050815260200160088460200151604051613aa191906156c4565b9081526020016040518091039020805480602002602001604051908101604052809291908181526020018280548015613af957602002820191906000526020600020905b815481526020019060010190808311613ae5575b5050505050815260200160098460200151604051613b1791906156c4565b9081526020016040518091039020805480602002602001604051908101604052809291908181526020018280548015613b6f57602002820191906000526020600020905b815481526020019060010190808311613b5b575b5050505050815260200160038460200151604051613b8d91906156c4565b9081526020016040518091039020805480602002602001604051908101604052809291908181526020016000905b82821015613d7357838290600052602060002090600a02016040518061014001604052908160008201548152602001600182018054613bf990615d40565b80601f0160208091040260200160405190810160405280929190818152602001828054613c2590615d40565b8015613c725780601f10613c4757610100808354040283529160200191613c72565b820191906000526020600020905b815481529060010190602001808311613c5557829003601f168201915b505050505081526020016002820154815260200160038201548152602001600482015481526020016005820160009054906101000a900460ff161515151581526020016006820154815260200160078201548152602001600882018054613cd890615d40565b80601f0160208091040260200160405190810160405280929190818152602001828054613d0490615d40565b8015613d515780601f10613d2657610100808354040283529160200191613d51565b820191906000526020600020905b815481529060010190602001808311613d3457829003601f168201915b5050505050815260200160098201548152505081526020019060010190613bbb565b505050508152602001600b86604051613d8c91906156c4565b9081526020016040518091039020805480602002602001604051908101604052809291908181526020016000905b82821015613f3f57838290600052602060002090600502016040518060a001604052908160008201548152602001600182018054613df790615d40565b80601f0160208091040260200160405190810160405280929190818152602001828054613e2390615d40565b8015613e705780601f10613e4557610100808354040283529160200191613e70565b820191906000526020600020905b815481529060010190602001808311613e5357829003601f168201915b50505050508152602001600282015481526020016003820160009054906101000a900460ff16151515158152602001600482018054613eae90615d40565b80601f0160208091040260200160405190810160405280929190818152602001828054613eda90615d40565b8015613f275780601f10613efc57610100808354040283529160200191613f27565b820191906000526020600020905b815481529060010190602001808311613f0a57829003601f168201915b50505050508152505081526020019060010190613dba565b5050505081525090508092505050919050565b6060600e805480602002602001604051908101604052809291908181526020016000905b8282101561408457838290600052602060002090600402016040518060a001604052908160008201548152602001600182018054613fb390615d40565b80601f0160208091040260200160405190810160405280929190818152602001828054613fdf90615d40565b801561402c5780601f106140015761010080835404028352916020019161402c565b820191906000526020600020905b81548152906001019060200180831161400f57829003601f168201915b50505050508152602001600282015481526020016003820160009054906101000a900460ff161515151581526020016003820160019054906101000a900460ff16151515158152505081526020019060010190613f76565b50505050905090565b60606001805480602002602001604051908101604052809291908181526020016000905b8282101561433557838290600052602060002090600502016040518060a00160405290816000820180546140e490615d40565b80601f016020809104026020016040519081016040528092919081815260200182805461411090615d40565b801561415d5780601f106141325761010080835404028352916020019161415d565b820191906000526020600020905b81548152906001019060200180831161414057829003601f168201915b5050505050815260200160018201805461417690615d40565b80601f01602080910402602001604051908101604052809291908181526020018280546141a290615d40565b80156141ef5780601f106141c4576101008083540402835291602001916141ef565b820191906000526020600020905b8154815290600101906020018083116141d257829003601f168201915b5050505050815260200160028201805461420890615d40565b80601f016020809104026020016040519081016040528092919081815260200182805461423490615d40565b80156142815780601f1061425657610100808354040283529160200191614281565b820191906000526020600020905b81548152906001019060200180831161426457829003601f168201915b5050505050815260200160038201805461429a90615d40565b80601f01602080910402602001604051908101604052809291908181526020018280546142c690615d40565b80156143135780601f106142e857610100808354040283529160200191614313565b820191906000526020600020905b8154815290600101906020018083116142f657829003601f168201915b50505050508152602001600482015481525050815260200190600101906140b1565b50505050905090565b600c818154811061434e57600080fd5b906000526020600020906005020160009150905080600001549080600101805461437790615d40565b80601f01602080910402602001604051908101604052809291908181526020018280546143a390615d40565b80156143f05780601f106143c5576101008083540402835291602001916143f0565b820191906000526020600020905b8154815290600101906020018083116143d357829003601f168201915b5050505050908060020154908060030160009054906101000a900460ff169080600401805461441e90615d40565b80601f016020809104026020016040519081016040528092919081815260200182805461444a90615d40565b80156144975780601f1061446c57610100808354040283529160200191614497565b820191906000526020600020905b81548152906001019060200180831161447a57829003601f168201915b5050505050905085565b60038280516020810182018051848252602083016020850120818352809550505050505081815481106144d357600080fd5b90600052602060002090600a0201600091509150508060000154908060010180546144fd90615d40565b80601f016020809104026020016040519081016040528092919081815260200182805461452990615d40565b80156145765780601f1061454b57610100808354040283529160200191614576565b820191906000526020600020905b81548152906001019060200180831161455957829003601f168201915b5050505050908060020154908060030154908060040154908060050160009054906101000a900460ff16908060060154908060070154908060080180546145bc90615d40565b80601f01602080910402602001604051908101604052809291908181526020018280546145e890615d40565b80156146355780601f1061460a57610100808354040283529160200191614635565b820191906000526020600020905b81548152906001019060200180831161461857829003601f168201915b505050505090806009015490508a565b600080600090505b83518110156146c2578260000151848281518110614694577f4e487b7100000000000000000000000000000000000000000000000000000000600052603260045260246000fd5b60200260200101516000015114156146af57809150506146c8565b80806146ba90615da3565b91505061464d565b50606390505b92915050565b600080600090505b835181101561474b57826000015184828151811061471d577f4e487b7100000000000000000000000000000000000000000000000000000000600052603260045260246000fd5b60200260200101516000015114156147385780915050614751565b808061474390615da3565b9150506146d6565b50606390505b92915050565b50805461476390615d40565b6000825580601f106147755750614794565b601f0160209004906000526020600020908101906147939190614930565b5b50565b6040518060a001604052806000815260200160608152602001600081526020016000151581526020016000151581525090565b8280546147d690615d40565b90600052602060002090601f0160209004810192826147f8576000855561483f565b82601f1061481157805160ff191683800117855561483f565b8280016001018555821561483f579182015b8281111561483e578251825591602001919060010190614823565b5b50905061484c9190614930565b5090565b6040518060a00160405280600081526020016060815260200160008152602001600015158152602001606081525090565b6040518061014001604052806000815260200160608152602001600081526020016000815260200160008152602001600015158152602001600081526020016000815260200160608152602001600081525090565b60405180610160016040528060608152602001606081526020016060815260200160608152602001600081526020016060815260200160608152602001606081526020016060815260200160608152602001606081525090565b5b80821115614949576000816000905550600101614931565b5090565b600061496061495b84615a16565b6159f1565b90508281526020810184848401111561497857600080fd5b614983848285615cfe565b509392505050565b600082601f83011261499c57600080fd5b81356149ac84826020860161494d565b91505092915050565b6000813590506149c481615eea565b92915050565b6000602082840312156149dc57600080fd5b600082013567ffffffffffffffff8111156149f657600080fd5b614a028482850161498b565b91505092915050565b60008060008060808587031215614a2157600080fd5b600085013567ffffffffffffffff811115614a3b57600080fd5b614a478782880161498b565b945050602085013567ffffffffffffffff811115614a6457600080fd5b614a708782880161498b565b935050604085013567ffffffffffffffff811115614a8d57600080fd5b614a998782880161498b565b925050606085013567ffffffffffffffff811115614ab657600080fd5b614ac28782880161498b565b91505092959194509250565b60008060408385031215614ae157600080fd5b600083013567ffffffffffffffff811115614afb57600080fd5b614b078582860161498b565b9250506020614b18858286016149b5565b9150509250929050565b600080600080600080600080610100898b031215614b3f57600080fd5b600089013567ffffffffffffffff811115614b5957600080fd5b614b658b828c0161498b565b9850506020614b768b828c016149b5565b9750506040614b878b828c016149b5565b9650506060614b988b828c016149b5565b9550506080614ba98b828c016149b5565b94505060a0614bba8b828c016149b5565b93505060c089013567ffffffffffffffff811115614bd757600080fd5b614be38b828c0161498b565b92505060e0614bf48b828c016149b5565b9150509295985092959890939650565b600060208284031215614c1657600080fd5b6000614c24848285016149b5565b91505092915050565b60008060408385031215614c4057600080fd5b6000614c4e858286016149b5565b925050602083013567ffffffffffffffff811115614c6b57600080fd5b614c778582860161498b565b9150509250929050565b6000614c8d8383615145565b905092915050565b6000614ca183836152fe565b905092915050565b6000614cb583836153f8565b905092915050565b6000614cc983836154e4565b905092915050565b6000614cdd83836156a6565b60208301905092915050565b6000614cf482615aac565b614cfe8185615b2f565b935083602082028501614d1085615a47565b8060005b85811015614d4c5784840389528151614d2d8582614c81565b9450614d3883615aee565b925060208a01995050600181019050614d14565b50829750879550505050505092915050565b6000614d6982615ab7565b614d738185615b40565b935083602082028501614d8585615a57565b8060005b85811015614dc15784840389528151614da28582614c95565b9450614dad83615afb565b925060208a01995050600181019050614d89565b50829750879550505050505092915050565b6000614dde82615ab7565b614de88185615b51565b935083602082028501614dfa85615a57565b8060005b85811015614e365784840389528151614e178582614c95565b9450614e2283615afb565b925060208a01995050600181019050614dfe565b50829750879550505050505092915050565b6000614e5382615ac2565b614e5d8185615b62565b935083602082028501614e6f85615a67565b8060005b85811015614eab5784840389528151614e8c8582614ca9565b9450614e9783615b08565b925060208a01995050600181019050614e73565b50829750879550505050505092915050565b6000614ec882615acd565b614ed28185615b73565b935083602082028501614ee485615a77565b8060005b85811015614f205784840389528151614f018582614cbd565b9450614f0c83615b15565b925060208a01995050600181019050614ee8565b50829750879550505050505092915050565b6000614f3d82615acd565b614f478185615b84565b935083602082028501614f5985615a77565b8060005b85811015614f955784840389528151614f768582614cbd565b9450614f8183615b15565b925060208a01995050600181019050614f5d565b50829750879550505050505092915050565b6000614fb282615ad8565b614fbc8185615b95565b9350614fc783615a87565b8060005b83811015614ff8578151614fdf8882614cd1565b9750614fea83615b22565b925050600181019050614fcb565b5085935050505092915050565b61500e81615ce8565b82525050565b61501d81615ce8565b82525050565b600061502e82615ae3565b6150388185615ba6565b9350615048818560208601615d0d565b61505181615ed9565b840191505092915050565b600061506782615ae3565b6150718185615bb7565b9350615081818560208601615d0d565b61508a81615ed9565b840191505092915050565b60006150a082615ae3565b6150aa8185615bc8565b93506150ba818560208601615d0d565b80840191505092915050565b600081546150d381615d40565b6150dd8186615bc8565b945060018216600081146150f857600181146151095761513c565b60ff1983168652818601935061513c565b61511285615a97565b60005b8381101561513457815481890152600182019150602081019050615115565b838801955050505b50505092915050565b600060a08301600083015184820360008601526151628282615023565b9150506020830151848203602086015261517c8282615023565b915050604083015184820360408601526151968282615023565b915050606083015184820360608601526151b08282615023565b91505060808301516151c560808601826156a6565b508091505092915050565b60006101608301600083015184820360008601526151ee8282615023565b915050602083015184820360208601526152088282615023565b915050604083015184820360408601526152228282615023565b9150506060830151848203606086015261523c8282615023565b915050608083015161525160808601826156a6565b5060a083015184820360a08601526152698282614fa7565b91505060c083015184820360c08601526152838282614fa7565b91505060e083015184820360e086015261529d8282614fa7565b9150506101008301518482036101008601526152b98282614fa7565b9150506101208301518482036101208601526152d58282614ebd565b9150506101408301518482036101408601526152f18282614d5e565b9150508091505092915050565b600060a08301600083015161531660008601826156a6565b506020830151848203602086015261532e8282615023565b915050604083015161534360408601826156a6565b5060608301516153566060860182615005565b506080830151848203608086015261536e8282615023565b9150508091505092915050565b600060a08301600083015161539360008601826156a6565b50602083015184820360208601526153ab8282615023565b91505060408301516153c060408601826156a6565b5060608301516153d36060860182615005565b50608083015184820360808601526153eb8282615023565b9150508091505092915050565b600060a08301600083015161541060008601826156a6565b50602083015184820360208601526154288282615023565b915050604083015161543d60408601826156a6565b5060608301516154506060860182615005565b5060808301516154636080860182615005565b508091505092915050565b600060a08301600083015161548660008601826156a6565b506020830151848203602086015261549e8282615023565b91505060408301516154b360408601826156a6565b5060608301516154c66060860182615005565b5060808301516154d96080860182615005565b508091505092915050565b6000610140830160008301516154fd60008601826156a6565b50602083015184820360208601526155158282615023565b915050604083015161552a60408601826156a6565b50606083015161553d60608601826156a6565b50608083015161555060808601826156a6565b5060a083015161556360a0860182615005565b5060c083015161557660c08601826156a6565b5060e083015161558960e08601826156a6565b506101008301518482036101008601526155a38282615023565b9150506101208301516155ba6101208601826156a6565b508091505092915050565b6000610140830160008301516155de60008601826156a6565b50602083015184820360208601526155f68282615023565b915050604083015161560b60408601826156a6565b50606083015161561e60608601826156a6565b50608083015161563160808601826156a6565b5060a083015161564460a0860182615005565b5060c083015161565760c08601826156a6565b5060e083015161566a60e08601826156a6565b506101008301518482036101008601526156848282615023565b91505061012083015161569b6101208601826156a6565b508091505092915050565b6156af81615cf4565b82525050565b6156be81615cf4565b82525050565b60006156d08284615095565b915081905092915050565b60006156e782846150c6565b915081905092915050565b6000602082019050818103600083015261570c8184614ce9565b905092915050565b6000602082019050818103600083015261572e8184614dd3565b905092915050565b600060208201905081810360008301526157508184614e48565b905092915050565b600060208201905081810360008301526157728184614f32565b905092915050565b600060a0820190508181036000830152615794818861505c565b905081810360208301526157a8818761505c565b905081810360408301526157bc818661505c565b905081810360608301526157d0818561505c565b90506157df60808301846156b5565b9695505050505050565b6000602082019050818103600083015261580381846151d0565b905092915050565b60006020820190508181036000830152615825818461537b565b905092915050565b60006020820190508181036000830152615847818461546e565b905092915050565b6000602082019050818103600083015261586981846155c5565b905092915050565b600060208201905061588660008301846156b5565b92915050565b600060a0820190506158a160008301886156b5565b81810360208301526158b3818761505c565b90506158c260408301866156b5565b6158cf6060830185615014565b6158dc6080830184615014565b9695505050505050565b600060a0820190506158fb60008301886156b5565b818103602083015261590d818761505c565b905061591c60408301866156b5565b6159296060830185615014565b818103608083015261593b818461505c565b90509695505050505050565b60006101408201905061595d600083018d6156b5565b818103602083015261596f818c61505c565b905061597e604083018b6156b5565b61598b606083018a6156b5565b61599860808301896156b5565b6159a560a0830188615014565b6159b260c08301876156b5565b6159bf60e08301866156b5565b8181036101008301526159d2818561505c565b90506159e26101208301846156b5565b9b9a5050505050505050505050565b60006159fb615a0c565b9050615a078282615d72565b919050565b6000604051905090565b600067ffffffffffffffff821115615a3157615a30615eaa565b5b615a3a82615ed9565b9050602081019050919050565b6000819050602082019050919050565b6000819050602082019050919050565b6000819050602082019050919050565b6000819050602082019050919050565b6000819050602082019050919050565b60008190508160005260206000209050919050565b600081519050919050565b600081519050919050565b600081519050919050565b600081519050919050565b600081519050919050565b600081519050919050565b6000602082019050919050565b6000602082019050919050565b6000602082019050919050565b6000602082019050919050565b6000602082019050919050565b600082825260208201905092915050565b600082825260208201905092915050565b600082825260208201905092915050565b600082825260208201905092915050565b600082825260208201905092915050565b600082825260208201905092915050565b600082825260208201905092915050565b600082825260208201905092915050565b600082825260208201905092915050565b600081905092915050565b6000615bde82615cf4565b9150615be983615cf4565b9250827fffffffffffffffffffffffffffffffffffffffffffffffffffffffffffffffff03821115615c1e57615c1d615e1d565b5b828201905092915050565b6000615c3482615cf4565b9150615c3f83615cf4565b925082615c4f57615c4e615e4c565b5b828204905092915050565b6000615c6582615cf4565b9150615c7083615cf4565b9250817fffffffffffffffffffffffffffffffffffffffffffffffffffffffffffffffff0483118215151615615ca957615ca8615e1d565b5b828202905092915050565b6000615cbf82615cf4565b9150615cca83615cf4565b925082821015615cdd57615cdc615e1d565b5b828203905092915050565b60008115159050919050565b6000819050919050565b82818337600083830152505050565b60005b83811015615d2b578082015181840152602081019050615d10565b83811115615d3a576000848401525b50505050565b60006002820490506001821680615d5857607f821691505b60208210811415615d6c57615d6b615e7b565b5b50919050565b615d7b82615ed9565b810181811067ffffffffffffffff82111715615d9a57615d99615eaa565b5b80604052505050565b6000615dae82615cf4565b91507fffffffffffffffffffffffffffffffffffffffffffffffffffffffffffffffff821415615de157615de0615e1d565b5b600182019050919050565b6000615df782615cf4565b9150615e0283615cf4565b925082615e1257615e11615e4c565b5b828206905092915050565b7f4e487b7100000000000000000000000000000000000000000000000000000000600052601160045260246000fd5b7f4e487b7100000000000000000000000000000000000000000000000000000000600052601260045260246000fd5b7f4e487b7100000000000000000000000000000000000000000000000000000000600052602260045260246000fd5b7f4e487b7100000000000000000000000000000000000000000000000000000000600052604160045260246000fd5b6000601f19601f8301169050919050565b615ef381615cf4565b8114615efe57600080fd5b5056fea2646970667358221220eaf46abb0edfb69e60478ee521388d3722e8a9044d725184ed95384362a7d45364736f6c63430008010033",
  "linkReferences": {},
  "deployedLinkReferences": {}
}